:020000040800F2
:10400000000600206D530008353B0908393B0908BC
:10401000A13B0908393B09086D3B09086F530008AB
:104020006F5300086F5300086F530008D9421108FE
:104030006F5300086F5300086F5300086F53000858
:104040006F5300086F5300086F5300086F53000848
:104050006F5300086F530008D9A1110805A2110879
:1040600031A211085DA2110889A211083149110875
:104070005949110885491108B1491108DD4911084C
:10408000054A1108314A1108CD47110801370908BE
:1040900011370908253709086F530008B5A2110820
:1040A0006F5300086F5300086F5300086F530008E8
:1040B0006F5300086F5300086F53000869521108CE
:1040C0007D521108A1521108B55211086F53000812
:1040D0006F5300086F530008696411087D6411086C
:1040E0001DA311086F5300086F5300086F53000899
:1040F0006F5300086F5300086F5300085D4A1108A2
:104100006F530008AD561108C1A911086F5300087C
:10411000916411086F5300086F5300086F53000833
:10412000894A1108B14A1108DD4A1108094B1108E2
:10413000354B11086F5300086F53000839370908D1
:10414000493709085D3709086F530008A59D110814
:104150005D4B1108894B1108B54B11086F530008CE
:104160006F5300086F5300086F5300086F53000827
:104170006F5300086F5300086F5300086F53000817
:104180006F5300086F530008A5641108B964110843
:104190006F5300086F5300086F5300086F530008F7
:1041A0006F5300086F5300086F5300086F530008E7
:1041B0006F5300086F5300086F5300086F530008D7
:1041C0006F5300086F5300086F5300086F530008C7
:1041D0006F5300086F5300086F5300086F530008B7
:1041E0004979000815A90008A935010885EA0108E0
:1041F00061000208590C0208853A0208614302086E
:10420000E192020899B30208BD110308ADCC03087E
:10421000955C0408BD5F0408298504084D880408DE
:104220002596040805BF040845240508012C050847
:10423000512F0508F9920508D1AE050855CE06089C
:104240005D260708753107084D5B0708A1D70708E9
:1042500011C7080871370908AD390908653F090811
:104260000DAC0A0875CB0A08C1D00A087DDF0A0820
:1042700029F50A0859F50A089D1C0B08F95B0B087B
:1042800001810B0815A00B087DA70B08F1DB0B08BB
:1042900041470C0869A80E0801B10E08B1ED0E08DF
:1042A000D5240F08859C0F086DA30F08A9C20F081D
:1042B00071EB0F082520100800000000000000002E
:1042C000D0400B1CD1409C46203AD3401843524268
:1042D0006346934018437047D0400B1C1141203A6D
:1042E00003D49C46134118436346524293401843FB
:1042F000704700BF9140031C90409C46203A934079
:10430000194352426346D3401943704781F000413C
:1043100002E000BF83F0004330B54FEA41044FEAAA
:10432000430594EA050F08BF90EA020F1FBF54EA45
:10433000000C55EA020C7FEA645C7FEA655C00F0E1
:10434000E2804FEA5454D4EB5555B8BF6D420CDDB2
:104350002C4480EA020281EA030382EA000083EA35
:10436000010180EA020281EA0303362D88BF30BDD5
:1043700011F0004F4FEA01314FF4801C4CEA11312B
:1043800002D0404261EB410113F0004F4FEA03338A
:104390004CEA133302D0524263EB430394EA050F15
:1043A00000F0A780A4F10104D5F1200E0DDB02FA84
:1043B0000EFC22FA05F2801841F1000103FA0EF218
:1043C000801843FA05F359410EE0A5F120050EF1DE
:1043D000200E012A03FA0EFC28BF4CF0020C43FA0F
:1043E00005F3C01851EBE37101F0004507D54FF01C
:1043F000000EDCF1000C7EEB00006EEB0101B1F56C
:10440000801F1BD3B1F5001F0CD349085FEA3000B1
:104410004FEA3C0C04F101044FEA445212F5800FBC
:1044200080F09A80BCF1004F08BF5FEA500C50F159
:10443000000041EB045141EA050130BD5FEA4C0C3C
:10444000404141EB010111F4801FA4F10104E9D1C5
:1044500091F0000F04BF01460020B1FA81F308BFBC
:104460002033A3F10B03B3F120020CDA0C3208DD88
:1044700002F1140CC2F10C0201FA0CF021FA02F163
:104480000CE002F11402D8BFC2F1200C01FA02F1D3
:1044900020FA0CFCDCBF41EA0C019040E41AA2BFF8
:1044A00001EB0451294330BD6FEA04041F3C1CDAC0
:1044B0000C340EDC04F11404C4F1200220FA04F0E0
:1044C00001FA02F340EA030021FA04F345EA03018A
:1044D00030BDC4F10C04C4F1200220FA02F001FA4C
:1044E00004F340EA0300294630BD21FA04F02946CE
:1044F00030BD94F0000F83F4801306BF81F4801167
:104500000134013D4EE77FEA645C18BF7FEA655CD9
:1045100029D094EA050F08BF90EA020F05D054EAAB
:10452000000C04BF1946104630BD91EA030F1EBFB0
:104530000021002030BD5FEA545C05D140004941B4
:1045400028BF41F0004130BD14F580043CBF01F5A7
:10455000801130BD01F0004545F0FE4141F470018D
:104560004FF0000030BD7FEA645C1ABF1946104668
:104570007FEA655C1CBF0B46024650EA013406BF69
:1045800052EA033591EA030F41F4002130BD00BF28
:1045900090F0000F04BF0021704730B54FF48064E5
:1045A00004F132044FF000054FF0000150E700BF66
:1045B00090F0000F04BF0021704730B54FF48064C5
:1045C00004F1320410F0004548BF40424FF00001B2
:1045D0003EE700BF42004FEAE2014FEA31014FEAF5
:1045E00002701FBF12F07F4393F07F4F81F0605144
:1045F000704792F0000F14BF93F07F4F704730B5B3
:104600004FF4607401F0004521F0004120E700BF45
:1046100050EA010208BF704730B54FF000050AE0CC
:1046200050EA010208BF704730B511F0004502D5CD
:10463000404261EB41014FF4806404F132045FEACF
:10464000915C3FF4DCAE4FF003025FEADC0C18BF74
:1046500003325FEADC0C18BF033202EBDC02C2F16A
:10466000200300FA03FC20FA02F001FA03FE40EAFC
:104670000E0021FA02F11444C1E600BF70B54FF0FC
:10468000FF0C4CF4E06C1CEA11541DBF1CEA1355DE
:1046900094EA0C0F95EA0C0F00F0DEF82C4481EA46
:1046A000030621EA4C5123EA4C5350EA013518BF66
:1046B00052EA033541F4801143F4801338D0A0FB53
:1046C00002CE4FF00005E1FB02E506F00042E0FB00
:1046D00003E54FF00006E1FB03569CF0000F18BF06
:1046E0004EF0010EA4F1FF04B6F5007F64F54074AE
:1046F00004D25FEA4E0E6D4146EB060642EAC62141
:1047000041EA55514FEAC52040EA5E504FEACE2EAD
:10471000B4F1FD0C88BFBCF5E06F1ED8BEF1004FB0
:1047200008BF5FEA500E50F1000041EB045170BD2C
:1047300006F0004646EA010140EA020081EA030170
:10474000B4EB5C04C2BFD4EB0C0541EA045170BD6C
:1047500041F480114FF0000E013C00F3AB8014F1E6
:10476000360FDEBF002001F0004170BDC4F100042F
:10477000203C35DA0C341BDC04F11404C4F12005B0
:1047800000FA05F320FA04F001FA05F240EA02000B
:1047900001F0004221F0004110EBD37021FA04F641
:1047A00042EB06015EEA430E08BF20EAD37070BDFB
:1047B000C4F10C04C4F1200500FA04F320FA05F05A
:1047C00001FA04F240EA020001F0004110EBD3705C
:1047D00041F100015EEA430E08BF20EAD37070BDCC
:1047E000C4F1200500FA05F24EEA020E20FA04F3A5
:1047F00001FA05F243EA020321FA04F001F0004154
:1048000021FA04F220EA020000EBD3705EEA430EC4
:1048100008BF20EAD37070BD94F0000F0FD101F0F3
:104820000046400041EB010111F4801F08BF013C2C
:10483000F7D041EA060195F0000F18BF704703F06A
:104840000046520043EB030313F4801F08BF013DF1
:10485000F7D043EA0603704794EA0C0F0CEA1355AD
:1048600018BF95EA0C0F0CD050EA410618BF52EA67
:104870004306D1D181EA030101F000414FF000006D
:1048800070BD50EA410606BF1046194652EA43067B
:1048900019D094EA0C0F02D150EA013613D195EAEF
:1048A0000C0F05D152EA03361CBF104619460AD137
:1048B00081EA030101F0004141F0FE4141F4700141
:1048C0004FF0000070BD41F0FE4141F4780170BD31
:1048D00070B54FF0FF0C4CF4E06C1CEA11541DBF96
:1048E0001CEA135594EA0C0F95EA0C0F00F0A7F898
:1048F000A4EB050481EA030E52EA03354FEA0131C5
:1049000000F088804FEA03334FF0805545EA1313D7
:1049100043EA12634FEA022245EA111545EA10659F
:104920004FEA00260EF000419D4208BF964244F136
:10493000FD0404F5407402D25B084FEA3202B61A55
:1049400065EB03055B084FEA32024FF480104FF429
:10495000002CB6EB020E75EB030E22BFB61A75469D
:1049600040EA0C005B084FEA3202B6EB020E75EB30
:10497000030E22BFB61A754640EA5C005B084FEA98
:104980003202B6EB020E75EB030E22BFB61A754665
:1049900040EA9C005B084FEA3202B6EB020E75EB70
:1049A000030E22BFB61A754640EADC0055EA060E31
:1049B00018D04FEA051545EA16754FEA06164FEA74
:1049C000C30343EA52734FEAC2025FEA1C1CC0D120
:1049D00011F4801F0BD141EA00014FF000004FF0AD
:1049E000004CB6E711F4801F04BF01430020B4F16E
:1049F000FD0C88BFBCF5E06F3FF6AFAEB5EB030C26
:104A000004BFB6EB020C5FEA500C50F1000041EB22
:104A1000045170BD0EF0004E4EEA113114EB5C04EF
:104A2000C2BFD4EB0C0541EA045170BD41F48011C2
:104A30004FF0000E013C90E645EA060E8DE60CEACA
:104A4000135594EA0C0F08BF95EA0C0F3FF43BAFE7
:104A500094EA0C0F0AD150EA01347FF434AF95EA9E
:104A60000C0F7FF425AF104619462CE795EA0C0F82
:104A700006D152EA03353FF4FDAE1046194622E74F
:104A800050EA410618BF52EA43067FF4C5AE50EA29
:104A900041047FF40DAF52EA43057FF4EBAE12E719
:104AA0004FF0FF3C06E000BF4FF0010C02E000BFFA
:104AB0004FF0010C4DF804CD4FEA410C7FEA6C5CDD
:104AC0004FEA430C18BF7FEA6C5C1BD001B050EA80
:104AD000410C0CBF52EA430C91EA030F02BF90EA6B
:104AE000020F0020704710F1000F91EA030F58BF2A
:104AF000994208BF90422CBFD8176FEAE37040F08C
:104B0000010070474FEA410C7FEA6C5C02D150EA29
:104B1000013C07D14FEA430C7FEA6C5CD6D152EAE4
:104B2000033CD3D05DF8040B704700BF84461046A9
:104B300062468C461946634600E000BF01B5FFF7A8
:104B4000B7FF002848BF10F1000F01BD4DF808ED78
:104B5000FFF7F4FF0CBF012000205DF808FB00BF49
:104B60004DF808EDFFF7EAFF34BF012000205DF8A3
:104B700008FB00BF4DF808EDFFF7E0FF94BF0120F0
:104B800000205DF808FB00BF4DF808EDFFF7CEFFF1
:104B900094BF012000205DF808FB00BF4DF808ED30
:104BA000FFF7C4FF34BF012000205DF808FB00BF01
:104BB0004FEA410C7FEA6C5C02D150EA013C0AD119
:104BC0004FEA430C7FEA6C5C02D152EA033C02D10B
:104BD0004FF0000070474FF0010070474FEA41026C
:104BE00012F5001215D211D56FF47873B3EB62523F
:104BF00012D94FEAC12343F0004343EA505311F066
:104C0000004F23FA02F018BF404270474FF00000F7
:104C1000704750EA013005D111F0004008BF6FF035
:104C2000004070474FF00000704700BF4A0011D2AB
:104C300012F5001211D20DD56FF47873B3EB6252F6
:104C40000ED44FEAC12343F0004343EA505323FA02
:104C500002F070474FF00000704750EA013002D177
:104C60004FF0FF3070474FF0000070474FEA4102AD
:104C7000B2F1E04324BFB3F5001CDCF1FE5C0DD9BA
:104C800001F0004C4FEAC0024CEA5070B2F1004F04
:104C900040EB830008BF20F00100704711F0804F07
:104CA00021D113F13872BCBF01F00040704741F4CC
:104CB00080114FEA5252C2F11802C2F1200C10FAD0
:104CC0000CF320FA02F018BF40F001004FEAC123B4
:104CD0004FEAD32303FA0CFC40EA0C0023FA02F358
:104CE0004FEA4303CCE77FEA625307D150EA01332E
:104CF0001EBF4FF0FE4040F44000704701F00040FE
:104D000040F0FE4040F40000704700BF80F00040DB
:104D100002E000BF81F0004142001FBF5FEA410393
:104D200092EA030F7FEA226C7FEA236C6AD04FEA93
:104D30001262D2EB1363C1BFD218414048404140D8
:104D4000B8BF5B42192B88BF704710F0004F40F48A
:104D5000000020F07F4018BF404211F0004F41F4A6
:104D6000000121F07F4118BF494292EA030F3FD072
:104D7000A2F1010241FA03FC10EB0C00C3F1200385
:104D800001FA03F100F0004302D5494260EB400014
:104D9000B0F5000F13D3B0F1807F06D340084FEA7F
:104DA000310102F10102FE2A51D2B1F1004F40EB74
:104DB000C25008BF20F0010040EA030070474900DC
:104DC00040EB000010F4000FA2F10102EDD1B0FAA7
:104DD00080FCACF1080CB2EB0C0200FA0CF0AABF9C
:104DE00000EBC25052421843BCBFD040184370473A
:104DF00092F0000F81F4000106BF80F40000013240
:104E0000013BB5E74FEA41037FEA226C18BF7FEA16
:104E1000236C21D092EA030F04D092F0000F08BF58
:104E20000846704790EA010F1CBF0020704712F03F
:104E30007F4F04D1400028BF40F00040704712F17E
:104E400000723CBF00F50000704700F0004343F0E3
:104E5000FE4040F4000070477FEA226216BF084619
:104E60007FEA23630146420206BF5FEA412390EADC
:104E7000010F40F4800070474FF0000304E000BFD2
:104E800010F0004348BF40425FEA000C08BF704783
:104E900043F0964301464FF000001CE050EA010247
:104EA00008BF70474FF000030AE000BF50EA01025C
:104EB00008BF704711F0004302D5404261EB410149
:104EC0005FEA010C02BF84460146002043F0B6436E
:104ED00008BFA3F18053A3F50003BCFA8CF2083A93
:104EE000A3EBC25310DB01FA02FC634400FA02FC9C
:104EF000C2F12002BCF1004F20FA02F243EB0200A3
:104F000008BF20F00100704702F1200201FA02FC04
:104F1000C2F1200250EA4C0021FA02F243EB0200F7
:104F200008BF20EADC7070477BB972B90029BEBFA8
:104F300000204FF0004106E008BF00281CBF6FF0C2
:104F400000414FF0FF3000F00FBAADF1080C6DE9F1
:104F500004CE002909DB002B1ADB00F097F8DDF8FE
:104F600004E0DDE9022304B07047404261EB4101F7
:104F7000002B1BDB00F08AF8DDF804E0DDE90223FA
:104F800004B0404261EB4101524263EB430370477E
:104F9000524263EB430300F079F8DDF804E0DDE909
:104FA000022304B0404261EB41017047524263EB7F
:104FB000430300F06BF8DDF804E0DDE9022304B000
:104FC000524263EB4303704753B94AB9002908BF03
:104FD00000281CBF4FF0FF314FF0FF3000F0C4B984
:104FE000ADF1080C6DE904CE00F050F8DDF804E0F6
:104FF000DDE9022304B07047430803F05533C01ABB
:10500000830803F0333300F03330184400EB101002
:1050100000F00F3000EB002000EB0040000E704766
:1050200080EA104080EA102080EA101046F69613BD
:1050300000F00F0043FA00F000F00100704700BFDD
:10504000D0B5FFF7C7FA00220E4B06460F46FFF712
:1050500015FBFFF7EBFD0446FFF79AFA00220A4B17
:10506000FFF70CFB02460B4630463946FFF752F974
:10507000FFF7DCFD2346002242EA000210461946F3
:10508000D0BD00BF0000F03D0000F0412DE9F04729
:105090008C460D460446089E002B51D18A42174685
:1050A0006DD9B2FA82FEBEF1000F0BD0CEF1200C0A
:1050B00001FA0EF520FA0CFC02FA0EF74CEA050C88
:1050C00000FA0EF44FEA174A250CBCFBFAF81FFA57
:1050D00087F90AFB18CC45EA0C4508FB09F3AB42FB
:1050E0000AD9ED1908F1FF3280F02381AB4240F27A
:1050F0002081A8F102083D44ED1AA4B2B5FBFAF0F4
:105100000AFB105544EA054400FB09F9A14509D9F9
:10511000E41900F1FF3380F00A81A14540F20781D4
:1051200002383C44A4EB090440EA08400021002E68
:1051300061D024FA0EF4002334607360BDE8F08778
:105140008B4207D9002E54D0002186E82100084662
:10515000BDE8F087B3FA83F1002940F08E80AB42BE
:1051600002D3824200F2FA80841A65EB0305012023
:10517000AC46002E3FD086E81010BDE8F08712B98B
:105180000127B7FBF2F7B7FA87FEBEF1000F34D163
:10519000EB1B3A0C1FFA87FC0121B3FBF2F8250C3C
:1051A00002FB183345EA03450CFB08F3AB4207D971
:1051B000ED1908F1FF3002D2AB4200F2D1808046F7
:1051C000ED1AA3B2B5FBF2F002FB105543EA054419
:1051D0000CFB00FCA44507D9E41900F1FF3302D20F
:1051E000A44500F2B8801846A4EB0C0440EA08403D
:1051F0009DE731463046BDE8F087CEF1200405FA40
:105200000EF307FA0EF720FA04F83A0C25FA04F424
:1052100048EA0308B4FBF2F14FEA184502FB1144D7
:105220001FFA87FC45EA044501FB0CF3AB4200FA88
:105230000EF409D9ED1901F1FF3080F08A80AB42FC
:1052400040F2878002393D44EB1A1FFA88F5B3FB20
:10525000F2F002FB103345EA034500FB0CF3AB42CE
:1052600007D9ED1900F1FF386FD2AB426DD9023882
:105270003D44EB1A40EA01418FE7C1F1200722FAD1
:1052800007F88B4005FA01F448EA030320FA07FE09
:105290004FEA134CFD404EEA040EB5FBFCF94FEA11
:1052A0001E440CFB19551FFA83F844EA054509FB17
:1052B00008F4AC4202FA01F200FA01FA08D9ED183A
:1052C00009F1FF3043D2AC4241D9A9F102091D4492
:1052D0002D1B1FFA8EFEB5FBFCF00CFB10554EEAA1
:1052E000054400FB08F8A04507D9E41800F1FF3594
:1052F00029D2A04527D902381C4440EA0940A4EB32
:105300000804A0FB02894C45C6464D4615D312D071
:1053100056B1BAEB0E0364EB050404FA07F7CB4071
:105320001F43CC40376074600021BDE8F087184609
:10533000F8E69046E0E6C245EAD2B8EB020E69EB29
:1053400003050138E4E72846D7E7404691E7814660
:10535000BEE7014678E702383C4445E7084608E7DF
:10536000A8F102083D442BE7704700BF02E000F0BF
:1053700000F8FEE772B6394880F30888384880F3B1
:10538000098838484EF60851CEF20001086040F214
:105390000000CCF200004EF63471CEF2000108603D
:1053A000BFF34F8FBFF36F8F40F20000C0F2F000E9
:1053B0004EF68851CEF200010860BFF34F8FBFF365
:1053C0006F8F4FF00000E1EE100A4EF63C71CEF206
:1053D00000010860062080F31488BFF36F8F14F17A
:1053E000A9F913F141FB4FF055301F491B4A914277
:1053F0003CBF41F8040BFAE71C49194A91423CBFF3
:1054000041F8040BFAE71A491A4A1B4B9A423EBF6D
:1054100051F8040B42F8040BF8E700201749184A2A
:1054200091423CBF41F8040BFAE714F187F913F1FC
:1054300077FB144C144DAC4203DA54F8041B884734
:10544000F9E702F0F3F9114C114DAC4203DA54F8CC
:10545000041B8847F9E714F16FB90000000600202B
:10546000002200200040000800000020000600206C
:10547000C8E6140800220020582C0020582C0020D8
:10548000885F0120E0410008B8420008B8420008E7
:10549000B84200082DE9F04F2DED108AC1F80CD06C
:1054A000C3689D46BDEC108ABDE8F08F002383F3EE
:1054B00011882846A047002013F108F912F1EEFEEA
:1054C00000DFFEE701F0FF01102A2BDB10F0070FD1
:1054D00008D010F8013B013A8B422DD010F0070F95
:1054E00042B3F6D1F0B441EA012141EA014122F090
:1054F00007047FF000070023F0E80256083C85EA25
:10550000010586EA010685FA47F5A3FA87F586FACA
:1055100047F6A5FA87F68EB9EED1F0BC01F0FF018F
:1055200002F0070232B110F8013B013A83EA0103AD
:1055300013B1F8D10020704701387047002D06BF25
:1055400035460338073815F0010F07D1013015F43F
:10555000807F02BF013015F4C03F0130F0BC01383C
:10556000704700BFEC46A0E8F05F4FF000007047C6
:10557000B0E8F05FE546080008BF0120704700BFB3
:1055800010F8012B11F8013B012A28BF9A42F7D0ED
:10559000D01A7047034613F8012B002AFBD1181AC2
:1055A00001387047074A13780133DBB21D2B98BFCF
:1055B000137003684FF0000188BF11709B6888BFAB
:1055C0000121184700220020F0B58368012B91B01B
:1055D00004460E467BD0980679D4012011B0F0BD68
:1055E00093ED017AD2ED0A7AB4EEE77AF1EE10FA91
:1055F00000F3A58042F20E62AA5E002A06DC5D4B33
:1056000032462021204685F05FFE53E093F8BC210E
:105610000D2A9DBF4FF42153D340DB430123D9070B
:1056200000F19380544BEBE754480FF0B1FA012896
:1056300028D144F24433E8587DF0C2FB012804D05D
:1056400002280ED0F0B94E4BDAE74E4B1B78DA0742
:1056500005D519214C4843F063FA00287FD14B4B04
:10566000CEE744F23453EB560BB9494BC8E703AAD3
:105670000DF10A01474845F0D9FABDF80A300BB1DF
:10568000454BBDE743F20973EB5CDB0601D5434BA9
:10569000B6E744F2403003AF32233A464049285837
:1056A0007BF052FA40B900973E4B3246202120460B
:1056B00085F00AFE002091E744F23C3032233A465E
:1056C000394928587AF0E6F8002887D1EBE7374DBA
:1056D00042F21263EB567BB143F2DC2242F21463D6
:1056E000AA58EB5EB2F90A1003F10A02914228DDD2
:1056F00040F28D32934224DD2D4B93F90030022B82
:1057000005D12C4B32462021204685F0DDFD42F2AA
:10571000D25341F65832EB5AA3F57A739BB29342B7
:1057200011D844F23C33EA58234BD2ED097A93ED79
:10573000007AB4EEE77AF1EE10FA7FF751AF1F4B23
:105740005EE71F4B5CE71F4B5AE743F21073E858C4
:105750007FF0CEFF00287FF467AF1B4B50E742F28B
:10576000E85319210848EF5E43F0EAF9874289DDE2
:10577000164B45E7241B1208541C1208B881002060
:105780004F1B1208E05F0020283F0020741C120805
:105790009B1B120894710020BF1B1208E81B120803
:1057A000FD1B1208011C1208131C1208602C00209B
:1057B00060520020FC1A1208A45200203A1C120861
:1057C000171C12082A1C1208391B1208721B120817
:1057D0002DE9F347DFF8EC9043F21078064659F8CC
:1057E000083093F86A400F4634B9324A85F0E4FE37
:1057F000204602B0BDE8F087202185F053FD8246A7
:105800000028F5D01EF032F91EF030F990F8405023
:10581000EB1E5D425D411EF029F990F84130032BEB
:105820000ABF55464FF0000A4FF0010A002DDFD0A5
:1058300059F808007FF0B0FEB0F57A7F06D01E4A16
:105840003946304685F0B8FE0024D1E759F8080003
:105850007FF0B0FEB0F5FA6F01D0184AF0E750467D
:105860006BF058FD054659F8080003681B6A984715
:105870000022B5F8E4E1114613464FF0010C102A5E
:105880000ED00CFA02F5284202F10102F7D01EEA0E
:10589000050FF4D10133DBB20029F0D1D1B2EEE72C
:1058A000002BA5D00091064A3946304685F084FE8B
:1058B000CAE700BF641A1208821A1208A51A120851
:1058C000C81A1208602C002013B58368012B0A4601
:1058D00004D05B0602D4012002B010BD0B4B42F293
:1058E000126159560029F6D043F2DC215C5842F28D
:1058F0001461595EB4F906309942ECDD044B009313
:105900004021044B85F0E0FC0020E5E7602C0020FE
:105910006C1D1208F3D7130870B58EB005460E46FD
:10592000322201A9094867F0E7FE044640B99DF913
:10593000043043B9064B074A3146284685F03CFE01
:1059400020460EB070BD01ABF5E700BFB45D00208E
:10595000841D1208F3D713082DE9F04399B00F46C0
:10596000064618F04BFE0546322200210BA818F11E
:1059700033FA2B6832229B6A0BA9284698470446C3
:1059800048B90BAB334A3946304685F015FE204600
:1059900019B0BDE8F08344F65C73DFF8CC8058F8AA
:1059A000030003689B68984781462B4867F036FCE4
:1059B000B9F1000F0AD0404613F0D8FD78B9274A54
:1059C0003946304685F0F8FD0024E0E710F0060F78
:1059D000DDD0404613F0CAFD08B9214AF0E703A91B
:1059E000284617F073FB28B19DF80D305B0601D5F2
:1059F0001C4AE5E70023089309930A932B6807AA3A
:105A00000DF120090192CDF80090D3F8E88005AAA5
:105A100006AB04A92846C047DFF85880D8ED007AC5
:105A2000F5EEC07AF1EE10FA09DD484634F09EFF3B
:105A3000D8ED007AB4EEE70AF1EE10FA08DA05F5CF
:105A40009E71094805F04CFB0028A0D0074AB7E733
:105A5000074AB5E7F01C120868700020F91C12080C
:105A6000101D1208361D1208602C0020441D12085B
:105A7000561D12089052002008B5064A43F20973D9
:105A8000D35C9B0704D5044A85F096FD002008BD31
:105A9000012008BD602C0020981C120870B5836896
:105AA00013F0210F8EB005460E460FD086F09CFFF6
:105AB000044658B13222002101A818F18DF9204680
:105AC000322201A986F058FF044608B1012405E0FE
:105AD00001AB044A3146284685F06EFD20460EB0E3
:105AE00070BD00BFF3D7130870B544F65C730B4C60
:105AF0000546E0580368DB680E46984710B101245C
:105B0000204670BD204613F043FD04460028F6D120
:105B1000034A3146284685F04FFDF1E7602C00200E
:105B2000A019120870B505460E46FFF715FF064B83
:105B30000446D87131462846FFF7D6FF002814BF27
:105B40002046002070BD00BF1D8900202DE9F041D6
:105B500043F21072304FBA5892F8684005460E462C
:105B6000002C4FD154F090FC202154F0FBFA30B1BE
:105B700054F08AFC1F2154F0F5FA002845D143F275
:105B8000E663FB5C03F01403142B04D1234A314673
:105B9000284685F011FDAB6833B92B68314628469D
:105BA0001B6BBDE8F04118473146284686F05EFA87
:105BB000314604462846FFF707FD31460440284693
:105BC000FFF706FEE4B2044031462846FFF77CFEAC
:105BD000314604402846FFF79FFE314604402846E0
:105BE000FFF74AFF314604402846FFF757FF31468A
:105BF00004402846FFF778FF31460440284686F0E7
:105C000055FC04402046BDE8F081054A314628464F
:105C100085F0D2FCF6E700BF602C0020A81C12081B
:105C2000C01C120810B5FFF791FF054943F2E4626A
:105C30008C5C60F304148C54024A907110BD00BF58
:105C4000602C00201D89002007B504487EF09AFED4
:105C500000F0010003B05DF804FB00BF7C6F002082
:105C6000F7B505460E4685F09BFB044620B1AB68B0
:105C7000012B04D09A0702D4204603B0F0BD14488B
:105C80007EF080FEC0F3072010F00107F4D18307F7
:105C9000F2D50F487EF020FE44F2E8230D4AD35897
:105CA00007EE903AF8EEE77A30EE670ADFED0A7A0F
:105CB000B0EEC00AB4EEE70AF1EE10FADCDD074BF5
:105CC00032460221284685F0FFFA3C46D4E700BF61
:105CD0007C6F0020602C00200000C842E81A1208E7
:105CE0002DE9F041074690B0884685F019FDBB6864
:105CF000012B054605D05B0703D4284610B0BDE84C
:105D0000F08103AC32220021204618F165F821F021
:105D10003FFE3222214621F071FC06460028ECD1DC
:105D20000094044B42460421384685F0CDFA3546AE
:105D3000E3E700BFF3D71308F8B504460F4685F034
:105D40008FFEA368012B054603D0DB0601D428464D
:105D5000F8BD2046FFF778FF06460028F7D1044B30
:105D60003A461021204685F0AFFA3546EFE700BFEE
:105D7000501A120838B504460D4685F0C7FBC8B165
:105D8000A368012B08D01B0606D438BD294620463F
:105D9000BDE8384085F0E2BE43F66543064AD35C71
:105DA000002BF3D02046054B2A46802185F08CFA43
:105DB000002038BD38BD00BF602C0020DC1C12085C
:105DC000F0B543F2D423124C85B0E358009343F26C
:105DD000D8236A46E358019343F2DC230646E3588E
:105DE000029343F2E0230F46E358039386F0B4FA9C
:105DF00039460546304685F08FFA43F2E462284082
:105E0000A35C60F3C303C3F3C000A35405B0F0BDAB
:105E1000602C00202DE9F84306468846FFF79CFDDC
:105E20001D4F044610B90024FC7113E01B4D44F6CD
:105E30005C73E85803689B6898478146184867F088
:105E4000EDF92B46B9F1000F07D110F0060F04D180
:105E50000123FB712046BDE8F883B268012A01D016
:105E60001207F5D593F8D824842101FB023242F2BF
:105E70000261B2F866235B5E9A4206DD094B424638
:105E80000821304685F020FACDE74146304685F0BE
:105E9000A1FA0028DCD1C6E71D890020602C002073
:105EA00068700020401A120870B588B005460E468A
:105EB00085F0A2FB044620B1AB68012B04D09B0601
:105EC00002D4204608B070BD44F2B843184AD35CEF
:105ED000002BF6D007AA06A9164862F057FE002844
:105EE000EFD0DDED077A9FED147AF4EEC77AF1EE8C
:105EF00010FAE6D80CA3D3E9002317EE900ACDE9F7
:105F00000423FEF767FBDDED067A0C4BFDEEE77A26
:105F1000CDE90201CDED007A32462021284685F0F8
:105F2000D3F90024CDE700BF000000403333E33F46
:105F3000602C00202C5400209A99193F9C1D1208B7
:105F40002DE9F3478946054618F058FB0368D3F856
:105F5000C83007469847044640B9754A012128468B
:105F600085F02AFB204602B0BDE8F0873B68384642
:105F70005B6B9847044670B921F00AFD214606463E
:105F800020F0F8FF7C23C0B203FB006090F889404A
:105F90000CB9684AE2E7DFF8B88143F2EC6309F133
:105FA000FF3618F803A044F65C73714258F80300FA
:105FB000036871411B6998474646044608B95E4A22
:105FC000CCE701212846FFF703FC04460028C9D08E
:105FD00043F2E66318F8033003F01403142B05D1E1
:105FE000564A0121284685F0E7FA92E054F04CFA2F
:105FF0001F2154F0B7F8524BD0B91870AB68002B82
:10600000B0D0012B63D0DC0661D4AB68012B00F06B
:10601000828098067FD4590611D44A4B1B68D86CED
:106020000368DB6998470128014649D1464AD9E708
:106030001B78002BE2D0454AD3E7012BEBD142F28B
:106040001263F3564BB143F2DC2342F21462F3586D
:10605000B25EB3F906309A4266DCB9F1010F03D1A2
:106060000AF0EF03042BD8D043F2DC233848F3586E
:10607000B3F9083000EE103AB8EEC00A00F004FBA5
:10608000B5EEC00AF1EE10FA08DD324B0093324B48
:1060900001224021284685F017F93AE044F65C7366
:1060A000F0580368DB68984710B9BAF10B0FB4D108
:1060B00043F2DC23F358B3F90830002BE5DCACE7FE
:1060C0004946284602B0BDE8F04785F035BED7ED19
:1060D000557A97ED540A20EE270A15F14DF8DFEDB9
:1060E0001F7A42F2D25320EE270AF35EDFED1C7ACC
:1060F00020EE270A07EE903AF8EEE77AB4EEE70AC8
:10610000F1EE10FA81DD174B01221021284685F0AF
:10611000DBF8002426E743F20972B25CD2068CD584
:10612000114B01222021F1E70A4B00930F4BAFE7FF
:10613000B4191208C5191208D9191208A81C120896
:10614000D8920020C88500201F1A1208EA191208E8
:10615000602C0020161A12080A1A1208E02E654256
:106160000000C842021A1208E81B12082D1A120871
:106170002DE9F041524E3378B046002B40F09E801E
:10618000504C43F2107501276559377095F86850E7
:106190001DB133702846BDE8F08186F02DFA054622
:1061A00030B9494A3070137843F001031370F1E7B6
:1061B00048F012FD394647F00DFF204606F08CFDF1
:1061C000424B1F710C27013F04D03DF043F93DF0D5
:1061D000A1F8F8E73B4800F0FDFE18F00FFA43F293
:1061E00038738269E25090F84C31DA07064654D48D
:1061F0000368D3F8E030984748F0EEFC3C2148F0C3
:1062000049FC334B00221A6000212E4800F07AFF2F
:106210002C4813F0ABF901462E4883F045FD96F863
:10622000803043F0040386F880302B4B1B6801213B
:10623000D86C2DF0E5FA44F2E8432248E25C6FF3B3
:106240004102E25411F0BAFF43F210730121E05809
:1062500080F05AF948F0C0FC43F2ED630026E25C9E
:1062600043F2EC63E15C48F043F8164806F026FD83
:1062700043F086FE43F09EFA88F800608DF0CEFC75
:1062800044F25033E050154B9A7842F020029A7055
:10629000DA7866F34102DA707CE79B07B4D43946BA
:1062A000084804F0C5FF0E487EF016FBDFED0D7ABE
:1062B000074B20EE270A83ED000AA5E7002569E7D2
:1062C000582C0020602C0020388900201D890020D7
:1062D00058630020185C0020C8850020446300201B
:1062E0007C6F00200AD7233C2DE9F04343F2107362
:1062F0003B4DEB5893F8683085B0002B6DD05AB108
:10630000012909D143F2E463EB56002B04DB00279B
:10631000384605B0BDE8F08386F0CCF90746002882
:10632000F5D018F06BF9064621F032FB3368814650
:10633000D3F8A43030469847D8B199F95C30022B95
:1063400017D100244FF0000801AA21463046CDF8AD
:106350000480CDF80880CDF80C8018F041F820B109
:1063600001AA2146484620F057FF0134E4B2032C2D
:10637000EAD144F65C721B4BA858984229D10AF026
:10638000A9F90121164806F081FE0121144806F002
:10639000C1FD43F210730021E85880F0B5F81248AF
:1063A00036F022FA48F018FC002147F013FE96F868
:1063B00080306FF3820386F880300C4B1B6800211D
:1063C000D86C2DF01DFA0A4B9A786FF345129A702B
:1063D0009EE718460AF08AF9D3E7012798E700BF3D
:1063E000602C0020D47E0020787C0020C88500200E
:1063F00044630020014866F093BF00BF687000202E
:1064000010B543F2E462835CC3F340148C420AD0BB
:1064100061F34513835431B148F0DEFB0F21BDE831
:10642000104048F037BB10BD38B543F22073044626
:10643000C3588B420D4613D0012912D0022917D020
:1064400059B948F0C9FB1B2148F024FB0D4A04F55B
:106450005350062114304AF0CFFE43F22073E5502A
:1064600038BD48F0B9FB1A2148F014FB064AEEE7A4
:10647000012100F047FE48F0AFFB1D2148F00AFB68
:10648000024AE4E7101E1208251E1208201E1208F8
:1064900043F2097238B5835C0C4603F00101A14256
:1064A00008D064F300038354DB0704D406F0E0F85B
:1064B000024B9C7238BD06F029FAF9E71D890020CD
:1064C00043F20973C25C61F34102C254014B197378
:1064D000704700BF1D89002010B5044653F0D4FF5B
:1064E000202153F03FFE04F55B53003093F8262043
:1064F00018BF012060F3820283F8262010BD00003F
:1065000038B52DED028B43F209730446C35CDA07FC
:1065100008EE101A3CD443F2E563C35C5B0737D541
:1065200000F51F55B7EE001A0E20DFED1B0A95EDA2
:106530000E0A31F0ADF8DFED197A85ED0E0AF0EEB6
:10654000C06AF4EEE76AF1EE10FAB0EE407AF8EEC7
:10655000C87A04F5195406D594ED000A20EE270AEE
:10656000BDEC028B38BD9FED0E6AC7EE866AF7EE72
:10657000007A77EEC07A27EEA60A66EEA67A67EE74
:10658000A66AD4ED007AA7EE260A20EE060AE5E711
:106590009FED010AE4E700BF0000000000000034A6
:1065A00000A08C4508B543F21073C05803681B68FF
:1065B0009847F6EE007A20EE270ADFED057AB4EE72
:1065C000670AF1EE10FA48BFB0EE670A08BD00BFD7
:1065D0000000000038B52DED028B44F23C33054637
:1065E000C358DFED110A93ED2B0A7B20B7EE001A9A
:1065F00031F04EF844F24033B0EE408AEC5843F2AA
:1066000010732834E85803681B68984738EE400A2E
:10661000BDEC028BDFED057A204620EE270ABDE8AF
:1066200038406EF0CDBA00BF0000000000007A4490
:1066300000F5F55300F5F550D3ED025AD2ED007A8E
:10664000D0ED056A91ED006A26EEE77A67EEA57A4D
:10665000A6EE257AE6EE267A81ED007AC2ED007A82
:106660007047000043F28403C35E3BB942F20E63FD
:10667000C05E0028B8BF404280B2704783EAE37032
:10668000A0EBE370F8E7000070B52DED068B43F248
:1066900009730446C15C11F00105B0EE408A04D0D4
:1066A0009FED2B0ABDEC068B70BD43F2E563C35C26
:1066B0005B07F5D542F2166611F0ACFEA35F9FEDC5
:1066C000259ADFED230A01EE103A07EE900AF8EE64
:1066D000C19A5D20B0EE491AB0EE480AF8EEE78A9A
:1066E00030F0D6FF38EEE9AA4FF4C8722946A05F11
:1066F000B0EE408A31F002F8B4EEC8AAF1EE10FA1A
:10670000A0530DDD2046FFF7ADFF07EE900A38EEEF
:106710004A8AB8EEE70A20EE088A88EE0A0AC1E73C
:1067200038EEA91AB4EEC81AF1EE10FAB8D542F252
:106730000E6338EE418AE35E00EE103AB8EEC00A0E
:1067400039EE411A20EE088A88EE010AAAE700BF56
:106750000000000000007A4438B52DED028B43F2B2
:1067600010750446435993F8683023B143F2E4634B
:10677000C356002B02DABDEC028B38BD44F65C73C5
:10678000C0580368DB6898470028F4D143F2EC63F3
:10679000E35C0B2BEFD044F240339FED307AE358AB
:1067A000D3ED587AF0EEE77AF4EEC77AF1EE10FA0C
:1067B000E1D5605938304AF037F80346B7EE001A91
:1067C0006A20DFED270A93ED000A30F061FFB5EE95
:1067D000C00AF1EE10FACEDD04F586401C307EF0E2
:1067E0007FF8DFED207AB0EEC00AB4EEE70AF1EEF2
:1067F00010FAC0D504F5EB5393ED008A44F23C3314
:10680000B8EEC88AE05803681B6E984738EE400A15
:10681000BDEEC00A10EE103A002BB8BF5B42B3F5D4
:10682000FA7FA8DA41F6645340F2E632E35803F205
:10683000F31393429FD860599FED0B0A7EF098FFA7
:10684000BDEC028B63599FED080AD3ED0A0A04F5EB
:10685000B3501030BDE8384070F096BA00000034F4
:1068600000000000000070420AD7233C002070475F
:1068700000207047002070470020704770470000DC
:1068800043F2EC63C05C704703480860322111702A
:1068900008221A60704700BF781E120810B544F62F
:1068A0005C730C46C05803681B6C984707EE900A4F
:1068B0009FED047AF8EE677A012067EE877AC4EDDF
:1068C000007A10BD0AD7233C10B544F65C730C4621
:1068D000C0580368DB6B984707EE900A9FED047A77
:1068E000F8EEE77A012067EE877AC4ED007A10BDF2
:1068F0000AD7233C10B544F65C730C46C0580368B5
:106900005B6C9847DFED037A20EE270A012084EDC7
:10691000000A10BD0AD7233C03685B6D18470000CE
:106920006FF058BA5AF0FABE86F042B864F07EBCF6
:1069300013F06CB804F098B85FF0A0B811F06EBE18
:1069400011F000BE11F0D4BD43F030BA2DF0F2BF0B
:1069500047F072BC1BF05AB855F074B952F048BBFE
:1069600051F0FAB911F0BEB911F0B8BF06F0FABC97
:1069700006F06CB905F03CBC05F056BB3CF0CABC57
:1069800011F042BB403066F0F9BB000018F022BDA8
:106990005BF074B964F0E6BF0EF098BFFFF7DCBEA1
:1069A00011F0ECBA83F0CEBD61F068BF11F060BEAB
:1069B00003F0D6BB11F066BA11F0DCB953F0D4BCC9
:1069C0003FF074BA24F044BC06F028B809F098BB34
:1069D00009F0E8BC09F080BC10B52DED028B44F63F
:1069E0005C730446C0580368DB69B0EE408A984780
:1069F00020B90024BDEC028B204610BD9FED080A93
:106A000004F5A84028EE000A08300BF0B9FD044652
:106A10000028EED001210348FFF7F2FCEAE700BFAF
:106A20000000C842602C002037B544F65C73044671
:106A3000C0580368DB690D46984760B1DFED070A6F
:106A4000002304F5A8400093B0EE600A1A462946D8
:106A500008300CF035FC03B030BD00BF0000000072
:106A600070B52DED068B44F65C730546C05803687F
:106A700084B0DB69F0EE409AB0EE60AAF0EE41AA75
:106A8000F0EE618A0E46B0EE429A98470446F8B19D
:106A90009FED128A4FF07E5300936AEE080A00239E
:106AA00029EE880A68462AEE881A03930293019316
:106AB00032F00AFD9FED0A0A05F5A840002369EEB1
:106AC000080A324628EE800A694608300BF002FFB9
:106AD000204604B0BDEC068B70BD00BF35FA8E3C7D
:106AE0000000C84270B544F65C730646C05803689F
:106AF00086B0DB690C469847054610B39FED126AD5
:106B0000D4ED006A94ED017AD4ED027ADFED0F0A3C
:106B1000012366EE866A27EE067A67EEC67A01934F
:106B200006F5A84000230093B0EE600A1A4603A9B8
:106B30000830CDED036A8DED047ACDED057A0CF0C9
:106B40001DFC284606B070BD0000C84200000000D1
:106B50004A4B37B5044640F8043B5AF08BFE04F12B
:106B6000200064F07DFC04F10805454B45491D609B
:106B7000284641F011F904F158001CF0B5FC424BD5
:106B80000193009402AB13E9060004F5F07042F0A3
:106B900029FF04F5237022F0A1FD04F5B26018F07E
:106BA00061F804F5E06020F0C9F804F698202DF0B3
:106BB00097FC04F5905008305AF090FC04F596507C
:106BC000083041F08BFE04F5AB50183054F042FE13
:106BD00004F5AD5014301BF0C1F804F5B35010307B
:106BE0006FF03CFA04F5E450083072F015F904F542
:106BF000E4501C3043F0D4FA04F5E75008305AF062
:106C00007FFF41F6F0430025E218E5541F4B04F5E1
:106C1000E8501A603CF04EFA04F5EA50294610306C
:106C200015F09CFD04F5105018306EF037FA04F59D
:106C3000105024305EF032FF04F5115010306EF029
:106C400051FF04F51150143074F056FB04F5155043
:106C50002C3073F041FC0E4D04F516500C3076F0DC
:106C60001DF92B6813B10B488CF0B6FF20460A497A
:106C700041F092F820462C6003B030BD043C13086C
:106C8000C08700206C9A12081969000884950020BA
:106C9000008A0020341E12081C3B130810B511F0A6
:106CA00047FB53F0F1FB0368BDE810405B681847F1
:106CB000FFF7F4BF10B5044606F046F9204612F07F
:106CC0003DF8204604F082F82046BDE8104004F06C
:106CD000E5B90000FFF7EEBF70B500F55C553C3537
:106CE0000446284619F0FCFC20F052FE90F9593079
:106CF00073B343F2107304F5E066E058383049F09E
:106D000093FD0346B7EE001A6A20DFED120A93EDF9
:106D1000000A30F0BDFC94F97437012B284608BFF7
:106D200086ED210A002119F007FBDFED0B7A04F64E
:106D3000442494ED007A20EE270ADFED087AA7EECE
:106D4000270A304684ED000ABDE8704020F0FEBA04
:106D500070BD00BF00000000CDCCCC3D6666663F34
:106D6000FFF7BABF10B50121044612F043F860B135
:106D700044F65C73054AD05803681B6A984720B9EB
:106D80002046BDE8104002F04BBA10BD602C002038
:106D9000FFF7E8BF38B50221044612F02BF868B1BE
:106DA0000121204612F026F840B944F65C734C4AA3
:106DB000D05803681B6A984700287BD002212046E0
:106DC00012F018F8002879D10121204612F012F8AB
:106DD000002873D14FF40031204612F00BF810B1A7
:106DE000204602F093FA4021204612F003F860B1E9
:106DF00004F54B552435284645F09EFB41F2785367
:106E0000E35613B1284645F0ADFC4FF480612046AF
:106E100011F0F0FF20B104F54B50243045F01CFC7C
:106E20002021204611F0E6FF60B144F65C73E05883
:106E300003689B689847002844D120460CF05CFC0E
:106E400000283FD18021204611F0D4FF00283FD1F7
:106E50004FF48021204611F0CDFFC8BB4FF4002134
:106E6000204611F0C7FF98BB1021204611F0C2FF49
:106E700098B144F23C3304F54B55E05877F08EF866
:106E8000243504F51F510C31284646F041FB04F52A
:106E90001C510C31284646F0D9FA4FF6FF712046B6
:106EA00011F0A8FFD0B104F541502830BDE83840BA
:106EB00085F08CBD204602F0B3F97FE7204602F052
:106EC00013FA87E744F24033E05879F091FBB9E7D1
:106ED00004F54B50243045F093FDC5E738BD00BFA5
:106EE000602C0020FFF756BF10B50121044611F0B9
:106EF00081FF10B1204602F0F7F98021204611F001
:106F000079FF20B104F54B50243045F059FD20465F
:106F1000BDE8104002F0C6BBFFF7E6BF10B504465F
:106F200005F04CFE204605F095FC204605F03CFFA0
:106F30002046BDE8104012F08BBD0000FFF7EEBF09
:106F400070B54FF6FF71044611F054FF30B143F2B3
:106F5000E4630721E258204602F03CFA04F5505061
:106F600043F210752830FEF71DFB635993F8683023
:106F7000DBB904F5EA50103014F0A2FE2046FFF70A
:106F8000ABFA6059026804F520531669197842F289
:106F90002A62A25CB04743F2DC236059E358B3F99C
:106FA0000E20B3F90A107EF0B7FB53F0F3FC204635
:106FB00012F040FD43F2E46344F6A162E35CDB437C
:106FC000C3F3C013A354014A537170BD1D8900203F
:106FD000FFF7B6BFF8B500F5F553083300F55C567A
:106FE0001B68736200F5F553143341F668571B684C
:106FF000B3620446C05900F58C40503030F008FBB5
:1070000043F22C733546E0502B46726A2A63AA6A13
:107010005A634FF6FF71204611F0ECFE30B1E25991
:1070200020460921BDE8F84002F0AAB9F8BD0000E9
:1070300010B543F22073C258002A52D043F2E563E0
:10704000C35CDB074DD500F55B53012A93F825108F
:107050006FF3000183F8251043F2D423C358B3F92A
:10706000083006EE103A00F55C53B8EEC66A39D126
:1070700093ED097A43F2D823C358B3F9083007EEE9
:10708000903A00F55C53F8EEE77AD3ED0A5A65EED4
:10709000E76A67EE277A00F5F552E6EE257A43F2C5
:1070A000D423E6EE076AC45892ED057A92ED026A9F
:1070B00027EE877AA6EE867ABDEEC77A17EE103AEB
:1070C000238192ED027A67EE877A92ED057AE6EEF9
:1070D000C77A43F2D823C058FDEEE77A17EE903A0C
:1070E000038110BD93ED0C7A43F2D823C358B3F952
:1070F000083007EE903A00F55C53F8EEE77AD3EDEE
:107100000D5AC4E710B504462DED028B79B1204627
:1071100010F05EFF43F22C7240F2E631A3581B1AC6
:1071200003F2F3138B420DD8BDEC028B10BD43F27A
:107130002073C358022BF7D110F02CFFB0F57A7FE3
:10714000E5D2F1E7A05000F58C405030642390FB6D
:10715000F3F308EE103ADFED0B7AB8EEC88A28EEAA
:10716000278AB0EE480A13F1EFFD04F55C5383ED76
:107170000C0AB0EE480A13F187FF04F55C5484ED65
:107180000D0AD1E735FA8E3C00F5EA5001211030A6
:1071900016F0CCBF10B5044600F698202DF0BEFDC9
:1071A00044F23C33E0580368DB6A9847204610F00D
:1071B00023FD2046FFF7E8FF204605F067FE204646
:1071C00004F0D4FF204606F0A3F9204604F052F85C
:1071D000204606F07FF804F58740203054F038FD53
:1071E0004FF6FF71204611F005FE10B1204602F067
:1071F0004FF92046BDE8104044F02CBC10B50446C1
:1072000011F00EF91021204611F0F4FD48B120468E
:1072100002F010FB04F5B3501030BDE810406FF0E1
:107220002DBE10BDFFF7EABFF8B50446274606F0AD
:10723000D7F8234B47F83C3B224BA365224B2366F0
:10724000224BA3666465E465646604F174001CF077
:107250004FFD04F18C0000251CF04AFD4FF6FF762F
:1072600004F1A4001CF044FDA4F8B450A4F8B660E6
:10727000A4F8B86004F1BC001CF03AFD144BC4F84B
:107280000851384613491F6040F086FD94F83D30A0
:10729000A4F86C6003F0F40365F3041384F83D3044
:1072A0000123A4F8846084F83C5084F8BA5084F830
:1072B0001051C4F8345184F838312046F8BD00BF6D
:1072C0004C791208CD690008D1690008D569000819
:1072D000D4880020F0F3120810B504461CF008FD15
:1072E00004F110001CF004FD04F120001CF000FD6E
:1072F00004F130001CF0FCFC204610BD2DE9F047E5
:107300002DED028B044684B0FFF722FCA14B2360D5
:1073100004F51950183002F057FB04F5185104F524
:107320004B502431243046F0A5FD43F2783204F569
:1073300018531833A35043F27C33062204F54E5001
:10734000E2540C3049F00CFA04F54E502C3049F060
:1073500007FA04F54F53184643F2284701251D60EC
:10736000E619143053F07CFF304683F069FF8A4BF6
:10737000E351301D3FF0B6FE10B943F22C43E55403
:1073800004F5525008303EF035FD43F2D443834AB1
:10739000E250E61804F5555706F12805203728462F
:1073A00014354DF0F7FFBD42F9D143F2946506F56F
:1073B000D4708CF061FA631905229A800022DA8079
:1073C0001A8140F213101CF0D1FF605104F55B509C
:1073D00008308CF051FA724B1A6802B91E6043F201
:1073E000D443704AE25043F2EC630026E65443F281
:1073F000ED6304F55B50E6542F3081F0F7F9B7EEFA
:10740000008A04F55C5383ED098A04F55C5383ED2F
:107410000C8A654B0393654B0093029404AB04F50F
:107420005C5013E90C004FF400713C3018F0E6FE9C
:1074300004F57150283086F0FFFB04F58540B0EE6E
:10744000480A6C3004F5864749F09AFA0C37B0EEDA
:10745000480A04F5864049F08BF938461CF048FC90
:1074600044F21C335249E150E21804F586430025EA
:107470001D625D629D6204F58643DD621D635D638E
:1074800004F5EA531033D36144F25533E65404F55E
:10749000864606F174001CF02BFC4FF40043C6F83E
:1074A0009830C6F89C7058364249304640F074FC1B
:1074B000414B04F5874020301E6054F005FB04F575
:1074C0008840083065F078FE04F5894044F2C446EF
:1074D000243066F05FFBA01941F060F8374BA351F0
:1074E00004F58940583064F0C5F904F589407430DA
:1074F00004F5E7530833036104F58A47304B3149FB
:107500001860143740F048FCFF233B743B762E494B
:10751000384640F041FC2D4B1E6816B12C488CF0CB
:107520005BFB04F5A04104F58A40183134301F603C
:1075300043F0D8F804F59C4704F59B40403744F6E7
:10754000E8692C3079F04CFE04EB090838466CF001
:1075500063FC3946404681F063F91E4B44F809301C
:10756000062388F854301C4B1C4A1A6004F59E41CF
:107570004831334618279EB2304678430133105CB9
:107580000028F8D1164B1E80164B1E6876B316489D
:10759000C5E700BFAC221208D01D120870561308B0
:1075A000A0920020CC271208C969000860221208A6
:1075B00084B01308109C1208C88700200C1E120803
:1075C0008C9500209C6B13086C8A1308249600206D
:1075D0006822120854721208BC890020345E120816
:1075E000B88900207C89002089221208196045F2A0
:1075F000E45844F65C7304EB080A44F6607744F8F8
:1076000003A0E01905F0ECFE744BE35144F6A077BB
:10761000E01905F0E5FE724BE35104F59F4045F299
:1076200038175C30FFF700FEE01987F075FB6D4BF3
:10763000E35145F27427E01905F0D2FE6A4BE3519D
:1076400045F2B027E01905F0CBFE45F2F429674B6F
:10765000E35104EB0907384605F0C2FE644B44F8D9
:10766000093087F83C6087F83D6045F23437E0190F
:1076700005F0B6FE5F4BE35145F27037E01905F0B7
:10768000AFFE5D4BE35104F5A74345F2C43704EB6D
:107690000709DD621D635D63484605F0A1FE89F8B8
:1076A0003C60564BE35145F2084904EB0907384664
:1076B00005F096FE524B44F8093087F83C6045F2DD
:1076C0004847E01905F08CFE4E4BE35145F28447E4
:1076D000E01905F085FE4C4BE35145F2C447E01933
:1076E00005F07EFE494BE35104F5AA4345F2585795
:1076F000DD631D64E519DFF83091284605F070FE62
:1077000044F80790012785F83C7085F83D6005F145
:107710004000FFF7E1FD504605F062FE45F22065AE
:107720003B4B44F80830601905F05AFE394B635161
:1077300004F5AC4045F2D06504EB05085C300EF072
:10774000ABFB404605F04CFE88F83C60324B635181
:1077500045F2107804EB0805284605F041FE2F4B52
:1077600044F8083085F83C6085F83D6045F2607566
:1077700004EB0508404605F033FE88F83C60284BD2
:10778000635145F2A07804EB0805284605F028FE71
:1077900044F8089005F1400085F83C7085F83D609C
:1077A000FFF79AFD1F4B44F8083004F5B04085F808
:1077B0008970303009F0F0FE04F5B14070300FF000
:1077C00027FA43F20C722046A35C43F00303A35450
:1077D00004B0BDEC028BBDE8F08700BF7C771208D7
:1077E000EC771208187A1208BC791208C07A1208CD
:1077F0002C7B1208987B1208FC7B1208F47D12087F
:10780000587E1208287F12088C7F1208F87F120811
:107810008082120810821208547A1208D485120845
:10782000CC7E1208A48112083C81120838B5054BA1
:107830001C6823680A461D68034B01462046A8477A
:10784000002038BDC8850020602C002038B50379A1
:1078500004463BB905682DB128462CF02FF8284680
:107860001CF090FD204638BD224B70B504460360E5
:1078700000F5E450083071F0E3FA04F5C35604F55E
:10788000C4551C361435AE4204D0083D2846FFF7D7
:10789000DDFFF8E704F5AB50183053F0F3FF164B5B
:1078A000C4F8983A04F6A86604F6FC65AE4204D023
:1078B0001C3D284648F07AFDF8E704F6245604F605
:1078C0006C55AE4204D0083D2846FFF7BFFFF8E7ED
:1078D0000A4BC4F89C3094F8803143B9D4F87C51F9
:1078E0002DB128462BF0EAFF28461CF04BFD204620
:1078F00070BD00BF043C13087CE7120898A0120872
:1079000038B50F4B036044F6D863C21804461279A9
:107910003AB9C5582DB128462BF0D0FF28461CF0A7
:1079200031FD43F2D443074AE25043F29463E058F6
:1079300008B11CF023FD2046FFF796FF204638BD16
:10794000AC2212087056130810B58CF0FBFA064CE6
:10795000064B18602046FFF7D1FC2046044A054933
:10796000BDE8104013F168B8602C0020C8850020E5
:10797000389E00200179000801207047FA207047E6
:1079800042F2D653014AD05C704700BF602C002001
:1079900043F22073024AD058431E58425841704760
:1079A000602C002043F22073024AD058831E5842B4
:1079B00058417047602C0020014811F03DBA00BFCB
:1079C000602C0020F8B5C36943F4E053C361036A37
:1079D00043F4E0530362436A43F4E05343620446D2
:1079E0003EF0E6FA064620B190F90530002B40F053
:1079F0009F805B4D44F6AC53EB563BB1E36943F0DB
:107A00008003E361236A43F08003236243F2E5636A
:107A1000EB5C5F0707D5E36943F48033E361236AD6
:107A200043F4803323624F4861F024F918B1E369CD
:107A300043F08063E3614C4B1F682FB11921384636
:107A400041F06EF800287CD1E36943F4C043E36160
:107A500043F2EC63EA5C162A10D801239340434AB0
:107A60001A40002A5CD1424A134207D0226A636A54
:107A700042F4C042226243F4C0436362394861F079
:107A800001F918B1236A43F08063236243F2E5638E
:107A9000EB5C580708D543F20973EB5CD9075EBF6E
:107AA000636A43F48033636246B1336833B1337938
:107AB000DA0742BF636A43F04003636244F6AC53A3
:107AC000EB5623B144F63863EB5C002B3ED12548DE
:107AD00061F0E2F818B9636A43F08063636244F6C8
:107AE000A853EB5C013B012B0BD8E36943F4800303
:107AF000E361236A43F480032362636A43F48003EF
:107B000063621C4B1B78DB0729D5236A43F480731F
:107B1000236227B31921384641F02EF8D8B9F8BDB1
:107B2000236A43F400532362636A43F40053A4E7D7
:107B3000E36943F04003E361236A43F040032362B7
:107B400057E7E36943F48073E3617DE7636A43F0D9
:107B500080036362BBE7636A43F480736362F8BDCA
:107B6000602C00202C540020C889002004A0500064
:107B7000F8022F00E05F002070B54FF400700D4652
:107B800016461CF0F9FB32460446294650F0E6FA48
:107B9000014B2360204670BDD029120808B590F82B
:107BA0008C30994208DD44F087FA16224FF4802188
:107BB00044F038FA002008BD243150F8210008BDF7
:107BC00008B590F88C30994208DD44F075FA0F2220
:107BD0004FF4802144F026FA002008BD243150F8EB
:107BE000210008BD00207047002070470320704727
:107BF0000E4B43F2EC629A5C172A15D80121914092
:107C00000B4A0A40002A0CBF1022182243F21071BE
:107C100042F040005B5823B193F868300BB142F05A
:107C2000C00040F0010070471022EFE7602C0020F8
:107C3000F800AB0042F2D853014AD05C704700BF55
:107C4000602C002042F2F073024AD056003018BF78
:107C500001207047602C002042F2DA53014AD056CE
:107C6000704700BF602C00207047000007B543F24A
:107C700010730E4AD058B0B1383048F0D5FD0346E5
:107C8000B7EE001A6A20DFED0A0A93ED000A2FF022
:107C9000FFFCDFED087A20EE270AFDEEC07ACDED7D
:107CA000017ABDF9040003B05DF804FB602C0020EC
:107CB000000000000000C8422DE9F04F324FDFF80D
:107CC000D080DFF8D0908BB005460024E65DB8F98F
:107CD000003006F1FF3A43FA0AF3D90734D5287C7D
:107CE0004AF038FA8346287C4BF010F91930834566
:107CF0003CD2287C49F0EAFC0BB0BDE8F08F234B66
:107D0000186803689B68984700F16803E3B1D3F8EB
:107D100000A0D3F804C0D9681A69D3F818E05B69E9
:107D2000089362230193192306910792287C0093FC
:107D300003AAC221CDF80CA0CDF810C0CDF814E0F4
:107D40008DF824604AF044FA0134042CBED1D3E704
:107D50000E4B18680368DB68D5E70C4B186803689E
:107D60001B69D0E7D9F800309033CFE7BAF1030FA1
:107D7000EAD801A353F82AF0FF7C0008517D0008DF
:107D80005B7D0008657D00089C2A12089C6F00201E
:107D900094520020A06F002010B5044684F024FE09
:107DA00020B12146BDE8104084F0E0BD10BD0000C8
:107DB000014807F087BD00BF3C7C002070B542F24F
:107DC000F47314460A4AD358DB0705460E4603D51A
:107DD0002146084881F0D2F82146074885F0F4F999
:107DE000224631462846BDE870404FF0D3BE00BF62
:107DF000602C0020487B0020F05C002010B5044679
:107E00004CF0C6FC054811F017F8054A0346062158
:107E10002046BDE810404CF0EFBB00BF602C0020B6
:107E2000BC28120838B504460D468BF0F7FE43F225
:107E3000FC63044AD05029462046BDE838404BF048
:107E4000B9BD00BF602C002010B443F2D022044C16
:107E5000A35C0133A3545DF8044B4BF0FFBC00BF9F
:107E6000602C002010B508460C461CF007FA28B11B
:107E70002146034802F000FD002010BD042010BD83
:107E8000CC850020014803F0D3B900BF602C00204E
:107E9000014803F051B900BF602C002038B58A7A40
:107EA0004B7A43EA0223CA7A43EA02439D2B0546F2
:107EB0000C4616D10E4A0F4844F2A233D15C53F05F
:107EC0001DFF024668B9D4ED057A9FED0B0ADFED80
:107ED0000B0AF8EEE77A014627EE800A084802F01E
:107EE0006BFC21462846BDE838404BF05FBC00BF24
:107EF000602C0020007000200AD7233C0000000006
:107F0000CC85002038B5084A44F23453D3563BB9E7
:107F100040F6CD144BF058FC00252043294338BDD2
:107F200040F6CD34F6E700BF602C002010B50446C3
:107F30001CF028FA204610BD38B50D4C43F2E4631E
:107F4000E356002B0FDB44F65C75605903681B6B2E
:107F5000984750B960590368DB6A9847002814BFF6
:107F60000320022038BD012038BD042038BD00BFE9
:107F7000602C002038B5F7EE000A91ED050A0446A2
:107F80000D462FF07FFA28B121460548BDE838405C
:107F900003F082B929462046BDE838404EF088BA41
:107FA000602C00201FB5002301930293039314F06B
:107FB000DDF9036801A95B6F984728B101A832F089
:107FC000D5FC05B05DF804FB23F0E0F990F84C32E5
:107FD000842202FB030090ED330AF2E70B7ADB0701
:107FE00006D541F690620348CB6882581344CB60B3
:107FF000704700BF602C0020044B187828B943F26A
:10800000E663034AD05CC0F380107047C487002049
:10801000602C00200B4B43F209729A5CD10706D406
:1080200043F66541595C11B912F01E0F01D00520CD
:10803000704743F2E4629B56002BB4BF0320042038
:10804000704700BF602C002008B5084A42F2286340
:10805000D356032B03D0BDE808404CF0E5BA044AE0
:1080600002214CF0C9FA042008BD00BF602C00209A
:10807000C8281208094B42F2F4729A58920701D4A8
:108080004BF076B944F21032DFED057A9B5800EEE2
:10809000103AB8EEC00A20EE270A7047602C002084
:1080A0000AD7233C10B594B0044603A81BF020FE69
:1080B00044F65C73194AD058036803A99B6B984730
:1080C00050B3247C8BF0AAFD059B0893069BDDED45
:1080D000047A099300230B930C930D930E930F9343
:1080E0001093119312934FF6F873F8EEE77A9FED21
:1080F0000C7AADF84C3000238DF84E30962367EEA5
:10810000877A019333230790009307AA57212046CB
:10811000CDED0A7A4AF05CF814B010BD602C002056
:108120000AD7233C70B52DED088B4C4C44F65C759A
:1081300006466059036896B0DB699847002848D026
:1081400045F244439FED468AE35C012B45D144F25E
:1081500044339FED440AE058483032F0F3FCB0EE6F
:1081600048AAF0EE409AB0EE609AF0EE418AF0EE46
:1081700048AAB0EE48BA40F6F874357C8BF04EFD54
:1081800001238DF856308C23019333230990F1EEAF
:10819000688AB1EE4AAA009309AA55212846CDED76
:1081A0000A9A8DED0B9ACDED0C8A8DED0DBACDEDC1
:1081B0000EAA8DED0FAA8DED108A8DED118A8DED31
:1081C000128A8DED138A8DED148AADF8544049F072
:1081D000FFFF16B0BDEC088B70BD022B17D16359A1
:1081E0009FED200A5B69186800F5AC7032F0AAFCBC
:1081F000F0EE488AB0EE40BAF0EE60AAB0EE41AAC6
:10820000B0EE489AF0EE489A40F6C774B5E744F2EB
:1082100044339FED140AE058483032F093FC635920
:108220008DED030A5B69CDED040A18688DED051A22
:10823000F0EE409A00F5AC709FED0A0AB0EE609A3D
:10824000F0EE418A32F07EFC4FF47C64B0EE40BA2E
:10825000F0EE60AAB0EE41AA8FE700BF602C0020CC
:10826000000000000AD7233C2DE9F04143F2E5630A
:108270003E4D2DED068BEB5C99068EB006466FD514
:1082800044F23C339FED3A0AE8589FED3A8A3C307D
:1082900032F058FC44F65C738DED061AEC58CDEDC7
:1082A000050A21EE081A23688DED040AFDEEC17A55
:1082B000DB6BCDED037A204620EE889A60EE089ABB
:1082C00096F81080BDF90C70984707EE900AF8EE0A
:1082D000E77A236867EE887A1B6CFDEEE77A204622
:1082E000CDED037ABDF90C60984707EE900AF8EEE1
:1082F000678ADFED217A68EE888A44F24033F4EE33
:10830000E78AF1EE10FAE85858BFF0EE678A77F086
:1083100007FE2368B0EE40AA5B6C204698476AEEE1
:10832000087A0023CDED097AFCEEE87A0A9317EE7D
:10833000903AADF83430B72320EE080A01931A239F
:10834000009307AA3E214046CDED079A8DED089A8D
:108350008DED0B0AADF83070ADF8326049F038FFA2
:108360000EB0BDEC068BBDE8F08100BF602C002094
:108370009F0CB3450AD7233C00FF7F4738B58B8B52
:10838000CD2B05460C4614D10D4A0E4844F2A233BB
:10839000D15C53F0B3FC024658B994ED020ADFED0C
:1083A0000A7ADFED0A0A014620EE270A084802F0A1
:1083B00003FA21462846BDE838404BF07DBA00BF9D
:1083C000602C0020007000200AD7233C0000000031
:1083D000CC85002008B590F8FD3153B9806A036858
:1083E0001B6A9847B0F5005F28BF4FF4005080B279
:1083F00008BD002008BD0000014810F011BD00BFFD
:10840000602C002043F2EC63014AD05C704700BF4F
:10841000602C002043F2E563024AD05CC0F34010B8
:10842000704700BF602C002070B544F65C733C4D73
:108430002DED028B0646E85891ED018A036888B05D
:10844000DB690C46984740BBBDEEC88A18EE103A6F
:10845000DB0722D4022008B0BDEC028B70BD44F6CD
:108460005C73E8580368DB699847044698B90222B0
:1084700004212B4805F03EFB00284FD0DFED290AF0
:1084800000942346B0EE600A224604A926480AF06A
:1084900017FF002842D00020DDE7616920692FF036
:1084A00089FB0028D6D004A81BF022FCD4ED067A64
:1084B0009FED1E7A23690693F0EEE77AF4EEC77A11
:1084C00063690793F1EE10FAC4DC03AA94F8201054
:1084D00030464FF0DDFC0028BCD09FED157AD4ED7E
:1084E000067A039A67EE877A04A8FDEEE77A17EE1C
:1084F000901A1BF003FC0F4904A81BF0CBFE0346A7
:108500000028A7D1DFED070A00900246B0EE600A0E
:1085100004A905480AF0D4FE0028A0D104209AE757
:10852000602C00200000000068800020001CA24792
:108530000000C8426C6F00208A8B202A82B004D0D1
:10854000C02A1DD002B04FF043BDD1ED007AF5EE48
:10855000C07AF1EE10FA16DD9FED0C7AF4EEC77AD0
:10856000F1EE10FA0FD8FCEEE77A43F29202CDED6D
:10857000017A07499DF804308B52002002B0704701
:1085800002B0FFF751BF0320F8E700BF00007F43B0
:10859000602C002010B52DED028B8CB000230393CE
:1085A00004930593044613F0E1FE036803A95B6F8F
:1085B000984758B313F0DAFE0368DB6E9847F0EE85
:1085C000607A8DED060ACDED070AF1EE400AB1EEB4
:1085D000670A8DED081A247C12F186FE06A8B0EE1B
:1085E000408A32F0C3F9089BDFED0A7A0B9301232E
:1085F00068EE277A01930C23009309AAA82120464C
:10860000CDED097A8DED0A0A49F0E2FD0CB0BDEC22
:10861000028B10BDE02E65422629F7B505460E46B1
:1086200012D008D819290DD0232921D03146284647
:108630004EF0CAFB16E0372929D0F7D3A1F1390350
:10864000012BF3D801200DE0FFF7C4FE0446287C7F
:108650004AF05CFC12308442297C05D2084649F07D
:1086600035F8002003B0F0BD1F4842F0C1FBE9E738
:10867000FFF7B0FE0446287C4AF048FC0C308442E8
:1086800001D2287CEBE72846FFF784FFDAE7FFF703
:10869000A1FE0446287C4AF039FC26308442297C1D
:1086A000DCD312486BF02AFD114B1F68002FC9D094
:1086B0002846FFF78FFE0446287C4AF027FC263028
:1086C00084424FF00004DCD302AA314622F8024D66
:1086D00028464DF081F90028B4D0BDF80620297C49
:1086E000384668F04FF8ADE794710020A07A00207A
:1086F00020960020F0B52DED028B8B8BBD2B87B023
:108700000D4600F0B78036D8162B00F097800FD8B2
:10871000142B00F0BC8000F2BD80112B00F0B4805F
:10872000294607B0BDEC028BBDE8F04050F036B9E9
:10873000732B00F0B280B22B00F0D480202BEFD14D
:10874000D1ED007AF5EEC07AF1EE10FA40F3C88070
:108750009FEDCA7AF4EEC77AF1EE10FA00F2C0800B
:10876000FCEEE77A43F29202CDED037AC4499DF81C
:108770000C308B527CE040F6D812934200F03D81E1
:108780001CD8D12B00F00881B3F5967F00F0D7807C
:10879000D02BC5D1D1ED007AFCEEE77ACDED037A8E
:1087A000BDF80C10012900F0F080C0F0E48002292F
:1087B00040F09680B24803F0FDF959E04AF21242C7
:1087C000934200F02A8115D84AF211429342A7D170
:1087D000AB4843F20973C35CD90749D4022205218F
:1087E00005F088F9002843D10222A548114605F07A
:1087F00081F93DE04AF21342934200F057814AF278
:10880000686293428CD19F4884F042F8002867D078
:10881000D5ED017AFCEEE77ACDED037A9DF80C30C8
:10882000012B00F0E480002B00F0DB80022B57D1FD
:1088300095ED030A934884F07FF819E0D1ED027AB0
:108840009FED917A91ED060A8D4AF0EEE77AF4EE0B
:10885000C77A44F65C73DFED8D7AD058F1EE10FAEA
:108860004CBF0121002120EE270A10F0BFFEB8B353
:108870000020B2E0864834F0E9F988B302220321EF
:108880007F4805F037F9F2E702220521F8E70222D6
:108890000621F5E702220921F2E7D1ED007AF5EE93
:1088A000C07AF1EE10FA1BDB9FED7A7AF4EEC77A0C
:1088B000F1EE10FA14D891ED030ADFED737AB0EE01
:1088C000C07AB4EEE77AF1EE10FAB0EE678A00F102
:1088D0002881F7EE000A2EF0D5FD002840F0218116
:1088E00004207AE0D1ED017AF5EEC07AF1EE10FACB
:1088F000F6DD91ED007ADFED686A9FED640A604B6A
:10890000B4EEE67AF1EE10FA07DD44F2443227EED7
:10891000800A98587AF0D8FAAAE7DFED606A44F244
:108920004432B4EEE67AF1EE10FA27EE800A985857
:1089300002DD7AF0BBFA9BE77AF0AEFA98E7504C8A
:1089400043F21073E35893F86830002BC8D002222A
:108950000321204605F0CEF80028C1D00121204691
:10896000FDF74EFD45F21803E35C012B80D048482B
:1089700034F058F97CE70021494859F0AFFB46F044
:108980002BF9312146F086F872E7454859F0A6FBED
:1089900046F022F93221F5E7D1ED017AFCEEE77AD3
:1089A000CDED037AD1ED007AFCEEE77ACDED047AD5
:1089B000D1ED047A9DF81020FCEEE77ACDED057A32
:1089C0009DF814300093D1ED030A91ED020A9DF851
:1089D0000C3001462A480FF06FF807B0BDEC028B4F
:1089E000F0BD43F27403264A0020D054F5E795ED1C
:1089F000020A244883F08CFF3AE7D1ED017A294836
:108A0000FCEEE77ACDED037A9DF80C30012B0CBF1C
:108A10000021012168F01CF82AE7194F43F209737D
:108A2000F85C10F001047FF423AF43F21073FB589D
:108A300093F868602EB9012211461B48FDF798FB98
:108A400016E743F2E4630222FB56002B13DA0521FA
:108A5000384605F04FF800283FF40AAF95ED000ABC
:108A6000DFED0A7A44F65C73012120EE270AF858FC
:108A700010F0BCFDFCE609213846B8E600007F4353
:108A8000602C0020C85C0020000000340000C842B8
:108A9000787C00200000B4439A9939403333F33F87
:108AA000547100207471002088600020294B43F22B
:108AB00009729A5CD2073FF5DBAE43F210729A5806
:108AC00092F86820002A3FF4D3AE43F2E4629A564B
:108AD000002A05DA012208211F48FDF705FCC7E638
:108AE000D1ED007A9FED1D7AF0EEE77AF4EEC77AC9
:108AF000F1EE10FA07D443F2EC629B5C03F0EF0353
:108B0000042B3FF4B5AE02221121124804F0F2FF0B
:108B100000283FF469AE40F6C411114807F0C2FEC8
:108B2000A6E6D5ED037AD5ED010A95ED000A0D48CC
:108B3000F4EEC87AD5ED027AFDEEE77AF1EE10FA9E
:108B4000CDED037AACBF012200229DF90C1001F09B
:108B500033FE8DE6602C0020886000200000003489
:108B6000107F0020CC85002008B591ED007AF6EE4C
:108B7000007AB4EEE77AF1EE10FA06DD0122052163
:108B80000348FDF7B1FB002008BD042008BD00BF6D
:108B9000886000202DE9F0432DED028B8A7A4B7A14
:108BA00043EA0223CA7A43EA0243872B9FB0054671
:108BB0000C4600F2CA80862B80F0F282522B00F025
:108BC00057810AD8002B00F0E480452B00F0F2809A
:108BD000214628464FF0DEFFE7E0562B00F0F581F6
:108BE0006D2B00F0BC80542BF2D1CD78352D28BFF1
:108BF0003525352200210EA815F1EEF82A4604F19C
:108C00000C010EA815F1C2F844F65C73BB4AD058AB
:108C10000368DB699847002800F0C7809DF86C5016
:108C2000012D03D0EB1F022B00F2BF80BDF868407E
:108C300014F4E07F00F0B980002314F007070693D6
:108C4000079308931E4626D19FEDAD6A9DED107ADD
:108C5000DDED117ADDED0F6A27EE067A67EEC67A52
:108C600066EE866AA5F10803012BCDED066A8DED4F
:108C7000077ACDED087A04D807AA06A99F48FDF720
:108C8000D7FCEB1F022B06D89E487BF021FE014645
:108C900006A831F02DFF0A960B960C9614F03806B4
:108CA0001CD19FED976A9DED137ADDED147ADDED11
:108CB000126A27EE067A67EEC67A66EE866AA5F134
:108CC0000803012BCDED0A6A8DED0B7ACDED0C7A00
:108CD00004D80BAA0AA98948FDF7AAFC14F48062FB
:108CE00040F05181DFED887A9DED180A20EE270AC9
:108CF000DFED837A083D012D20EE270A8CBF002589
:108D0000012514F4006305BFDFED7F7ADDED190A5C
:108D1000DFED820A60EEA70A04BFDFED797A60EE2C
:108D2000A70A002F40F03381002E40F04181B3FAB2
:108D300083F35B090093B2FA82F301955B090AAAF7
:108D400006A972480AF05AFB2FE0F32B00F02E829E
:108D50000FD8952B00F02082A62B7FF439AF082185
:108D6000664810F047F82146024628464BF090FD31
:108D70001BE0F62B07D0FFF42BAFA3F51C53113BE0
:108D8000022B3FF625AF2246297C61486BF0CAFCD6
:108D90000BE05A4CCA7942F2D853E35E9A4204D1AE
:108DA0008AF03CFF43F2FC63E0501FB0BDEC028B45
:108DB000BDE8F083514ECA7942F2D853F35E9A422D
:108DC000F3D1CA780B2A4FF0000728BF0B220C31D1
:108DD0000EA80F970E97CDF83F7014F1D7FF42F20F
:108DE000D6539DF84220F35E9A42DED1BDF93C8015
:108DF000B845DADB8AF012FF04468DE8900043F2B2
:108E0000D421BDF93A209FED430A71584FF47A738B
:108E100028464FF00BF9012343F2D8210193009427
:108E2000BDF938209FED3B0A71584FF47A732846FC
:108E30004FF0FCF88DE8900043F2DC219FED360AFC
:108E400071583B46424628464FF0F0F88DE89000B6
:108E500043F2E0214FF47A73BDF93E209FED2D0AD5
:108E6000715828464FF0E2F843F2FC63F4509CE757
:108E7000CD78272D28BF2725272200210EA814F101
:108E8000ABFF2A4604F10C010EA814F17FFF1B4D25
:108E900044F65C73E8580368DB699847002884D07F
:108EA0009DF85E4014F0C00F7FF47FAF42F2F47380
:108EB000EB5803F00403002B14BF012600262FD02B
:108EC00040F21440B7EE001AFFEE000A9DED160ABC
:108ED0002EF0DEFB0F9B0A93109B0B93119B0C93C0
:108EE00084F00402129B0D93DDED150A074833460A
:108EF000C2F380020AA909F0EDFC56E7602C0020BD
:108F00000000C8427C6F0020E02E6542688000208F
:108F1000A07A00200000FA4400007A44000000001B
:108F20005FED020A9DED160A40F21740B7EE001AF7
:108F30002EF0AEFBF6EE000AB0EE408A2EF0A2FA5A
:108F4000F0B9F6EE007AB4EEE78AF1EE10FA44F2E8
:108F5000443309DD78EE677AEB5877EEA77A93ED24
:108F6000080A27EE800AB5E7EB5877EEC87A93ED4A
:108F7000090A77EEA77AB0EEC00A20EE670AA9E7E1
:108F80001FED1A0AA6E700251FED1C0AB9E6002E00
:108F90007FF40BAF0121B3FA83F3019100955B09D4
:108FA000B2FA82F252090AA996480AF0E7F9FCE6F9
:108FB000B3FA83F3B2FA82F28DE8A0005B0952099A
:108FC00006A990480AF0F0F8EFE6CE78352E28BFD3
:108FD0003526352200210EA814F1FEFE324604F19A
:108FE0000C010EA814F1D2FE44F65C73864AD058E8
:108FF0000368DB69984700283FF4D7AEBDF86840A6
:1090000014F4E07F3FF4D1AE06AE04F0070730461B
:109010001AF06EFE4FBBDDF83C80DDF84090404614
:1090200049462EF0C7FD00283FF4BFAE03AA9DF8C5
:109030006C1028464EF02CFF00283FF4B6AE9FED92
:10904000737ADDED117A039B009367EE877A0AADA0
:10905000FDEEE77A4A4617EE903A414628461AF066
:1090600067FE95E80F0086E80F0014F480695BD175
:109070009FED670A9DED188A9DF86C5028EE008AD6
:109080009FED620A083D012D28EE008A8CBF002565
:10909000012514F4006805BFDFED5D0ADDED198AD6
:1090A000DFED5C8A68EEA08A08BFDFED580A04F0A5
:1090B000380408BF68EEA08A002F39D1002C5BD19C
:1090C00030461AF045FE03283FF46FAE002303A993
:1090D00030460393049305931AF038FF00283FF4B9
:1090E00064AE9FED4A6ADDED126A9DED137ADDED07
:1090F000147A0195B8FA88F35B0966EE866A27EE62
:10910000067A67EEC67A0093B9FA89F3CDED0A6A5A
:109110008DED0B7ACDED0C7AF0EE680AB0EE480AD0
:109120005B090AAA03A90CE600259FED3A8AB0E77D
:10913000002C7FF43AAE9FED356ADDED126A9DEDAD
:10914000137ADDED147A0095012366EE866A27EE28
:10915000067A67EEC67A0193B8FA88F3CDED0A6A0B
:109160008DED0B7ACDED0C7AF0EE680A5B09B0EE6E
:10917000480AB9FA89F215E7B8FA88F3B9FA89F218
:109180000095F0EE680A5B09B0EE480A52093146D4
:109190001C480AF095F808E61F4878F059F904E6EB
:1091A0000A46017C1D4841F057FFFEE5CD783D2D74
:1091B00028BF3D253D2200210EA814F10DFE04F12B
:1091C0000C012A460EA814F1E1FD0E9C44B90F9B38
:1091D00033B9109B23B901210B4802F029F8E4E5CB
:1091E0000AA81AF085FD0F9B0D930A22109B0648D2
:1091F00093FBF2F30AA901220C940B9301F09CFF5C
:10920000D3E500BF68800020602C00200000C84229
:10921000E02E6542000000000C7A002094710020CE
:10922000F0B544F23C36044680599FED2E0A8BB0CF
:109230003C3031F087FC0AAACDED080A8DED091A01
:109240008DED070A12E9070001AD85E8070004ABC0
:109250009DED030A83E807002EF0B0F904F5EA500B
:10926000294610308DED030A44F2403712F0EEFA31
:1092700043F2107143F2244061582058E359A25937
:1092800012F0DEFB4FF4805120460FF0B3FD30B3F7
:10929000A05903689B68984704F54B55243500F1A5
:1092A0006802A321284643F071FFA0590368DB68D8
:1092B0009847A42100F16802284643F067FFA059AF
:1092C00003681B699847A52100F16802284643F00E
:1092D0005DFFE259A6219032284643F057FF0BB0BC
:1092E000F0BD00BF9F0CB34510B5044604F5EA5429
:1092F00015F084F9103415F075F9204612F014FABF
:109300002046BDE8104012F039BB000070B51B25A7
:1093100088B004462A46002101A814F15DFDA3236C
:109320008DF8043095238DF8053006238DF806302E
:109330008AF07CFC43F21076CDF80700A059CDF8F6
:109340000B10D0F8D830CDF80F30CC3047F06CFA95
:109350000368CDF8133004F56753243304F54B50FC
:109360001B68CDF81730A3592A46D3F8DC30CDF866
:109370001B3001A9243044F047FE08B070BD000046
:109380007FB50E464FF6FF71044615460FF032FDCD
:10939000E8B110220021684614F11EFDA3238DF8C8
:1093A000003095238DF8013003238DF802308AF0C8
:1093B0003DFCCDF8030004F54B50CDF8071010220A
:1093C000694624308DF80B60039544F06FFE04B0BD
:1093D00070BD00007FB50E464FF6FF71044615467E
:1093E0000FF008FDE8B110220021684614F1F4FCEA
:1093F000A3238DF8003095238DF8013004238DF8D8
:1094000002308AF013FCCDF8030004F54B50CDF880
:1094100007101022694624308DF80B60039544F044
:1094200045FE04B070BD000070B52DED048B18240E
:1094300086B0224605460E4668460021B0EE409AA8
:10944000F0EE608AB0EE418A14F1C6FCA3238DF8D9
:10945000003095238DF8013007238DF802308AF013
:10946000E5FBCDF8030005F54B50CDF8071022467B
:10947000694624308DF80B608DED039ACDED048A9A
:109480008DED058A44F0C0FD06B0BDEC048B70BDC7
:109490002DE9F04143F20C7390F8B925C15C3823F3
:1094A00003FB0202044692F8E13501F0010123B109
:1094B00092F8E2350BB192F8E335994210D043F2BD
:1094C0000C75625D63F30002625545F085FB635DD8
:1094D00013F0010F0CBF04220022122145F0FAFA0A
:1094E00043F20C7504F5E0684FF000014046665DFC
:1094F0001DF040FD7C27C0B207FB0040C6F34006CC
:1095000090F88937B34218D04FF0000140461DF063
:1095100031FDC0B207FB0040635D90F8892762F31C
:109520004103635545F058FB635D13F0020F0CBF18
:1095300004220022032145F0CDFA43F20C7294F884
:10954000D814A35CC3F38100884209D061F383037C
:10955000A35445F041FB4321BDE8F04145F09ABAE0
:10956000BDE8F08130B52DED0A8B2F248DB0224659
:10957000054600216846B0EE40CAF0EE60BAB0EE93
:1095800041BAF0EE61AAB0EE42AAF0EE629AB0EEF5
:10959000439AF0EE638AB0EE448A14F11DFCA323D3
:1095A0008DF8003095238DF801300B238DF80230B3
:1095B0008AF03CFB1CEE103ACDF80B301BEE903AD3
:1095C000CDF80F301BEE103ACDF813301AEE903A6A
:1095D000CDF817301AEE103ACDF81B3019EE903A4C
:1095E000CDF81F3019EE103ACDF8233018EE903A2E
:1095F000CDF80300CDF8273005F54B5018EE103AA2
:10960000CDF80710224669462430CDF82B3044F0BF
:10961000FBFC0DB0BDEC0A8B30BD000070B52DED2C
:10962000088B28248AB0224605460E46684600214B
:10963000B0EE40BAF0EE60AAB0EE41AAF0EE619A48
:10964000B0EE429AF0EE628AB0EE438A14F1C4FBA7
:10965000A3238DF8003095238DF801300C238DF86D
:1096600002308AF0E3FACDF8030005F54B50CDF84F
:1096700007102246694624308DF80B608DED03BA41
:10968000CDED04AA8DED05AACDED069A8DED079AD4
:10969000CDED088A8DED098A44F0B6FC0AB0BDEC28
:1096A000088B70BD30B544F6AC53C518C35695B0A1
:1096B0000446002B5CD0002369462846049305939A
:1096C0000693009301930293039377F095FE02A90A
:1096D000284677F0A7FE04A9284677F07DFE3222BF
:1096E000002107A814F178FBA3238DF81C309523E3
:1096F0008DF81D3009238DF81E308AF097FA44F654
:109700003863CDF81F00E35CCDF8231028468DF8B0
:10971000273077F021FE009BCDF82930019BCDF852
:109720002D30029BCDF83130039BCDF83530049BB2
:10973000CDF83930059BCDF83D30069BCDF8413052
:1097400044F6D8538DF82800E358CDF8453044F658
:10975000046304F54B50E358CDF8493044F6AF5359
:109760003222E35C8DF84D3007A9243044F04CFCE4
:1097700015B030BD2DE9F04124268AB015460746C4
:109780003246884601A800211C4614F125FBA3237C
:109790008DF8043095238DF805300A238DF80630B6
:1097A0008AF044FA2B6804936B680593AB680693C0
:1097B0002368CDF80700079307F54B506368CDF891
:1097C0000B1008933246A3688DF80F8001A930442E
:1097D000099344F019FC0AB0BDE8F08138B504469D
:1097E00000F54B550FF028FB243502460B4928465F
:1097F00044F05CFD43F2ED632846E25C43F2EC6327
:10980000E15C44F075FD04F5EA50103012F030FCD4
:1098100004F52370BDE8384020F07ABFBC28120858
:1098200000F54B5095220249243044F0E7BF00BFB9
:10983000E02A1208F0B52DED028B93B012A9044670
:10984000002300F58A4041F8403D0122343041F0C8
:10985000B3F808B94D4B029344F65C73DFED4C8AC4
:10986000E0580368DB689847002840F08A8044F29B
:109870004033E358D3ED527A87EEA88AD3ED5B7A72
:10988000FDEEE77ACDED017ABDF9046004F54F579E
:1098900003A938460FF06CF818B945F09DF93B4B19
:1098A00003933722002104A814F196FAA3238DF81C
:1098B000103095238DF811308AF0B8F943F2107505
:1098C00044F23C33CDF81300E3586059D3F8AC2090
:1098D000D3F8B030CDF817103830CDF81B20CDF8C4
:1098E0001F3046F0A1FF0346B7EE001ADFED290A4C
:1098F00093ED000A6A202DF0CBFE10EE103A60596D
:10990000CDF8233003681B68984710EE103A04F531
:109910008645CDF827301C3518EE103A2846CDF88C
:109920002B307AF0D9FF80EE280A384610EE103A34
:10993000CDF82F3044F2E823E358CDF83330039BC1
:10994000CDF837300FF026F810EE103A2846CDF853
:109950003B30029BCDF83F30ADF843607AF0C0FF5A
:10996000FDEEC07A04F54B5017EE903A372204A969
:109970002430ADF8453044F047FB13B0BDEC028B0A
:10998000F0BD00269FED038A80E700BF2292CA7FC8
:109990000000C84200000000B0F900309FED097AD5
:1099A00001805B1A07EE903AF8EEE77AF0EEE77A7C
:1099B000F4EEC77AF1EE10FA4CBF012100213DF020
:1099C0008FBA00BF00000034F8B5354D456004463D
:1099D00008306CF073F904F1600061F0D7FB0023EC
:1099E000C4F88030C4F88430C4F888302D4AC4F8F4
:1099F000A8302D4BC4F8A020C4F8AC304FF0804202
:109A00002A4BC4F8B03005F69421C4F8A42004F120
:109A1000B40080F04DFB04F5BA705EF021FF04F550
:109A2000D67050F0E1FB224F224BC4F8AC3104F564
:109A3000E476002570194FF091FD77512835B5F582
:109A4000207FF7D104F5896051F0F0F8002104F58A
:109A500016607FF037FF184D04F5216082F008FF93
:109A6000C4F8305A04F6382083F0E8FAA5F5DF632D
:109A7000C4F8C03A04F6C4208AF098FD04F6FC202D
:109A800063F008FEA5F5EA73C0352046C4F8503CE3
:109A9000C4F85C5C09493EF07FF92046F8BD00BF80
:109AA000683E00200000C8410AD7233C0000E04087
:109AB000E0711208F8711208908400208C5A120884
:109AC000F0B52DED028B604C60499FED618AADF5DC
:109AD000437D0746902232A814F158F90FCC16ADF9
