:020000040800F2
:10400000000600206D530008BD3C0908C13C0908AA
:10401000293D0908C13C0908F53C09086F5300080F
:104020006F5300086F5300086F530008B55C110808
:104030006F5300086F5300086F5300086F53000858
:104040006F5300086F5300086F5300086F53000848
:104050006F5300086F5300083DBC110869BC11087C
:1040600095BC1108C1BC1108EDBC11080D63110805
:1040700035631108616311088D631108B963110874
:10408000E16311080D641108A96111088938090854
:1040900099380908AD3809086F53000819BD11088F
:1040A0006F5300086F5300086F5300086F530008E8
:1040B0006F5300086F5300086F530008456C1108D8
:1040C000596C11087D6C1108916C11086F53000830
:1040D0006F5300086F530008557E1108697E110860
:1040E00081BD11086F5300086F5300086F5300081B
:1040F0006F5300086F5300086F53000839641108AC
:104100006F5300088970110825C411086F53000807
:104110007D7E11086F5300086F5300086F5300082D
:10412000656411088D641108B9641108E56411080B
:10413000116511086F5300086F530008C138090852
:10414000D1380908E53809086F53000809B8110883
:10415000396511086565110891651108917E11088E
:104160006F5300086F5300086F5300086F53000827
:104170006F5300086F5300086F5300086F53000817
:104180006F5300086F530008A57E1108B97E11080F
:104190006F5300086F5300086F5300086F530008F7
:1041A0006F5300086F5300086F5300086F530008E7
:1041B0006F5300086F5300086F5300086F530008D7
:1041C0006F5300086F5300086F5300086F530008C7
:1041D0006F5300086F5300086F5300086F530008B7
:1041E0004D79000811A900088135010849EA010844
:1041F000250002081D0C0208D13A0208AD4302084E
:104200002D930208E5B302080912030821CD030823
:10421000095D0408316004089D850408C18804080C
:10422000999604087DBF0408BD240508792C05086B
:10423000C92F05087193050849AF0508E1CE0608A6
:10424000E926070801320708595C0708ADD80708B6
:1042500099C80808F9380908353B0908ED400908EC
:10426000B9AD0A0821CD0A086DD20A0829E10A0869
:10427000D5F60A0805F70A08491E0B08A55D0B08C4
:10428000AD820B08C1A10B0829A90B089DDD0B0805
:1042900011490C0839AA0E08D1B20E0881EF0E0898
:1042A000A5260F08C1B10F08A9B80F08C9DA0F0871
:1042B000C10310087538100800000000000000005D
:1042C000D0400B1CD1409C46203AD3401843524268
:1042D0006346934018437047D0400B1C1141203A6D
:1042E00003D49C46134118436346524293401843FB
:1042F000704700BF9140031C90409C46203A934079
:10430000194352426346D3401943704781F000413C
:1043100002E000BF83F0004330B54FEA41044FEAAA
:10432000430594EA050F08BF90EA020F1FBF54EA45
:10433000000C55EA020C7FEA645C7FEA655C00F0E1
:10434000E2804FEA5454D4EB5555B8BF6D420CDDB2
:104350002C4480EA020281EA030382EA000083EA35
:10436000010180EA020281EA0303362D88BF30BDD5
:1043700011F0004F4FEA01314FF4801C4CEA11312B
:1043800002D0404261EB410113F0004F4FEA03338A
:104390004CEA133302D0524263EB430394EA050F15
:1043A00000F0A780A4F10104D5F1200E0DDB02FA84
:1043B0000EFC22FA05F2801841F1000103FA0EF218
:1043C000801843FA05F359410EE0A5F120050EF1DE
:1043D000200E012A03FA0EFC28BF4CF0020C43FA0F
:1043E00005F3C01851EBE37101F0004507D54FF01C
:1043F000000EDCF1000C7EEB00006EEB0101B1F56C
:10440000801F1BD3B1F5001F0CD349085FEA3000B1
:104410004FEA3C0C04F101044FEA445212F5800FBC
:1044200080F09A80BCF1004F08BF5FEA500C50F159
:10443000000041EB045141EA050130BD5FEA4C0C3C
:10444000404141EB010111F4801FA4F10104E9D1C5
:1044500091F0000F04BF01460020B1FA81F308BFBC
:104460002033A3F10B03B3F120020CDA0C3208DD88
:1044700002F1140CC2F10C0201FA0CF021FA02F163
:104480000CE002F11402D8BFC2F1200C01FA02F1D3
:1044900020FA0CFCDCBF41EA0C019040E41AA2BFF8
:1044A00001EB0451294330BD6FEA04041F3C1CDAC0
:1044B0000C340EDC04F11404C4F1200220FA04F0E0
:1044C00001FA02F340EA030021FA04F345EA03018A
:1044D00030BDC4F10C04C4F1200220FA02F001FA4C
:1044E00004F340EA0300294630BD21FA04F02946CE
:1044F00030BD94F0000F83F4801306BF81F4801167
:104500000134013D4EE77FEA645C18BF7FEA655CD9
:1045100029D094EA050F08BF90EA020F05D054EAAB
:10452000000C04BF1946104630BD91EA030F1EBFB0
:104530000021002030BD5FEA545C05D140004941B4
:1045400028BF41F0004130BD14F580043CBF01F5A7
:10455000801130BD01F0004545F0FE4141F470018D
:104560004FF0000030BD7FEA645C1ABF1946104668
:104570007FEA655C1CBF0B46024650EA013406BF69
:1045800052EA033591EA030F41F4002130BD00BF28
:1045900090F0000F04BF0021704730B54FF48064E5
:1045A00004F132044FF000054FF0000150E700BF66
:1045B00090F0000F04BF0021704730B54FF48064C5
:1045C00004F1320410F0004548BF40424FF00001B2
:1045D0003EE700BF42004FEAE2014FEA31014FEAF5
:1045E00002701FBF12F07F4393F07F4F81F0605144
:1045F000704792F0000F14BF93F07F4F704730B5B3
:104600004FF4607401F0004521F0004120E700BF45
:1046100050EA010208BF704730B54FF000050AE0CC
:1046200050EA010208BF704730B511F0004502D5CD
:10463000404261EB41014FF4806404F132045FEACF
:10464000915C3FF4DCAE4FF003025FEADC0C18BF74
:1046500003325FEADC0C18BF033202EBDC02C2F16A
:10466000200300FA03FC20FA02F001FA03FE40EAFC
:104670000E0021FA02F11444C1E600BF70B54FF0FC
:10468000FF0C4CF4E06C1CEA11541DBF1CEA1355DE
:1046900094EA0C0F95EA0C0F00F0DEF82C4481EA46
:1046A000030621EA4C5123EA4C5350EA013518BF66
:1046B00052EA033541F4801143F4801338D0A0FB53
:1046C00002CE4FF00005E1FB02E506F00042E0FB00
:1046D00003E54FF00006E1FB03569CF0000F18BF06
:1046E0004EF0010EA4F1FF04B6F5007F64F54074AE
:1046F00004D25FEA4E0E6D4146EB060642EAC62141
:1047000041EA55514FEAC52040EA5E504FEACE2EAD
:10471000B4F1FD0C88BFBCF5E06F1ED8BEF1004FB0
:1047200008BF5FEA500E50F1000041EB045170BD2C
:1047300006F0004646EA010140EA020081EA030170
:10474000B4EB5C04C2BFD4EB0C0541EA045170BD6C
:1047500041F480114FF0000E013C00F3AB8014F1E6
:10476000360FDEBF002001F0004170BDC4F100042F
:10477000203C35DA0C341BDC04F11404C4F12005B0
:1047800000FA05F320FA04F001FA05F240EA02000B
:1047900001F0004221F0004110EBD37021FA04F641
:1047A00042EB06015EEA430E08BF20EAD37070BDFB
:1047B000C4F10C04C4F1200500FA04F320FA05F05A
:1047C00001FA04F240EA020001F0004110EBD3705C
:1047D00041F100015EEA430E08BF20EAD37070BDCC
:1047E000C4F1200500FA05F24EEA020E20FA04F3A5
:1047F00001FA05F243EA020321FA04F001F0004154
:1048000021FA04F220EA020000EBD3705EEA430EC4
:1048100008BF20EAD37070BD94F0000F0FD101F0F3
:104820000046400041EB010111F4801F08BF013C2C
:10483000F7D041EA060195F0000F18BF704703F06A
:104840000046520043EB030313F4801F08BF013DF1
:10485000F7D043EA0603704794EA0C0F0CEA1355AD
:1048600018BF95EA0C0F0CD050EA410618BF52EA67
:104870004306D1D181EA030101F000414FF000006D
:1048800070BD50EA410606BF1046194652EA43067B
:1048900019D094EA0C0F02D150EA013613D195EAEF
:1048A0000C0F05D152EA03361CBF104619460AD137
:1048B00081EA030101F0004141F0FE4141F4700141
:1048C0004FF0000070BD41F0FE4141F4780170BD31
:1048D00070B54FF0FF0C4CF4E06C1CEA11541DBF96
:1048E0001CEA135594EA0C0F95EA0C0F00F0A7F898
:1048F000A4EB050481EA030E52EA03354FEA0131C5
:1049000000F088804FEA03334FF0805545EA1313D7
:1049100043EA12634FEA022245EA111545EA10659F
:104920004FEA00260EF000419D4208BF964244F136
:10493000FD0404F5407402D25B084FEA3202B61A55
:1049400065EB03055B084FEA32024FF480104FF429
:10495000002CB6EB020E75EB030E22BFB61A75469D
:1049600040EA0C005B084FEA3202B6EB020E75EB30
:10497000030E22BFB61A754640EA5C005B084FEA98
:104980003202B6EB020E75EB030E22BFB61A754665
:1049900040EA9C005B084FEA3202B6EB020E75EB70
:1049A000030E22BFB61A754640EADC0055EA060E31
:1049B00018D04FEA051545EA16754FEA06164FEA74
:1049C000C30343EA52734FEAC2025FEA1C1CC0D120
:1049D00011F4801F0BD141EA00014FF000004FF0AD
:1049E000004CB6E711F4801F04BF01430020B4F16E
:1049F000FD0C88BFBCF5E06F3FF6AFAEB5EB030C26
:104A000004BFB6EB020C5FEA500C50F1000041EB22
:104A1000045170BD0EF0004E4EEA113114EB5C04EF
:104A2000C2BFD4EB0C0541EA045170BD41F48011C2
:104A30004FF0000E013C90E645EA060E8DE60CEACA
:104A4000135594EA0C0F08BF95EA0C0F3FF43BAFE7
:104A500094EA0C0F0AD150EA01347FF434AF95EA9E
:104A60000C0F7FF425AF104619462CE795EA0C0F82
:104A700006D152EA03353FF4FDAE1046194622E74F
:104A800050EA410618BF52EA43067FF4C5AE50EA29
:104A900041047FF40DAF52EA43057FF4EBAE12E719
:104AA0004FF0FF3C06E000BF4FF0010C02E000BFFA
:104AB0004FF0010C4DF804CD4FEA410C7FEA6C5CDD
:104AC0004FEA430C18BF7FEA6C5C1BD001B050EA80
:104AD000410C0CBF52EA430C91EA030F02BF90EA6B
:104AE000020F0020704710F1000F91EA030F58BF2A
:104AF000994208BF90422CBFD8176FEAE37040F08C
:104B0000010070474FEA410C7FEA6C5C02D150EA29
:104B1000013C07D14FEA430C7FEA6C5CD6D152EAE4
:104B2000033CD3D05DF8040B704700BF84461046A9
:104B300062468C461946634600E000BF01B5FFF7A8
:104B4000B7FF002848BF10F1000F01BD4DF808ED78
:104B5000FFF7F4FF0CBF012000205DF808FB00BF49
:104B60004DF808EDFFF7EAFF34BF012000205DF8A3
:104B700008FB00BF4DF808EDFFF7E0FF94BF0120F0
:104B800000205DF808FB00BF4DF808EDFFF7CEFFF1
:104B900094BF012000205DF808FB00BF4DF808ED30
:104BA000FFF7C4FF34BF012000205DF808FB00BF01
:104BB0004FEA410C7FEA6C5C02D150EA013C0AD119
:104BC0004FEA430C7FEA6C5C02D152EA033C02D10B
:104BD0004FF0000070474FF0010070474FEA41026C
:104BE00012F5001215D211D56FF47873B3EB62523F
:104BF00012D94FEAC12343F0004343EA505311F066
:104C0000004F23FA02F018BF404270474FF00000F7
:104C1000704750EA013005D111F0004008BF6FF035
:104C2000004070474FF00000704700BF4A0011D2AB
:104C300012F5001211D20DD56FF47873B3EB6252F6
:104C40000ED44FEAC12343F0004343EA505323FA02
:104C500002F070474FF00000704750EA013002D177
:104C60004FF0FF3070474FF0000070474FEA4102AD
:104C7000B2F1E04324BFB3F5001CDCF1FE5C0DD9BA
:104C800001F0004C4FEAC0024CEA5070B2F1004F04
:104C900040EB830008BF20F00100704711F0804F07
:104CA00021D113F13872BCBF01F00040704741F4CC
:104CB00080114FEA5252C2F11802C2F1200C10FAD0
:104CC0000CF320FA02F018BF40F001004FEAC123B4
:104CD0004FEAD32303FA0CFC40EA0C0023FA02F358
:104CE0004FEA4303CCE77FEA625307D150EA01332E
:104CF0001EBF4FF0FE4040F44000704701F00040FE
:104D000040F0FE4040F40000704700BF80F00040DB
:104D100002E000BF81F0004142001FBF5FEA410393
:104D200092EA030F7FEA226C7FEA236C6AD04FEA93
:104D30001262D2EB1363C1BFD218414048404140D8
:104D4000B8BF5B42192B88BF704710F0004F40F48A
:104D5000000020F07F4018BF404211F0004F41F4A6
:104D6000000121F07F4118BF494292EA030F3FD072
:104D7000A2F1010241FA03FC10EB0C00C3F1200385
:104D800001FA03F100F0004302D5494260EB400014
:104D9000B0F5000F13D3B0F1807F06D340084FEA7F
:104DA000310102F10102FE2A51D2B1F1004F40EB74
:104DB000C25008BF20F0010040EA030070474900DC
:104DC00040EB000010F4000FA2F10102EDD1B0FAA7
:104DD00080FCACF1080CB2EB0C0200FA0CF0AABF9C
:104DE00000EBC25052421843BCBFD040184370473A
:104DF00092F0000F81F4000106BF80F40000013240
:104E0000013BB5E74FEA41037FEA226C18BF7FEA16
:104E1000236C21D092EA030F04D092F0000F08BF58
:104E20000846704790EA010F1CBF0020704712F03F
:104E30007F4F04D1400028BF40F00040704712F17E
:104E400000723CBF00F50000704700F0004343F0E3
:104E5000FE4040F4000070477FEA226216BF084619
:104E60007FEA23630146420206BF5FEA412390EADC
:104E7000010F40F4800070474FF0000304E000BFD2
:104E800010F0004348BF40425FEA000C08BF704783
:104E900043F0964301464FF000001CE050EA010247
:104EA00008BF70474FF000030AE000BF50EA01025C
:104EB00008BF704711F0004302D5404261EB410149
:104EC0005FEA010C02BF84460146002043F0B6436E
:104ED00008BFA3F18053A3F50003BCFA8CF2083A93
:104EE000A3EBC25310DB01FA02FC634400FA02FC9C
:104EF000C2F12002BCF1004F20FA02F243EB0200A3
:104F000008BF20F00100704702F1200201FA02FC04
:104F1000C2F1200250EA4C0021FA02F243EB0200F7
:104F200008BF20EADC7070477BB972B90029BEBFA8
:104F300000204FF0004106E008BF00281CBF6FF0C2
:104F400000414FF0FF3000F00FBAADF1080C6DE9F1
:104F500004CE002909DB002B1ADB00F097F8DDF8FE
:104F600004E0DDE9022304B07047404261EB4101F7
:104F7000002B1BDB00F08AF8DDF804E0DDE90223FA
:104F800004B0404261EB4101524263EB430370477E
:104F9000524263EB430300F079F8DDF804E0DDE909
:104FA000022304B0404261EB41017047524263EB7F
:104FB000430300F06BF8DDF804E0DDE9022304B000
:104FC000524263EB4303704753B94AB9002908BF03
:104FD00000281CBF4FF0FF314FF0FF3000F0C4B984
:104FE000ADF1080C6DE904CE00F050F8DDF804E0F6
:104FF000DDE9022304B07047430803F05533C01ABB
:10500000830803F0333300F03330184400EB101002
:1050100000F00F3000EB002000EB0040000E704766
:1050200080EA104080EA102080EA101046F69613BD
:1050300000F00F0043FA00F000F00100704700BFDD
:10504000D0B5FFF7C7FA00220E4B06460F46FFF712
:1050500015FBFFF7EBFD0446FFF79AFA00220A4B17
:10506000FFF70CFB02460B4630463946FFF752F974
:10507000FFF7DCFD2346002242EA000210461946F3
:10508000D0BD00BF0000F03D0000F0412DE9F04729
:105090008C460D460446089E002B51D18A42174685
:1050A0006DD9B2FA82FEBEF1000F0BD0CEF1200C0A
:1050B00001FA0EF520FA0CFC02FA0EF74CEA050C88
:1050C00000FA0EF44FEA174A250CBCFBFAF81FFA57
:1050D00087F90AFB18CC45EA0C4508FB09F3AB42FB
:1050E0000AD9ED1908F1FF3280F02381AB4240F27A
:1050F0002081A8F102083D44ED1AA4B2B5FBFAF0F4
:105100000AFB105544EA054400FB09F9A14509D9F9
:10511000E41900F1FF3380F00A81A14540F20781D4
:1051200002383C44A4EB090440EA08400021002E68
:1051300061D024FA0EF4002334607360BDE8F08778
:105140008B4207D9002E54D0002186E82100084662
:10515000BDE8F087B3FA83F1002940F08E80AB42BE
:1051600002D3824200F2FA80841A65EB0305012023
:10517000AC46002E3FD086E81010BDE8F08712B98B
:105180000127B7FBF2F7B7FA87FEBEF1000F34D163
:10519000EB1B3A0C1FFA87FC0121B3FBF2F8250C3C
:1051A00002FB183345EA03450CFB08F3AB4207D971
:1051B000ED1908F1FF3002D2AB4200F2D1808046F7
:1051C000ED1AA3B2B5FBF2F002FB105543EA054419
:1051D0000CFB00FCA44507D9E41900F1FF3302D20F
:1051E000A44500F2B8801846A4EB0C0440EA08403D
:1051F0009DE731463046BDE8F087CEF1200405FA40
:105200000EF307FA0EF720FA04F83A0C25FA04F424
:1052100048EA0308B4FBF2F14FEA184502FB1144D7
:105220001FFA87FC45EA044501FB0CF3AB4200FA88
:105230000EF409D9ED1901F1FF3080F08A80AB42FC
:1052400040F2878002393D44EB1A1FFA88F5B3FB20
:10525000F2F002FB103345EA034500FB0CF3AB42CE
:1052600007D9ED1900F1FF386FD2AB426DD9023882
:105270003D44EB1A40EA01418FE7C1F1200722FAD1
:1052800007F88B4005FA01F448EA030320FA07FE09
:105290004FEA134CFD404EEA040EB5FBFCF94FEA11
:1052A0001E440CFB19551FFA83F844EA054509FB17
:1052B00008F4AC4202FA01F200FA01FA08D9ED183A
:1052C00009F1FF3043D2AC4241D9A9F102091D4492
:1052D0002D1B1FFA8EFEB5FBFCF00CFB10554EEAA1
:1052E000054400FB08F8A04507D9E41800F1FF3594
:1052F00029D2A04527D902381C4440EA0940A4EB32
:105300000804A0FB02894C45C6464D4615D312D071
:1053100056B1BAEB0E0364EB050404FA07F7CB4071
:105320001F43CC40376074600021BDE8F087184609
:10533000F8E69046E0E6C245EAD2B8EB020E69EB29
:1053400003050138E4E72846D7E7404691E7814660
:10535000BEE7014678E702383C4445E7084608E7DF
:10536000A8F102083D442BE7704700BF02E000F0BF
:1053700000F8FEE772B6394880F30888384880F3B1
:10538000098838484EF60851CEF20001086040F214
:105390000000CCF200004EF63471CEF2000108603D
:1053A000BFF34F8FBFF36F8F40F20000C0F2F000E9
:1053B0004EF68851CEF200010860BFF34F8FBFF365
:1053C0006F8F4FF00000E1EE100A4EF63C71CEF206
:1053D00000010860062080F31488BFF36F8F15F179
:1053E000DBFE15F173F84FF055301F491B4A91420F
:1053F0003CBF41F8040BFAE71C49194A91423CBFF3
:1054000041F8040BFAE71A491A4A1B4B9A423EBF6D
:1054100051F8040B42F8040BF8E700201749184A2A
:1054200091423CBF41F8040BFAE715F1B9FE15F1C2
:10543000A9F8144C144DAC4203DA54F8041B884705
:10544000F9E702F0F7F9114C114DAC4203DA54F8C8
:10545000041B8847F9E715F1A1BE000000060020F3
:10546000002200200040000800000020000600206C
:10547000D87C150800220020582C0020582C002031
:1054800048670120E0410008B8420008B84200081F
:10549000B84200082DE9F04F2DED108AC1F80CD06C
:1054A000C3689D46BDEC108ABDE8F08F002383F3EE
:1054B00011882846A047002014F13AFE14F120FC80
:1054C00000DFFEE701F0FF01102A2BDB10F0070FD1
:1054D00008D010F8013B013A8B422DD010F0070F95
:1054E00042B3F6D1F0B441EA012141EA014122F090
:1054F00007047FF000070023F0E80256083C85EA25
:10550000010586EA010685FA47F5A3FA87F586FACA
:1055100047F6A5FA87F68EB9EED1F0BC01F0FF018F
:1055200002F0070232B110F8013B013A83EA0103AD
:1055300013B1F8D10020704701387047002D06BF25
:1055400035460338073815F0010F07D1013015F43F
:10555000807F02BF013015F4C03F0130F0BC01383C
:10556000704700BFEC46A0E8F05F4FF000007047C6
:10557000B0E8F05FE546080008BF0120704700BFB3
:1055800010F8012B11F8013B012A28BF9A42F7D0ED
:10559000D01A7047034613F8012B002AFBD1181AC2
:1055A00001387047074A13780133DBB21D2B98BFCF
:1055B000137003684FF0000188BF11709B6888BFAB
:1055C0000121184700220020F0B58368012B91B01B
:1055D00005460E467DD098067BD4012011B0F0BD63
:1055E00092ED017AD3ED0A7AB4EEE77AF1EE10FA91
:1055F00000F3A78042F24663E35E002B06DC5E4BBD
:1056000032462021284685F0E5FE55E042F6380373
:10561000E25C0D2A9DBF4FF42153D340DB430123AD
:10562000D90700F19480554BEAE755480FF09EFAF0
:10563000012829D144F27C33E0587DF047FC012851
:1056400004D002280FD0F8B94E4BD9E743F2B83353
:10565000E35CDA0705D519214B4843F09BFA002893
:105660007FD14A4BCCE744F26C53E3560BB9484B1D
:10567000C6E703AA0DF10A01464845F011FBBDF843
:105680000A300BB1444BBBE743F24173E35CDB06EA
:1056900001D5424BB4E744F2783003AF32233A46A7
:1056A0003F4920587BF0D6FA40B900973D4B32462F
:1056B0002021284685F08EFE00208FE744F27430CA
:1056C00032233A46384920587AF06AF9002885D1C1
:1056D000EBE7364C42F24A63E3567BB143F21432B5
:1056E00042F24C63A258E35EB2F90A1003F10A02D7
:1056F000914228DD40F28D32934224DD42F238633C
:10570000E356022B05D12A4B32462021284685F04C
:1057100061FE42F20A6341F65832E35AA3F57A7306
:105720009BB2934211D844F27433224AE35892ED6B
:10573000007AD3ED097AB4EEE77AF1EE10FA7FF74A
:105740004FAF1D4B5CE71D4B5AE71D4B58E743F22B
:105750004873E05880F052F800287FF466AF194B88
:105760004EE742F2206319210748E75E43F022FA30
:10577000874289DD144B43E78C351208BC3612088A
:10578000F0810020B7351208603F0020DC36120897
:1057900003361208CC710020273612085036120842
:1057A00065361208693612087B361208602C002014
:1057B00064351208DC520020A23612087F36120827
:1057C00092361208A1351208DA3512082DE9F3478E
:1057D000DFF8EC9043F24878064659F8083093F821
:1057E0006A400F4634B9324A85F098FF204602B02D
:1057F000BDE8F087202185F0DBFD82460028F5D04A
:105800001EF05AF91EF058F990F84050EB1E5D4218
:105810005D411EF051F990F84130032B0ABF554607
:105820004FF0000A4FF0010A002DDFD059F80800B0
:105830007FF038FFB0F57A7F06D01E4A39463046F1
:1058400085F06CFF0024D1E759F808007FF038FF9D
:10585000B0F5FA6F01D0184AF0E750466BF0A0FDA2
:10586000054659F8080003681B6A98470022B5F8F6
:10587000E4E1114613464FF0010C102A0ED00CFA49
:1058800002F5284202F10102F7D01EEA050FF4D119
:105890000133DBB20029F0D1D1B2EEE7002BA5D065
:1058A0000091064A3946304685F038FFCAE700BF06
:1058B000CC341208EA3412080D35120830351208BB
:1058C000602C002013B58368012B0A4604D05B06C8
:1058D00002D4012002B010BD0B4B42F24A6159566E
:1058E0000029F6D043F214315C5842F24C61595E03
:1058F000B4F906309942ECDD044B00934021044B8F
:1059000085F068FD0020E5E7602C0020D437120800
:10591000B3F3130870B58EB005460E46322201A9C6
:10592000094867F02FFF044640B99DF9043043B998
:10593000064B074A3146284685F0F0FE20460EB059
:1059400070BD01ABF5E700BFEC5D0020EC3712083D
:10595000B3F313082DE9F04399B00F46064618F04B
:105960002FFE0546322200210BA819F167FF2B6894
:1059700032229B6A0BA928469847044648B90BABCC
:10598000334A3946304685F0C9FE204619B0BDE895
:10599000F08344F69473DFF8CC8058F80300036872
:1059A0009B68984781462B4867F07EFCB9F1000F51
:1059B0000AD0404613F0BCFD78B9274A3946304634
:1059C00085F0ACFE0024E0E710F0060FDDD0404685
:1059D00013F0AEFD08B9214AF0E703A9284617F0F5
:1059E00057FB28B19DF80D305B0601D51C4AE5E751
:1059F0000023089309930A932B6807AA0DF1200945
:105A00000192CDF80090D3F8E88005AA06AB04A96E
:105A10002846C047DFF85880D8ED007AF5EEC07A06
:105A2000F1EE10FA09DD484634F0DAFFD8ED007ADD
:105A3000B4EEE70AF1EE10FA08DA05F59E710948AE
:105A400005F04CFB0028A0D0074AB7E7074AB5E7A6
:105A500058371208A07000206137120878371208F2
:105A60009E371208602C0020AC371208BE3712088F
:105A7000C852002008B5064A43F24173D35C9B0725
:105A800004D5044A85F04AFE002008BD012008BD67
:105A9000602C00200037120870B5836813F0210FC6
:105AA0008EB005460E460FD087F062F8044658B116
:105AB0003222002101A819F1C1FE2046322201A99B
:105AC00087F01EF8044608B1012405E001AB044A42
:105AD0003146284685F022FE20460EB070BD00BF3C
:105AE000B3F3130870B544F694730B4C0546E058B5
:105AF0000368DB680E46984710B10124204670BD4C
:105B0000204613F027FD04460028F6D1034A31460B
:105B1000284685F003FEF1E7602C002008341208C7
:105B200070B505460E46FFF715FF064B0446D871C3
:105B300031462846FFF7D6FF002814BF2046002034
:105B400070BD00BF558900202DE9F04143F2487235
:105B5000304FBA5892F8684005460E46002C4FD197
:105B600054F0CEFC202154F039FB30B154F0C8FC85
:105B70001F2154F033FB002845D143F21E73FB5C18
:105B800003F01403142B04D1234A3146284685F030
:105B9000C5FDAB6833B92B68314628461B6BBDE8A1
:105BA000F04118473146284686F024FB314604462A
:105BB0002846FFF709FD314604402846FFF706FE58
:105BC000E4B2044031462846FFF77CFE31460440EB
:105BD0002846FFF79FFE314604402846FFF74AFF5C
:105BE000314604402846FFF757FF31460440284617
:105BF000FFF778FF31460440284686F01BFD04403D
:105C00002046BDE8F081054A3146284685F086FDEC
:105C1000F6E700BF602C0020103712082837120862
:105C200010B5FFF791FF054943F21C728C5C60F3DD
:105C300004148C54024A907110BD00BF602C0020E7
:105C40005589002007B504487EF022FF00F00100CE
:105C500003B05DF804FB00BFB46F0020F7B5054644
:105C60000E4685F023FC044620B1AB68012B04D01E
:105C70009A0702D4204603B0F0BD14487EF008FF16
:105C8000C0F3072010F00107F4D18307F2D50F48C5
:105C90007EF0A8FE44F220330D4AD35807EE903A26
:105CA000F8EEE77A30EE670ADFED0A7AB0EEC00A66
:105CB000B4EEE70AF1EE10FADCDD074B32460221C2
:105CC000284685F087FB3C46D4E700BFB46F002030
:105CD000602C00200000C842503512082DE9F04128
:105CE000074690B0884685F0CDFDBB68012B054680
:105CF00005D05B0703D4284610B0BDE8F08103ACA3
:105D000032220021204619F199FD21F067FE32224E
:105D1000214621F099FC06460028ECD10094044B62
:105D200042460421384685F055FB3546E3E700BF7F
:105D3000B3F31308F8B504460F4685F043FFA36894
:105D4000012B054603D0DB0601D42846F8BD2046CA
:105D5000FFF778FF06460028F7D1044B3A4610219A
:105D6000204685F037FB3546EFE700BFB834120810
:105D700038B504460D4685F04FFCC8B1A368012B29
:105D800008D01B0606D438BD29462046BDE8384059
:105D900085F096BF43F69D43064AD35C002BF3D0B3
:105DA0002046054B2A46802185F014FB002038BD93
:105DB00038BD00BF602C002044371208F0B543F214
:105DC0000C33124C85B0E358009343F210336A460B
:105DD000E358019343F214330646E358029343F227
:105DE00018330F46E358039386F07AFB394605468D
:105DF000304685F017FB43F21C722840A35C60F329
:105E0000C303C3F3C000A35405B0F0BD602C002051
:105E10002DE9F84306468846FFF79CFD1D4F0446D2
:105E200010B90024FC7113E01B4D44F69473E8583C
:105E300003689B6898478146184867F035FA2B46F7
:105E4000B9F1000F07D110F0060F04D10123FB7147
:105E50002046BDE8F883B268012A01D01207F5D5C3
:105E600093F81025842101FB023242F23A61B2F824
:105E70009E235B5E9A4206DD094B4246082130466E
:105E800085F0A8FACDE74146304685F029FB002889
:105E9000DCD1C6E755890020602C0020A0700020CE
:105EA000A834120870B588B005460E4685F056FC39
:105EB000044620B1AB68012B04D09B0602D42046D7
:105EC00008B070BD44F2F043184AD35C002BF6D002
:105ED00007AA06A9164862F09FFE0028EFD0DDED64
:105EE000077A9FED147AF4EEC77AF1EE10FAE6D84D
:105EF0000CA3D3E9002317EE900ACDE90423FEF7A3
:105F000069FBDDED067A0C4BFDEEE77ACDE9020187
:105F1000CDED007A32462021284685F05BFA002438
:105F2000CDE700BF000000403333E33F602C00208A
:105F3000645400209A99193F043812082DE9F34758
:105F40008946054618F03CFB0368D3F8C83007467D
:105F50009847044640B9754A0121284685F0DEFB82
:105F6000204602B0BDE8F0873B6838465B6B984737
:105F7000044670B921F032FD2146064621F020F892
:105F80007C23C0B203FB006090F889400CB9684ADA
:105F9000E2E7DFF8B88143F2247309F1FF3618F81D
:105FA00003A044F69473714258F8030003687141EA
:105FB0001B6998474646044608B95E4ACCE701216A
:105FC0002846FFF703FC04460028C9D043F21E739D
:105FD00018F8033003F01403142B05D1564A01219D
:105FE000284685F09BFB92E054F08AFA1F2154F07A
:105FF000F5F8524BD0B91870AB68002BB0D0012B1C
:1060000063D0DC0661D4AB68012B00F08280980677
:106010007FD4590611D44A4B1B68D86C0368DB69DE
:1060200098470128014649D1464AD9E71B78002BF9
:10603000E2D0454AD3E7012BEBD142F24A63F35653
:106040004BB143F2143342F24C62F358B25EB3F9EF
:1060500006309A4266DCB9F1010F03D10AF0EF0372
:10606000042BD8D043F214333848F358B3F908302E
:1060700000EE103AB8EEC00A00F002FBB5EEC00A1E
:10608000F1EE10FA08DD324B0093324B0122402131
:10609000284685F09FF93AE044F69473F058036877
:1060A000DB68984710B9BAF10B0FB4D143F214333F
:1060B000F358B3F90830002BE5DCACE74946284635
:1060C00002B0BDE8F04785F0E9BED7ED557A97ED0F
:1060D000540A20EE270A16F181FDDFED1F7A42F205
:1060E0000A6320EE270AF35EDFED1C7A20EE270A12
:1060F00007EE903AF8EEE77AB4EEE70AF1EE10FA1E
:1061000081DD174B01221021284685F063F9002418
:1061100026E743F24172B25CD2068CD5114B0122C4
:106120002021F1E70A4B00930F4BAFE71C34120814
:106130002D34120841341208103712081093002031
:10614000008600208734120852341208602C002088
:106150007E34120872341208E02E65420000C842F4
:106160006A34120850361208953412082DE9F041AD
:10617000524E3378B046002B40F09E80504C43F294
:10618000487501276559377095F868501DB133700F
:106190002846BDE8F08186F0F3FA054630B9494A51
:1061A0003070137843F001031370F1E748F050FDAD
:1061B000394647F04BFF204606F084FD424B1F71E5
:1061C0000C27013F04D03DF07FF93DF0DDF8F8E702
:1061D0003B4800F00BFF18F0F3F943F2707382694B
:1061E000E25090F84C31DA07064654D40368D3F8ED
:1061F000E030984748F02CFD3C2148F087FC334BB9
:1062000000221A6000212E4800F084FF2C4813F071
:106210008FF901462E4883F0CDFD96F8803043F08B
:10622000040386F880302B4B1B680121D86C2DF0BD
:106230000DFB44F220532248E25C6FF34102E2542A
:1062400011F0A4FF43F248730121E05880F0E2F915
:1062500048F0FEFC43F225730026E25C43F224730F
:10626000E15C48F081F8164806F01EFD43F0C2FEDE
:1062700043F0DAFA88F800608DF094FD44F2883338
:10628000E050154B9A7842F020029A70DA7866F363
:106290004102DA707CE79B07B4D43946084804F021
:1062A000C5FF0E487EF09EFBDFED0D7A074B20EE1A
:1062B000270A83ED000AA5E7002569E7582C00208E
:1062C000602C0020708900205589002090630020F8
:1062D000505C0020008600207C630020B46F00200A
:1062E0000AD7233C2DE9F04343F248733B4DEB586A
:1062F00093F8683085B0002B6DD05AB1012909D1CF
:1063000043F21C73EB56002B04DB0027384605B024
:10631000BDE8F08386F092FA07460028F5D018F021
:106320004FF9064621F05AFB33688146D3F8A43072
:1063300030469847D8B199F95C30022B17D1002428
:106340004FF0000801AA21463046CDF80480CDF870
:106350000880CDF80C8018F025F820B101AA21465C
:10636000484620F07FFF0134E4B2032CEAD144F622
:1063700094721B4BA858984229D10AF09BF901212D
:10638000164806F077FE0121144806F0B9FD43F2E5
:1063900048730021E85880F03DF9124836F05EFA63
:1063A00048F056FC002147F051FE96F880306FF31C
:1063B000820386F880300C4B1B680021D86C2DF0CE
:1063C00045FA0A4B9A786FF345129A709EE7184681
:1063D0000AF07CF9D3E7012798E700BF602C002082
:1063E0000C7F0020B07C0020008600207C63002011
:1063F000014866F0DBBF00BFA070002010B543F27B
:106400001C72835CC3F340148C420AD061F34513C1
:10641000835431B148F01CFC0F21BDE8104048F016
:1064200075BB10BD38B543F258730446C3588B4250
:106430000D4613D0012912D0022917D059B948F0BE
:1064400007FC1B2148F062FB0D4A04F5545006215D
:106450000C304AF00DFF43F25873E55038BD48F058
:10646000F7FB1A2148F052FB064AEEE7012100F043
:1064700051FE48F0EDFB1D2148F048FB024AE4E7DD
:10648000783812088D3812088838120843F24172A1
:1064900038B5835C0C4603F00101A14208D064F3D7
:1064A00000038354DB0704D406F0DCF8024B9C7233
:1064B00038BD06F025FAF9E75589002043F241730B
:1064C000C25C61F34102C254014B1973704700BFB3
:1064D0005589002010B5044654F012F8202153F0DD
:1064E0007DFE04F55C5300309A7F18BF012060F3F5
:1064F00082029A7710BD000038B52DED028B43F271
:1065000041730446C35CDA0708EE101A3ED443F226
:106510001D73C35C5B0739D500F52055B7EE001A33
:106520000E20DFED1C0A95ED0C0A31F0D7F8DFEDF7
:106530001A7A85ED0C0AF0EEC06AF4EEE76A04F50B
:106540001954F1EE10FAB0EE407AF8EEC87A04F180
:10655000380406D594ED000A20EE270ABDEC028B24
:1065600038BD9FED0E6AC7EE866AF7EE007A77EEC9
:10657000C07A27EEA60A66EEA67A67EEA66AD4ED82
:10658000007AA7EE260A20EE060AE5E79FED010A4B
:10659000E4E700BF000000000000003400A08C45CC
:1065A00008B543F24873C05803681B689847F6EE75
:1065B000007A20EE270ADFED057AB4EE670AF1EEE5
:1065C00010FA48BFB0EE670A08BD00BF0000000027
:1065D00038B52DED028B44F274330546C358DFED18
:1065E000110A93ED2B0A7B20B7EE001A31F076F8F2
:1065F00044F27833B0EE408AEC5843F248732834C2
:10660000E85803681B68984738EE400ABDEC028BD7
:10661000DFED057A204620EE270ABDE838406EF00F
:1066200055BB00BF0000000000007A4400F5F7539E
:10663000D3ED005AD2ED007AD3ED036A91ED006AF2
:1066400026EEE77A67EEA57AA6EE257AE6EE267ABA
:1066500081ED007AC2ED007A7047000043F2BC037E
:10666000C35E3BB942F24663C05E0028B8BF4042F9
:1066700080B2704783EAE370A0EBE370F8E70000B4
:1066800070B52DED068B43F241730446C15C11F0E9
:106690000105B0EE408A04D09FED2B0ABDEC068BBD
:1066A00070BD43F21D73C35C5B07F5D542F24E66C5
:1066B00011F092FEA35F9FED259ADFED230A01EE14
:1066C000103A07EE900AF8EEC19A5D20B0EE491A32
:1066D000B0EE480AF8EEE78A31F000F838EEE9AAA1
:1066E0004FF4C8722946A05FB0EE408A31F02CF812
:1066F000B4EEC8AAF1EE10FAA0530DDD2046FFF764
:10670000ADFF07EE900A38EE4A8AB8EEE70A20EEAF
:10671000088A88EE0A0AC1E738EEA91AB4EEC81A48
:10672000F1EE10FAB8D542F2466338EE418AE35EE4
:1067300000EE103AB8EEC00A39EE411A20EE088A8F
:1067400088EE010AAAE700BF0000000000007A44BA
:1067500038B52DED028B43F248750446435993F842
:10676000683023B143F21C73C356002B02DABDEC30
:10677000028B38BD44F69473C0580368DB689847B1
:106780000028F4D143F22473E35C0B2BEFD044F2E6
:1067900078339FED317AE358D3ED587AF0EEE77A0B
:1067A000F4EEC77AF1EE10FAE1D5605938304AF0CC
:1067B00077F80346B7EE001A6A20DFED280A93ED5A
:1067C000000A30F08BFFB5EEC00AF1EE10FACEDD14
:1067D00004F5864054307EF009F9DFED217AB0EE01
:1067E000C00AB4EEE70AF1EE10FAC0D541F69853AC
:1067F000E35808EE103A44F27433B8EEC88AE05811
:1068000003681B6E984738EE400ABDEEC00A10EED2
:10681000103A002BB8BF5B42B3F5FA7FA7DA41F616
:106820009C5340F2E632E35803F2F31393429ED8AE
:1068300060599FED0C0A7FF021F8BDEC028B635983
:106840009FED080AD3ED0A0A04F5B5500830BDE8FB
:10685000384070F01FBB00BF000000340000000093
:10686000000070420AD7233C002070470020704788
:1068700000207047002070477047000043F22473E7
:10688000C05C7047034808603221117008221A600A
:10689000704700BFE038120810B544F694730C46F8
:1068A000C05803681B6C984707EE900A9FED047A66
:1068B000F8EE677A012067EE877AC4ED007A10BDA2
:1068C0000AD7233C10B544F694730C46C0580368AD
:1068D000DB6B984707EE900A9FED047AF8EEE77AB3
:1068E000012067EE877AC4ED007A10BD0AD7233CF9
:1068F00010B544F694730C46C05803685B6C984717
:10690000DFED037A20EE270A012084ED000A10BD96
:106910000AD7233C03685B6D184700006FF0E0BAAC
:106920005AF038BF86F008B964F0C6BC13F050B80E
:1069300004F098B85FF0E8B811F050BE11F0E2BD75
:1069400011F0B8BD43F06CBA2EF01AB847F0B0BCE5
:106950001BF082B855F0B2B952F086BB51F038BA8C
:1069600011F0AAB911F09ABF06F0EEBC06F066B9B4
:1069700005F038BC05F052BB3CF006BD11F02EBB53
:10698000403066F041BC000018F006BD5BF0B2B9C3
:1069900065F02EB80EF08ABFFFF7DABE11F0D8BA54
:1069A00083F056BE61F0B0BF11F042BE03F0DABB17
:1069B00011F052BA11F0C8B953F012BD3FF0B0BA9D
:1069C00024F06CBC06F022B809F08ABB09F0DABCEE
:1069D00009F072BC10B52DED028B44F69473044699
:1069E000C0580368DB69B0EE408A984720B900249C
:1069F000BDEC028B204610BD9FED080A04F5A840AF
:106A000028EE000A40300BF0A7FD04460028EED027
:106A100001210348FFF7F2FCEAE700BF0000C8428B
:106A2000602C002037B544F694730446C0580368C0
:106A3000DB690D46984760B1DFED070A002304F5D6
:106A4000A8400093B0EE600A1A46294640300CF088
:106A500023FC03B030BD00BF0000000070B52DED79
:106A6000068B44F694730546C058036884B0DB690E
:106A7000F0EE409AB0EE60AAF0EE41AAF0EE618A24
:106A80000E46B0EE429A98470446F8B19FED128A3E
:106A90004FF07E5300936AEE080A002329EE880A1D
:106AA00068462AEE881A03930293019332F046FD5A
:106AB0009FED0A0A05F5A840002369EE080A324650
:106AC00028EE800A694640300BF0F0FE204604B004
:106AD000BDEC068B70BD00BF35FA8E3C0000C8428D
:106AE00070B544F694730646C058036886B0DB69F7
:106AF0000C469847054610B39FED126AD4ED006A24
:106B000094ED017AD4ED027ADFED0F0A012366EEEF
:106B1000866A27EE067A67EEC67A019306F5A840E4
:106B200000230093B0EE600A1A4603A94030CDED71
:106B3000036A8DED047ACDED057A0CF00BFC284646
:106B400006B070BD0000C842000000004E4B37B5D3
:106B5000044640F8043B5AF0C9FE9FED4C1ADFEDA5
:106B60004C0A9FED4C0A04F128006DF087FE04F1F9
:106B7000500064F0BBFC04F10805474B47491D6019
:106B8000284641F043F904F190001CF0D3FC444B3B
:106B90000193009402AB13E9060004F5067042F07D
:106BA0005BFF04F5317022F0BFFD04F5B96018F009
:106BB0003BF804F5E76020F0E7F804F52D602DF0D0
:106BC000B5FC04F592505AF0C5FC04F5985041F01C
:106BD000BFFE04F5AD50103054F078FE04F5AF5010
:106BE0000C301BF0E1F804F5B55008306FF0BCFA3A
:106BF00004F5E65072F096F904F5E650143043F0CF
:106C000009FB04F5E9505AF0B7FF41F62853002577
:106C1000E218E55404F5E950224B18301A603CF0B4
:106C200083FA04F5EC502946083015F079FD04F597
:106C3000115010306EF0B8FA04F511501C305EF0AF
:106C400073FF04F5125008306EF0D2FF04F51250B5
:106C50000C3074F0D7FB04F51650243073F0C2FCEE
:106C6000114D04F51750043076F09EF92B6813B1DE
:106C70000E488DF075F820460D4941F0C7F82046C2
:106C80002C6003B030BD00BF3C57130800008C429D
:106C90009A99993E00004843F88700200CB51208E5
:106CA00015690008BC950020388A00209C3812081D
:106CB0005456130810B511F01FFB53F021FC036864
:106CC000BDE810405B681847FFF7F4BF10B50446F5
:106CD00006F02EF9204612F013F8204604F074F85E
:106CE0002046BDE8104004F0D7B90000FFF7EEBF22
:106CF00070B500F55D5534350446284619F0D2FCD0
:106D000020F06CFE90F9593073B343F2487304F5E8
:106D1000E766E058383049F0C3FD0346B7EE001A85
:106D20006A20DFED120A93ED000A30F0D7FC94F9E7
:106D3000AC37012B284608BF86ED210A002119F047
:106D4000DDFADFED0B7A04F67C2494ED007A20EE78
:106D5000270ADFED087AA7EE270A304684ED000AFD
:106D6000BDE8704020F018BB70BD00BF00000000FF
:106D7000CDCCCC3D6666663FFFF7BABF10B50121AA
:106D8000044612F019F860B144F69473054AD058DD
:106D900003681B6A984720B92046BDE8104002F0FE
:106DA00041BA10BD602C0020FFF7E8BF38B50221C2
:106DB000044612F001F868B10121204611F0FCFFF1
:106DC00040B944F694734C4AD05803681B6A9847FC
:106DD00000287BD00221204611F0EEFF002879D157
:106DE0000121204611F0E8FF002873D14FF4003153
:106DF000204611F0E1FF10B1204602F089FA40214F
:106E0000204611F0D9FF60B104F54C551C352846D9
:106E100045F0CEFB41F2B053E35613B1284645F09E
:106E2000DDFC4FF48061204611F0C6FF20B104F56F
:106E30004C501C3045F04CFC2021204611F0BCFF8A
:106E400060B144F69473E05803689B689847002843
:106E500044D120460CF03CFC00283FD18021204644
:106E600011F0AAFF00283FD14FF48021204611F0F5
:106E7000A3FFC8BB4FF40021204611F09DFF98BB33
:106E80001021204611F098FF98B144F2743304F5B4
:106E90004C55E05877F008F91C3504F520510431C1
:106EA000284646F071FB04F51D510431284646F092
:106EB00009FB4FF6FF71204611F07EFFD0B104F5BB
:106EC00042502030BDE8384085F044BE204602F0F4
:106ED000A9F97FE7204602F009FA87E744F2783300
:106EE000E05879F00BFCB9E704F54C501C3045F044
:106EF000C3FDC5E738BD00BF602C0020FFF756BFBB
:106F000010B50121044611F057FF10B1204602F0E0
:106F1000EDF98021204611F04FFF20B104F54C50CF
:106F20001C3045F089FD2046BDE8104002F0BCBB96
:106F3000FFF7E6BF10B5044605F038FE204605F021
:106F400083FC204605F026FF2046BDE8104012F0E5
:106F500061BD0000FFF7EEBF38B54FF6FF71044684
:106F600011F02AFF30B143F21C730721E25820468A
:106F700002F032FA04F5515043F248752030FEF722
:106F800011FB635993F86830DBB904F5EC50083015
:106F900014F078FE2046FFF79DFA605942F26262D3
:106FA0000368A25C1B6942F63801615C984743F2B2
:106FB00014336059E358B3F90E20B3F90A107EF088
:106FC00031FC53F023FD204612F016FD43F21C73F2
:106FD00044F6D962E35CDB43C3F3C013A354014A14
:106FE000537138BD55890020FFF7B6BFF8B500F5DD
:106FF000F75300F55D561B68F36100F5F7530C334A
:1070000000F5ED571B6833620446386800F58C4084
:10701000503030F023FB43F264733546E0502B468A
:10702000F269AA622A6ADA624FF6FF71204611F00D
:10703000C3FE30B13A6820460921BDE8F84002F0AD
:10704000A1B9F8BD10B543F25873C258002A50D008
:1070500043F21D73C35CDB074BD500F55C53012A7B
:10706000597F6FF30001597743F20C33C358B3F9DA
:10707000083006EE103A00F55D53B8EEC66A39D115
:1070800093ED077A43F21033C358B3F9083007EE93
:10709000903A00F55D53F8EEE77AD3ED085A65EEC5
:1070A000E76A67EE277A00F5F752E6EE257A43F2B3
:1070B0000C33E6EE076AC45892ED037A92ED006A4B
:1070C00027EE877AA6EE867ABDEEC77A17EE103ADB
:1070D000238192ED007A67EE877A92ED037AE6EEED
:1070E000C77A43F21033C058FDEEE77A17EE903AB4
:1070F000038110BD93ED0A7A43F21033C358B3F9FC
:10710000083007EE903A00F55D53F8EEE77AD3EDDC
:107110000B5AC4E710B504462DED028B79B1204619
:1071200010F040FF43F2647240F2E631A3581B1A9C
:1071300003F2F3138B420DD8BDEC028B10BD43F26A
:107140005873C358022BF7D110F00EFFB0F57A7FB9
:10715000E5D2F1E7A05000F58C405030642390FB5D
:10716000F3F308EE103ADFED0B7AB8EEC88A28EE9A
:10717000278AB0EE480A15F119FB04F55D5383ED3B
:107180000A0AB0EE480A15F1B1FC04F55D5484ED2D
:107190000B0AD1E735FA8E3C00F5EC50012108309E
:1071A00016F0A6BF10B5044600F52D602DF0DCFDED
:1071B00044F27433E0580368DB6A9847204610F0C5
:1071C00007FD2046FFF7E8FF204605F055FE204664
:1071D00004F0C6FF204606F08BF9204604F048F87C
:1071E000204606F069F804F58740583054F06CFDED
:1071F0004FF6FF71204611F0DFFD10B1204602F07E
:1072000049F92046BDE8104044F05EBC10B5044684
:1072100011F0E8F81021204611F0CEFD48B12046CB
:1072200002F00AFB04F5B5500830BDE810406FF0DD
:10723000ABBE10BDFFF7EABFF8B50446274606F01F
:10724000BFF8234B47F83C3B224BA365224B2366F8
:10725000224BA3666465E465646604F174001CF067
:107260006DFD04F18C0000251CF068FD4FF6FF76E3
:1072700004F1A4001CF062FDA4F8B450A4F8B660B8
:10728000A4F8B86004F1BC001CF058FD144BC4F81D
:107290000851384613491F6040F0B8FD94F83D305E
:1072A000A4F86C6003F0F40365F3041384F83D3034
:1072B0000123A4F8846084F83C5084F8BA5084F820
:1072C0001051C4F8345184F838312046F8BD00BF5D
:1072D000B4931208C9690008CD690008D169000893
:1072E0000C890020280F130810B504461CF026FD59
:1072F00004F110001CF022FD04F120001CF01EFD22
:1073000004F130001CF01AFD204610BD2DE9F047B5
:107310002DED028B044684B0FFF718FC9F4B2360D1
:1073200004F51A50103002F051FB04F5195104F520
:107330004C501C311C3046F0D9FD43F2B03204F5FC
:1073400019531033A35043F2B433062204F54F50BF
:10735000E254043049F040FA04F54F50243049F02B
:107360003BFA43F2F83343F26047012504F55050ED
:10737000E550E6190C3053F0AFFF304683F0E6FFDE
:10738000874BE351301D3FF0E7FE10B943F26443F1
:10739000E55404F553503EF067FD43F20C53814A27
:1073A000E250E61804F5565706F128051837284626
:1073B00014354EF02BF8BD42F9D143F2CC6506F5F9
:1073C000D4708CF01DFB631905229A800022DA80AC
:1073D0001A8140F213101CF0EFFF605104F55C506D
:1073E0008CF00EFB704B1A6802B91E6043F20C530E
:1073F0006E4AE25043F224730026E65443F22573AA
:1074000004F55C50E654273081F076FAB7EE008A36
:1074100004F55D5383ED078A04F55D5383ED0A8A15
:10742000634B0393634B0093029404AB04F55D50EC
:1074300013E90C004FF40071343018F0C1FE04F56C
:107440007250203086F0BCFC04F58640B0EE480A4D
:10745000243049F0D1FA04F5864704F58640B0EEB1
:10746000480A4437383049F0BFF938461CF066FC0A
:1074700044F254335049E150E21804F586430025A4
:107480009D65DD651D6604F586435D669D66DD666A
:1074900004F5EC530833D36144F28D33E65404F51C
:1074A000874606F12C001CF049FC4FF4004333657D
:1074B000776510364149304640F0A8FC404B04F552
:1074C000874058301E6054F03BFB04F58840403044
:1074D00065F0B8FE04F5894044F2FC465C3066F085
:1074E0009FFBA01941F094F8364BA35104F58A4054
:1074F000103064F005FA04F58A402C3004F5E953A5
:10750000036104F58A47304B304918604C3740F02E
:107510007DFCFF233B743B762D49384640F076FCDA
:107520002C4B1E6816B12C488CF01AFC04F5A041B7
:1075300004F58A4050316C301F6043F00DF904F5BA
:107540009C4704F59B40783744F62079643079F005
:10755000CDFE04EB090838466CF0A4FC39464046E1
:1075600081F0E4F91D4B44F80930062388F85430C3
:107570001B4B1C4A1A6004F59F40334618279EB2E5
:10758000314679430133515C0029F8D1164B1E80F6
:10759000164B1E6876B31648C6E700BF143D1208A6
:1075A00038381208A8711308D89200203442120803
:1075B000C5690008C83C12080CCC130848B712086B
:1075C0000088002074381208C4950020D48613085F
:1075D000A4A513085C960020D03C1208BC8C1208AD
:1075E000F48900209C781208F0890020B4890020DA
:1075F000F13C1208186045F21C6844F6947304EBE1
:10760000080A44F6987744F803A0E01905F0D8FE7C
:10761000744BE35144F6D877E01905F0D1FE724B74
:10762000E35104F5A04045F270171430FFF704FE53
:10763000E01987F035FC6D4BE35145F2AC27E019BA
:1076400005F0BEFE6A4BE35145F2E827E01905F06C
:10765000B7FE45F22C39674BE35104EB0907384676
:1076600005F0AEFE644B44F8093087F83C6087F8BB
:107670003D6045F26C37E01905F0A2FE5F4BE35127
:1076800045F2A837E01905F09BFE5D4BE35104F588
:10769000A74345F2FC3704EB07095D669D66DD668E
:1076A000484605F08DFE89F83C60564BE35145F2A3
:1076B000404904EB0907384605F082FE524B44F876
:1076C000093087F83C6004F5A947384605F078FE94
:1076D0004E4B3B6045F2BC47E01905F071FE4C4B48
:1076E000E35145F2FC47E01905F06AFE494BE351CE
:1076F00004F5AA4345F290575D679D67E519DFF8E9
:107700003091284605F05CFE44F80790012785F883
:107710003C7085F83D6005F14000FFF7E5FD5046FF
:1077200005F04EFE45F258653B4B44F808306019B1
:1077300005F046FE394B635104F5AD4045F208753E
:1077400004EB050814300EF097FB404605F038FEB8
:1077500088F83C60324B635145F2487804EB0805E9
:10776000284605F02DFE2F4B44F8083085F83C6084
:1077700085F83D6045F2987504EB0508404605F034
:107780001FFE88F83C60284B635145F2D87804EB23
:107790000805284605F014FE44F8089005F140005D
:1077A00085F83C7085F83D60FFF79EFD1F4B44F85F
:1077B000083004F5B04085F88970683009F0DCFEC7
:1077C00004F5B24028300FF013FA43F24472204619
:1077D000A35C43F00303A35404B0BDEC028BBDE8EB
:1077E000F08700BFE49112085492120880941208A6
:1077F00024941208289512089495120800961208ED
:10780000649612085C981208C098120890991208A1
:10781000F4991208609A1208E89C1208789C1208E1
:10782000BC9412083CA01208349912080C9C12084F
:10783000A49B120838B5054B1C6823680A461D68CE
:10784000034B01462046A847002038BD0086002093
:10785000602C002038B5037904463BB905682DB18A
:1078600028462CF051F828461CF0B2FD204638BDC1
:10787000214B70B50446036000F5E65071F066FBDD
:1078800004F5C55604F5C65514360C35AE4204D081
:10789000083D2846FFF7DEFFF8E704F5AD5010304D
:1078A00054F02CF8154BC4F8D03A04F56E6604F683
:1078B0003475AE4204D01C3D284648F0B3FDF8E7CD
:1078C00004F65C5604F6A455AE4204D0083D2846A2
:1078D000FFF7C0FFF8E70A4BC4F8D43094F8B8318A
:1078E00043B9D4F8B4512DB128462CF00DF82846F0
:1078F0001CF06EFD204670BD3C571308B4021308FF
:10790000D0BB120838B50F4B036044F61073C21891
:10791000044612793AB9C5582DB128462BF0F4FF28
:1079200028461CF055FD43F20C53074AE25043F23F
:10793000CC63E05808B11CF047FD2046FFF798FFE4
:10794000204638BD143D1208A871130810B58CF0FC
:10795000BDFB064C064B18602046FFF7D7FC2046BF
:10796000044A0549BDE8104014F198BD602C002080
:1079700000860020709E00200579000801207047D5
:10798000FA20704742F20E63014AD05C704700BF94
:10799000602C002043F25873024AD058431E5842CC
:1079A00058417047602C002043F25873024AD05867
:1079B000831E584258417047602C0020014811F046
:1079C0001DBA00BF602C0020F8B5C36943F4E05332
:1079D000C361036A43F4E0530362436A43F4E05330
:1079E000436204463EF01EFB064620B190F9053086
:1079F000002B40F0A0805C4D44F6E453EB563BB1C5
:107A0000E36943F08003E361236A43F08003236268
:107A100043F21D73EB5C5F0707D5E36943F48033E2
:107A2000E361236A43F480332362504861F068F9CC
:107A300018B1E36943F08063E3614D4B1F682FB1D8
:107A40001921384641F0A6F800287DD1E36943F4B6
:107A5000C043E36143F22473EA5C162A10D8012381
:107A60009340444A1A40002A5DD1434A134207D04A
:107A7000226A636A42F4C042226243F4C0436362F2
:107A80003A4861F045F918B1236A43F080632362F4
:107A900043F21D73EB5C580708D543F24173EB5C6E
:107AA000D9075EBF636A43F48033636246B13368CB
:107AB00033B13379DA0742BF636A43F0400363624C
:107AC00044F6E453EB5623B144F67063EB5C002BB1
:107AD0003FD1264861F026F918B9636A43F0806304
:107AE000636244F6E053EB5C013B012B0BD8E36986
:107AF00043F48003E361236A43F480032362636AEF
:107B000043F48003636243F2B833EB5CDB0729D5AF
:107B1000236A43F48073236227B31921384641F066
:107B200065F8D8B9F8BD236A43F400532362636A49
:107B300043F40053A3E7E36943F04003E361236A9E
:107B400043F04003236256E7E36943F48073E36143
:107B50007CE7636A43F080036362BAE7636A43F4D5
:107B600080736362F8BD00BF602C00206454002065
:107B7000008A002004A05000F8022F0070B54FF4D6
:107B800000700D4616461CF01DFC32460446294680
:107B900050F020FB014B2360204670BD3844120892
:107BA00008B590F88C30994208DD44F0C1FA1622ED
:107BB0004FF4802144F072FA002008BD243150F8BF
:107BC000210008BD08B590F88C30994208DD44F0DA
:107BD000AFFA0F224FF4802144F060FA002008BD74
:107BE000243150F8210008BD002070470020704764
:107BF000032070470E4B43F224729A5C172A15D863
:107C0000012191400B4A0A40002A0CBF1022182281
:107C100043F2487142F040005B5823B193F868305A
:107C20000BB142F0C00040F0010070471022EFE7B6
:107C3000602C0020F800AB0042F21063014AD05CD7
:107C4000704700BF602C002042F62803024AD0563D
:107C5000003018BF01207047602C002042F21263F0
:107C6000014AD056704700BF602C002070470000CA
:107C700007B543F248730E4AD058B0B1383048F0D7
:107C80000FFE0346B7EE001A6A20DFED0A0A93EDF5
:107C9000000A2FF023FDDFED087A20EE270AFDEE23
:107CA000C07ACDED017ABDF9040003B05DF804FBA4
:107CB000602C0020000000000000C8422DE9F04FB9
:107CC000324FDFF8D080DFF8D0908BB0054600242B
:107CD000E65DB8F9003006F1FF3A43FA0AF3D90736
:107CE00034D5287C4AF072FA8346287C4BF04AF956
:107CF000193083453CD2287C49F024FD0BB0BDE807
:107D0000F08F234B186803689B68984700F168035D
:107D1000E3B1D3F800A0D3F804C0D9681A69D3F846
:107D200018E05B6908936223019319230691079277
:107D3000287C009303AAC221CDF80CA0CDF810C076
:107D4000CDF814E08DF824604AF07EFA0134042C5A
:107D5000BED1D3E70E4B18680368DB68D5E70C4B40
:107D6000186803681B69D0E7D9F800309033CFE773
:107D7000BAF1030FEAD801A353F82AF0037D0008F3
:107D8000557D00085F7D0008697D000804451208E4
:107D9000D46F0020CC520020D86F002010B50446CC
:107DA00084F0E6FE20B12146BDE8104084F0A2BE7A
:107DB00010BD0000014807F075BD00BF747C0020B5
:107DC00070B542F62C0314460A4AD358DB07054621
:107DD0000E4603D52146084881F056F9214607484A
:107DE00085F0B6FA224631462846BDE870404FF08D
:107DF0000DBF00BF602C0020807B0020285D00208C
:107E000010B504464CF000FD054810F0F7FF054A98
:107E1000034606212046BDE810404CF029BC00BFB7
:107E2000602C00202443120838B504460D468BF020
:107E3000B9FF43F23473044AD05029462046BDE8C6
:107E400038404BF0F3BD00BF602C002010B443F26B
:107E50000832044CA35C0133A3545DF8044B4BF08F
:107E600039BD00BF602C002010B508460C461CF040
:107E70002BFA28B12146034802F0FCFC002010BD7B
:107E8000042010BD04860020014803F0CFB900BFD4
:107E9000602C0020014803F04DB900BF602C002089
:107EA00038B58A7A4B7A43EA0223CA7A43EA024314
:107EB0009D2B05460C4616D10E4A0F4844F2DA3384
:107EC000D15C53F057FF024668B9D4ED057A9FEDB7
:107ED0000B0ADFED0B0AF8EEE77A014627EE800A7F
:107EE000084802F067FC21462846BDE838404BF0C0
:107EF00099BC00BF602C0020387000200AD7233CBA
:107F0000000000000486002038B5084A44F26C5393
:107F1000D3563BB940F6CD144BF092FC00252043DC
:107F2000294338BD40F6CD34F6E700BF602C002071
:107F300010B504461CF04CFA204610BD38B50D4C67
:107F400043F21C73E356002B0FDB44F69475605923
:107F500003681B6B984750B960590368DB6A984700
:107F6000002814BF0320022038BD012038BD0420A2
:107F700038BD00BF602C002038B5F7EE000A91ED47
:107F8000050A04460D462FF0A3FA28B121460548FC
:107F9000BDE8384003F07EB929462046BDE83840A8
:107FA0004EF0C2BA602C00201FB50023019302934B
:107FB000039314F0BDF9036801A95B6F984728B1DA
:107FC00001A832F00DFD05B05DF804FB23F004FAC2
:107FD00090F84C32842202FB030090ED330AF2E762
:107FE0000B7ADB0706D541F6C8620348CB68825896
:107FF0001344CB60704700BF602C0020044B1878FE
:1080000028B943F21E73034AD05CC0F38010704756
:10801000FC870020602C00200B4B43F241729A5CDD
:10802000D10706D443F69D41595C11B912F01E0FD9
:1080300001D00520704743F21C729B56002BB4BF41
:1080400003200420704700BF602C002008B5084AB8
:1080500042F26063D356032B03D0BDE808404CF0D6
:108060001FBB044A02214CF003FB042008BD00BFE3
:10807000602C002030431208094B42F62C029A581B
:10808000920701D44BF0B0B944F24832DFED057AE3
:108090009B5800EE103AB8EEC00A20EE270A70474F
:1080A000602C00200AD7233C10B594B0044603A8E6
:1080B0001BF044FE44F69473194AD058036803A990
:1080C0009B6B984750B3247C8BF06CFE059B089308
:1080D000069BDDED047A099300230B930C930D931B
:1080E0000E930F931093119312934FF6F873F8EECB
:1080F000E77A9FED0C7AADF84C3000238DF84E30C6
:10810000962367EE877A019333230790009307AA9B
:1081100057212046CDED0A7A4AF096F814B010BDEA
:10812000602C00200AD7233C70B52DED088B4C4CF9
:1081300044F6947506466059036896B0DB69984723
:10814000002848D045F27C439FED468AE35C012B32
:1081500045D144F27C339FED440AE058483032F078
:108160002BFDB0EE48AAF0EE409AB0EE609AF0EE29
:10817000418AF0EE48AAB0EE48BA40F6F874357C71
:108180008BF010FE01238DF856308C23019333239E
:108190000990F1EE688AB1EE4AAA009309AA552126
:1081A0002846CDED0A9A8DED0B9ACDED0C8A8DED1A
:1081B0000DBACDED0EAA8DED0FAA8DED108A8DEDC5
:1081C000118A8DED128A8DED138A8DED148AADF82A
:1081D00054404AF039F816B0BDEC088B70BD022B44
:1081E00017D163599FED200A5B69186800F5AC70E0
:1081F00032F0E2FCF0EE488AB0EE40BAF0EE60AA4F
:10820000B0EE41AAB0EE489AF0EE489A40F6C77434
:10821000B5E744F27C339FED140AE058483032F061
:10822000CBFC63598DED030A5B69CDED040A186838
:108230008DED051AF0EE409A00F5AC709FED0A0A3C
:10824000B0EE609AF0EE418A32F0B6FC4FF47C64F6
:10825000B0EE40BAF0EE60AAB0EE41AA8FE700BFE0
:10826000602C0020000000000AD7233C2DE9F041DB
:1082700043F21D733E4D2DED068BEB5C99068EB0DF
:1082800006466FD544F274339FED3A0AE8589FEDE5
:108290003A8A3C3032F090FC44F694738DED061A25
:1082A000EC58CDED050A21EE081A23688DED040A7D
:1082B000FDEEC17ADB6BCDED037A204620EE889A85
:1082C00060EE089A96F81080BDF90C70984707EE9A
:1082D000900AF8EEE77A236867EE887A1B6CFDEE69
:1082E000E77A2046CDED037ABDF90C60984707EE9A
:1082F000900AF8EE678ADFED217A68EE888A44F208
:108300007833F4EEE78AF1EE10FAE85858BFF0EE51
:10831000678A77F08BFE2368B0EE40AA5B6C20463C
:1083200098476AEE087A0023CDED097AFCEEE87AE8
:108330000A9317EE903AADF83430B72320EE080ACE
:1083400001931A23009307AA3E214046CDED079AD8
:108350008DED089A8DED0B0AADF83070ADF83260F6
:1083600049F072FF0EB0BDEC068BBDE8F08100BF96
:10837000602C00209F0CB3450AD7233C00FF7F47A9
:1083800038B58B8BCD2B05460C4614D10D4A0E48C3
:1083900044F2DA33D15C53F0EDFC024658B994ED67
:1083A000020ADFED0A7ADFED0A0A014620EE270A0B
:1083B000084802F0FFF921462846BDE838404BF056
:1083C000B7BA00BF602C0020387000200AD7233CC9
:1083D000000000000486002008B590F8FD3153B974
:1083E000806A03681B6A9847B0F5005F28BF4FF4A6
:1083F000005080B208BD002008BD0000014810F008
:10840000F1BC00BF602C002043F22473014AD05C11
:10841000704700BF602C002043F21D73024AD05CFD
:10842000C0F34010704700BF602C002070B544F6C8
:1084300094733C4D2DED028B0646E85891ED018A70
:10844000036888B0DB690C46984740BBBDEEC88A1C
:1084500018EE103ADB0722D4022008B0BDEC028BE4
:1084600070BD44F69473E8580368DB699847044686
:1084700098B9022204212B4805F02CFB00284FD08C
:10848000DFED290A00942346B0EE600A224604A9D3
:1084900026480AF001FF002842D00020DDE761698C
:1084A00020692FF0C1FB0028D6D004A81BF046FCA1
:1084B000D4ED067A9FED1E7A23690693F0EEE77AF3
:1084C000F4EEC77A63690793F1EE10FAC4DC03AAED
:1084D00094F8201030464FF017FD0028BCD09FEDD7
:1084E000157AD4ED067A039A67EE877A04A8FDEE32
:1084F000E77A17EE901A1BF027FC0F4904A81BF02F
:10850000EFFE03460028A7D1DFED070A00900246E0
:10851000B0EE600A04A905480AF0BEFE0028A0D10A
:1085200004209AE7602C002000000000A0800020BA
:10853000001CA2470000C842A46F00208A8B202A9A
:1085400082B004D0C02A1DD002B04FF07DBDD1ED65
:10855000007AF5EEC07AF1EE10FA16DD9FED0C7A96
:10856000F4EEC77AF1EE10FA0FD8FCEEE77A43F298
:10857000CA02CDED017A07499DF804308B520020E4
:1085800002B0704702B0FFF751BF0320F8E700BF09
:1085900000007F43602C002010B52DED028B8CB0C5
:1085A0000023039304930593044613F0C1FE03686C
:1085B00003A95B6F984758B313F0BAFE0368DB6EEC
:1085C0009847F0EE607A8DED060ACDED070AF1EEE0
:1085D000400AB1EE670A8DED081A247C14F1B6FB4F
:1085E00006A8B0EE408A32F0FBF9089BDFED0A7A6C
:1085F0000B93012368EE277A01930C23009309AAB9
:10860000A8212046CDED097A8DED0A0A49F01CFE1D
:108610000CB0BDEC028B10BDE02E65422629F7B5EB
:1086200005460E4612D008D819290DD0232921D08D
:10863000314628464EF004FC16E0372929D0F7D3FE
:10864000A1F13903012BF3D801200DE0FFF7C4FE9F
:108650000446287C4AF096FC12308442297C05D2DC
:10866000084649F06FF8002003B0F0BD1F4842F003
:10867000F9FBE9E7FFF7B0FE0446287C4AF082FCEC
:108680000C30844201D2287CEBE72846FFF784FFB8
:10869000DAE7FFF7A1FE0446287C4AF073FC263097
:1086A0008442297CDCD312486BF06EFD114B1F68AD
:1086B000002FC9D02846FFF78FFE0446287C4AF0D9
:1086C00061FC263084424FF00004DCD302AA31461C
:1086D00022F8024D28464DF0BBF90028B4D0BDF871
:1086E0000620297C384668F093F8ADE7CC7100206D
:1086F000D87A002058960020F0B52DED028B8B8B98
:10870000BD2B87B00D4600F0B78036D8162B00F091
:1087100097800FD8142B00F0BC8000F2BD80112B85
:1087200000F0B480294607B0BDEC028BBDE8F040F4
:1087300050F070B9732B00F0B280B22B00F0D480EF
:10874000202BEFD1D1ED007AF5EEC07AF1EE10FAE0
:1087500040F3C8809FEDCA7AF4EEC77AF1EE10FAC2
:1087600000F2C080FCEEE77A43F2CA02CDED037A54
:10877000C4499DF80C308B527CE040F6D8129342ED
:1087800000F03D811CD8D12B00F00881B3F5967F15
:1087900000F0D780D02BC5D1D1ED007AFCEEE77A7E
:1087A000CDED037ABDF80C10012900F0F080C0F087
:1087B000E480022940F09680B24803F0F9F959E0CC
:1087C0004AF21242934200F02A8115D84AF211422D
:1087D0009342A7D1AB4843F24173C35CD90749D454
:1087E0000222052105F076F9002843D10222A5488E
:1087F000114605F06FF93DE04AF21342934200F052
:1088000057814AF2686293428CD19F4884F004F900
:10881000002867D0D5ED017AFCEEE77ACDED037A3A
:108820009DF80C30012B00F0E480002B00F0DB8081
:10883000022B57D195ED030A934884F041F919E0D2
:10884000D1ED027A9FED917A91ED060A8D4AF0EE14
:10885000E77AF4EEC77A44F69473DFED8D7AD05858
:10886000F1EE10FA4CBF0121002120EE270A10F092
:108870009FFEB8B30020B2E0864834F021FA88B3F6
:10888000022203217F4805F025F9F2E702220521A3
:10889000F8E702220621F5E702220921F2E7D1EDED
:1088A000007AF5EEC07AF1EE10FA1BDB9FED7A7AD2
:1088B000F4EEC77AF1EE10FA14D891ED030ADFED69
:1088C000737AB0EEC07AB4EEE77AF1EE10FAB0EE59
:1088D000678A00F12881F7EE000A2EF0F9FD0028E2
:1088E00040F0218104207AE0D1ED017AF5EEC07AE2
:1088F000F1EE10FAF6DD91ED007ADFED686A9FED9A
:10890000640A604BB4EEE67AF1EE10FA07DD44F249
:108910007C3227EE800A98587AF05CFBAAE7DFEDFC
:10892000606A44F27C32B4EEE67AF1EE10FA27EE99
:10893000800A985802DD7AF03FFB9BE77AF032FB21
:1089400098E7504C43F24873E35893F86830002B93
:10895000C8D002220321204605F0BCF80028C1D06F
:1089600001212046FDF74AFD45F25003E35C012B4F
:1089700080D0484834F090F97CE70021494859F00C
:10898000E9FB46F065F9312146F0C0F872E7454849
:1089900059F0E0FB46F05CF93221F5E7D1ED017AC0
:1089A000FCEEE77ACDED037AD1ED007AFCEEE77AC2
:1089B000CDED047AD1ED047A9DF81020FCEEE77A33
:1089C000CDED057A9DF814300093D1ED030A91EDB9
:1089D000020A9DF80C3001462A480FF05BF807B0F8
:1089E000BDEC028BF0BD43F2AC03264A0020D0540C
:1089F000F5E795ED020A244884F04EF83AE7D1ED08
:108A0000017A2948FCEEE77ACDED037A9DF80C3027
:108A1000012B0CBF0021012168F060F82AE7194FF3
:108A200043F24173F85C10F001047FF423AF43F28A
:108A30004873FB5893F868602EB9012211461B4811
:108A4000FDF794FB16E743F21C730222FB56002B42
:108A500013DA0521384605F03DF800283FF40AAF47
:108A600095ED000ADFED0A7A44F69473012120EEB9
:108A7000270AF85810F09CFDFCE609213846B8E6B4
:108A800000007F43602C0020005D002000000034C7
:108A90000000C842B07C00200000B4439A993940DD
:108AA0003333F33F8C710020AC710020C060002094
:108AB000294B43F241729A5CD2073FF5DBAE43F299
:108AC00048729A5892F86820002A3FF4D3AE43F2D5
:108AD0001C729A56002A05DA012208211F48FDF768
:108AE00001FCC7E6D1ED007A9FED1D7AF0EEE77A42
:108AF000F4EEC77AF1EE10FA07D443F224729B5CCD
:108B000003F0EF03042B3FF4B5AE0222112112480B
:108B100004F0E0FF00283FF469AE40F6C4111148AC
:108B200007F0B0FEA6E6D5ED037AD5ED010A95ED86
:108B3000000A0D48F4EEC87AD5ED027AFDEEE77A28
:108B4000F1EE10FACDED037AACBF012200229DF9BF
:108B50000C1001F02FFE8DE6602C0020C06000207C
:108B600000000034487F00200486002008B591ED05
:108B7000007AF6EE007AB4EEE77AF1EE10FA06DD4E
:108B8000012205210348FDF7ADFB002008BD0420AC
:108B900008BD00BFC06000202DE9F0432DED028B21
:108BA0008A7A4B7A43EA0223CA7A43EA0243872B42
:108BB0009FB005460C4600F2CA80862B80F0F282F8
:108BC000522B00F057810AD8002B00F0E480452B8F
:108BD00000F0F2802146284650F018F8E7E0562BC6
:108BE00000F0F5816D2B00F0BC80542BF2D1CD78D4
:108BF000352D28BF3525352200210EA816F11EFE81
:108C00002A4604F10C010EA816F1F2FD44F6947305
:108C1000BB4AD0580368DB699847002800F0C7803A
:108C20009DF86C50012D03D0EB1F022B00F2BF808A
:108C3000BDF8684014F4E07F00F0B980002314F020
:108C400007070693079308931E4626D19FEDAD6A4A
:108C50009DED107ADDED117ADDED0F6A27EE067AD3
:108C600067EEC67A66EE866AA5F10803012BCDEDA4
:108C7000066A8DED077ACDED087A04D807AA06A911
:108C80009F48FDF7D3FCEB1F022B06D89E487BF0D4
:108C9000A5FE014606A831F065FF0A960B960C96D4
:108CA00014F038061CD19FED976A9DED137ADDED27
:108CB000147ADDED126A27EE067A67EEC67A66EE62
:108CC000866AA5F10803012BCDED0A6A8DED0B7ABA
:108CD000CDED0C7A04D80BAA0AA98948FDF7A6FCA9
:108CE00014F4806240F05181DFED887A9DED180A1E
:108CF00020EE270ADFED837A083D012D20EE270ABA
:108D00008CBF0025012514F4006305BFDFED7F7AD9
:108D1000DDED190ADFED820A60EEA70A04BFDFED80
:108D2000797A60EEA70A002F40F03381002E40F0E0
:108D30004181B3FA83F35B090093B2FA82F30195A0
:108D40005B090AAA06A972480AF044FB2FE0F32B3C
:108D500000F02E820FD8952B00F02082A62B7FF4F6
:108D600039AF0821664810F027F821460246284608
:108D70004BF0CAFD1BE0F62B07D0FFF42BAFA3F599
:108D80001C53113B022B3FF625AF2246297C61483C
:108D90006BF00EFD0BE05A4CCA7942F21063E35EB1
:108DA0009A4204D18AF0FEFF43F23473E0501FB0C0
:108DB000BDEC028BBDE8F083514ECA7942F21063DC
:108DC000F35E9A42F3D1CA780B2A4FF0000728BF0E
:108DD0000B220C310EA80F970E97CDF83F7016F1AD
:108DE00007FD42F20E639DF84220F35E9A42DED107
:108DF000BDF93C80B845DADB8AF0D4FF04468DE843
:108E0000900043F20C31BDF93A209FED430A7158AE
:108E10004FF47A7328464FF045F9012343F210319D
:108E200001930094BDF938209FED3B0A71584FF42F
:108E30007A7328464FF036F98DE8900043F21431EA
:108E40009FED360A71583B46424628464FF02AF9B4
:108E50008DE8900043F218314FF47A73BDF93E204B
:108E60009FED2D0A715828464FF01CF943F23473D8
:108E7000F4509CE7CD78272D28BF272527220021F5
:108E80000EA816F1DBFC2A4604F10C010EA816F11F
:108E9000AFFC1B4D44F69473E8580368DB699847B0
:108EA000002884D09DF85E4014F0C00F7FF47FAF9F
:108EB00042F62C03EB5803F00403002B14BF0126E9
:108EC00000262FD040F21440B7EE001AFFEE000A41
:108ED0009DED160A2EF002FC0F9B0A93109B0B933C
:108EE000119B0C9384F00402129B0D93DDED150A87
:108EF00007483346C2F380020AA909F0D7FC56E7B7
:108F0000602C00200000C842B46F0020E02E6542B3
:108F1000A0800020D87A00200000FA4400007A44A3
:108F2000000000005FED020A9DED160A40F21740B6
:108F3000B7EE001A2EF0D2FBF6EE000AB0EE408A31
:108F40002EF0C6FAF0B9F6EE007AB4EEE78AF1EE4A
:108F500010FA44F27C3309DD78EE677AEB5877EE4D
:108F6000A77A93ED080A27EE800AB5E7EB5877EE6B
:108F7000C87A93ED090A77EEA77AB0EEC00A20EE20
:108F8000670AA9E71FED1A0AA6E700251FED1C0ACC
:108F9000B9E6002E7FF40BAF0121B3FA83F3019100
:108FA00000955B09B2FA82F252090AA996480AF0C2
:108FB000D1F9FCE6B3FA83F3B2FA82F28DE8A000AD
:108FC0005B09520906A990480AF0DAF8EFE6CE7874
:108FD000352E28BF3526352200210EA816F12EFC8D
:108FE000324604F10C010EA816F102FC44F694730B
:108FF000864AD0580368DB69984700283FF4D7AE0B
:10900000BDF8684014F4E07F3FF4D1AE06AE04F042
:10901000070730461AF092FE4FBBDDF83C80DDF8C2
:109020004090404649462EF0FFFD00283FF4BFAE79
:1090300003AA9DF86C1028464EF066FF00283FF406
:10904000B6AE9FED737ADDED117A039B009367EE68
:10905000877A0AADFDEEE77A4A4617EE903A414626
:1090600028461AF08BFE95E80F0086E80F0014F4EE
:1090700080695BD19FED670A9DED188A9DF86C5061
:1090800028EE008A9FED620A083D012D28EE008A35
:109090008CBF0025012514F4006805BFDFED5D0AD3
:1090A000DDED198ADFED5C8A68EEA08A08BFDFED8E
:1090B000580A04F0380408BF68EEA08A002F39D19E
:1090C000002C5BD130461AF069FE03283FF46FAEE6
:1090D000002303A930460393049305931AF05CFF21
:1090E00000283FF464AE9FED4A6ADDED126A9DED03
:1090F000137ADDED147A0195B8FA88F35B0966EE10
:10910000866A27EE067A67EEC67A0093B9FA89F383
:10911000CDED0A6A8DED0B7ACDED0C7AF0EE680A92
:10912000B0EE480A5B090AAA03A90CE600259FEDE8
:109130003A8AB0E7002C7FF43AAE9FED356ADDED58
:10914000126A9DED137ADDED147A0095012366EE27
:10915000866A27EE067A67EEC67A0193B8FA88F334
:10916000CDED0A6A8DED0B7ACDED0C7AF0EE680A42
:109170005B09B0EE480AB9FA89F215E7B8FA88F344
:10918000B9FA89F20095F0EE680A5B09B0EE480A78
:10919000520931461C480AF07FF808E61F4878F06B
:1091A000DDF904E60A46017C1D4841F08FFFFEE52B
:1091B000CD783D2D28BF3D253D2200210EA816F17A
:1091C0003DFB04F10C012A460EA816F111FB0E9C82
:1091D00044B90F9B33B9109B23B901210B4802F00E
:1091E00025F8E4E50AA81AF0A9FD0F9B0D930A22C1
:1091F000109B064893FBF2F30AA901220C940B93EF
:1092000001F098FFD3E500BFA0800020602C002073
:109210000000C842E02E654200000000447A0020B1
:10922000CC710020F0B544F27436044680599FEDAD
:109230002E0A8BB03C3031F0BFFC0AAACDED080AF3
:109240008DED091A8DED070A12E9070001AD85E8D9
:10925000070004AB9DED030A83E807002EF0D4F964
:1092600004F5EC50294608308DED030A44F27837B6
:1092700012F0CEFA43F2487143F25C406158205834
:10928000E359A25912F0BEFB4FF4805120460FF073
:1092900093FD30B3A05903689B68984704F54C557B
:1092A0001C3500F16802A321284643F0ABFFA0590A
:1092B0000368DB689847A42100F16802284643F060
:1092C000A1FFA05903681B699847A52100F1680216
:1092D000284643F097FFE259A6219032284643F0F2
:1092E00091FF0BB0F0BD00BF9F0CB34510B5044615
:1092F00004F5EC5415F064F9083415F055F92046DE
:1093000012F0F4F92046BDE8104012F019BB00003D
:1093100070B51B2588B004462A46002101A816F125
:109320008DFAA3238DF8043095238DF8053006239C
:109330008DF806308AF03EFD43F24876CDF80700FE
:10934000A059CDF80B10D0F8D830CDF80F30CC3074
:1093500047F0A6FA0368CDF8133004F568531C33C0
:1093600004F54C501B68CDF81730A3592A46D3F8A2
:10937000DC30CDF81B3001A91C3044F081FE08B070
:1093800070BD00007FB50E464FF6FF7104461546CE
:109390000FF012FDE8B110220021684616F14EFAD6
:1093A000A3238DF8003095238DF8013003238DF829
:1093B00002308AF0FFFCCDF8030004F54C50CDF8E4
:1093C0000710102269461C308DF80B60039544F09D
:1093D000A9FE04B070BD00007FB50E464FF6FF71C8
:1093E000044615460FF0E8FCE8B11022002168465B
:1093F00016F124FAA3238DF8003095238DF801305F
:1094000004238DF802308AF0D5FCCDF8030004F572
:109410004C50CDF80710102269461C308DF80B60B7
:10942000039544F07FFE04B070BD000070B52DEDD3
:10943000048B182486B0224605460E466846002155
:10944000B0EE409AF0EE608AB0EE418A16F1F6F97D
:10945000A3238DF8003095238DF8013007238DF874
:1094600002308AF0A7FCCDF8030005F54C50CDF88A
:109470000710224669461C308DF80B608DED039A6B
:10948000CDED048A8DED058A44F0FAFD06B0BDEC01
:10949000048B70BD2DE9F04143F2447390F8F1253F
:1094A000C15C382303FB0202044692F8193601F02E
:1094B000010123B192F81A360BB192F81B3699428A
:1094C00010D043F24475625D63F30002625545F0CB
:1094D000BFFB635D13F0010F0CBF042200221221B9
:1094E00045F034FB43F2447504F5E7684FF00001A2
:1094F0004046665D1DF064FD7C27C0B207FB00405E
:10950000C6F3400690F8C137B34218D04FF00001BF
:1095100040461DF055FDC0B207FB0040635D90F86A
:10952000C12762F34103635545F092FB635D13F07D
:10953000020F0CBF04220022032145F007FB43F277
:10954000447294F81015A35CC3F38100884209D0DB
:1095500061F38303A35445F07BFB4321BDE8F04155
:1095600045F0D4BABDE8F08130B52DED0A8B2F243B
:109570008DB02246054600216846B0EE40CAF0EEA6
:1095800060BAB0EE41BAF0EE61AAB0EE42AAF0EED7
:10959000629AB0EE439AF0EE638AB0EE448A16F116
:1095A0004DF9A3238DF8003095238DF801300B235E
:1095B0008DF802308AF0FEFB1CEE103ACDF80B302D
:1095C0001BEE903ACDF80F301BEE103ACDF8133069
:1095D0001AEE903ACDF817301AEE103ACDF81B304B
:1095E00019EE903ACDF81F3019EE103ACDF823302D
:1095F00018EE903ACDF80300CDF8273005F54C5021
:1096000018EE103ACDF80710224669461C30CDF806
:109610002B3044F035FD0DB0BDEC0A8B30BD0000A1
:1096200070B52DED088B28248AB0224605460E46DB
:1096300068460021B0EE40BAF0EE60AAB0EE41AA52
:10964000F0EE619AB0EE429AF0EE628AB0EE438A92
:1096500016F1F4F8A3238DF8003095238DF801302E
:109660000C238DF802308AF0A5FBCDF8030005F538
:109670004C50CDF80710224669461C308DF80B601F
:109680008DED03BACDED04AA8DED05AACDED069AB8
:109690008DED079ACDED088A8DED098A44F0F0FC36
:1096A0000AB0BDEC088B70BD30B544F6E453C51864
:1096B000C35695B00446002B5CD00023694628466B
:1096C000049305930693009301930293039377F019
:1096D00019FF02A9284677F02BFF04A9284677F046
:1096E00001FF3222002107A816F1A8F8A3238DF864
:1096F0001C3095238DF81D3009238DF81E308AF01B
:1097000059FB44F67063CDF81F00E35CCDF82310DD
:1097100028468DF8273077F0A5FE009BCDF829303C
:10972000019BCDF82D30029BCDF83130039BCDF855
:109730003530049BCDF83930059BCDF83D30069B84
:10974000CDF8413044F610638DF82800E358CDF889
:10975000453044F63C6304F54C50E358CDF84930AD
:1097600044F6E7533222E35C8DF84D3007A91C30F4
:1097700044F086FC15B030BD2DE9F04124268AB0B6
:10978000154607463246884601A800211C4616F1B8
:1097900055F8A3238DF8043095238DF805300A235E
:1097A0008DF806308AF006FB2B6804936B680593EE
:1097B000AB6806932368CDF80700079307F54C5074
:1097C0006368CDF80B1008933246A3688DF80F80BC
:1097D00001A91C30099344F053FC0AB0BDE8F081A4
:1097E00038B5044600F54C550FF008FB1C35024611
:1097F0000B49284644F096FD43F225732846E25C67
:1098000043F22473E15C44F0AFFD04F5EC50083002
:1098100012F010FC04F53170BDE8384020F09EBF16
:109820002443120800F54C50952202491C3045F0A3
:1098300021B800BF48451208F0B52DED028B93B05A
:1098400012A90446002300F58A4041F8403D012258
:109850006C3041F0EBF808B94D4B029344F6947329
:10986000DFED4C8AE0580368DB689847002840F039
:109870008B8044F27833E358D3ED527A87EEA88A8E
:10988000D3ED5B7AFDEEE77ACDED017ABDF90460A8
:1098900004F54F57383703A938460FF049F818B97F
:1098A00045F0D6F93A4B03933722002104A815F16D
:1098B000C5FFA3238DF8103095238DF811308AF061
:1098C00079FA43F2487544F27433CDF81300E35843
:1098D0006059D3F8AC20D3F8B030CDF81710383039
:1098E000CDF81B20CDF81F3046F0DAFF0346B7EE67
:1098F000001ADFED290A93ED000A6A202DF0EEFE32
:1099000010EE103A6059CDF8233003681B68984771
:1099100010EE103A04F58645CDF82730543518EE90
:10992000103A2846CDF82B307BF05CF880EE280A00
:10993000384610EE103ACDF82F3044F22033E35879
:10994000CDF83330039BCDF837300FF003F810EE2D
:10995000103A2846CDF83B30029BCDF83F30ADF8A9
:1099600043607BF043F8FDEEC07A04F54C5017EEEF
:10997000903A372204A91C30ADF8453044F080FB02
:1099800013B0BDEC028BF0BD00269FED038A7FE78C
:109990002292CA7F0000C84200000000B0F90030E7
:1099A0009FED097A01805B1A07EE903AF8EEE77AAC
:1099B000F0EEE77AF4EEC77AF1EE10FA4CBF01212F
:1099C00000213DF0C7BA00BF00000034F8B5354DA6
:1099D0004560044608306CF0F7F904F1600061F06E
:1099E0001BFC0023C4F88030C4F88430C4F88830ED
:1099F0002D4AC4F8A8302D4BC4F8A020C4F8AC30D0
:109A00004FF080422A4BC4F8B03005F69421C4F8D8
:109A1000A42004F1B40080F0D1FB04F5BA705EF02C
:109A200065FF04F5D67050F01BFC224F224BC4F8A2
:109A3000AC3104F5E476002570194FF0CBFD775179
:109A40002835B5F5207FF7D104F5896051F02AF962
:109A5000002104F516607FF0BBFF184D04F521606E
:109A600082F0CAFFC4F8305A04F6382083F0AAFB0B
:109A7000A5F5DF63C4F8C03A04F6C4208AF06CFE92
:109A800004F6FC2063F04CFEA5F5EA73C0352046D1
:109A9000C4F8503CC4F85C5C09493EF0B7F9204674
:109AA000F8BD00BFA03E00200000C8410AD7233CFB
:109AB0000000E040488C1208608C1208C884002026
:109AC000F4741208F0B52DED028B604C60499FEDE7
:109AD000618AADF5437D0746902232A815F188FED4
