:020000040800F2
:10400000000600205D53000809F406080DF40608B8
:1040100075F406080DF4060841F406085F5300081D
:104020005F5300085F5300085F5300089DBB0B08F7
:104030005F5300085F5300085F5300085F53000898
:104040005F5300085F5300085F5300085F53000888
:104050005F5300085F530008F1180C081D190C0885
:1040600049190C0875190C08A1190C08F5C10B08A1
:104070001DC20B0849C20B0875C20B08A1C20B0870
:10408000C9C20B08F5C20B0891C00B08F5EF060872
:1040900025F0060835F006085F530008CD190C0816
:1040A0005F5300085F5300085F5300085F53000828
:1040B0005F5300085F5300085F5300082DCB0B08C7
:1040C00041CB0B0865CB0B0879CB0B085F5300087D
:1040D0005F5300085F53000885DC0B0899DC0B0870
:1040E000351A0C085F5300085F5300085F5300083F
:1040F0005F5300085F5300085F53000821C30B089B
:104100005F53000871CF0B08D9200C085F530008DB
:10411000ADDC0B085F5300085F5300085F530008D5
:104120004DC30B0875C30B08A1C30B08CDC30B0807
:10413000F9C30B085F5300085F5300085F53000882
:104140005F5300085F5300085F530008C5140C0854
:1041500021C40B084DC40B0879C40B085F53000839
:104160005F5300085F5300085F5300085F53000867
:104170005F5300085F5300085F5300085F53000857
:104180005F5300085F5300085F5300085F53000847
:104190005F5300085F5300085F5300085F53000837
:1041A0005F5300085F5300085F5300085F53000827
:1041B0005F5300085F5300085F5300085F53000817
:1041C0005F5300085F5300085F5300085F53000807
:1041D0005F5300085F5300085F5300085F530008F7
:1041E0007975000879A000080516010819A40108CE
:1041F00029B10108D1BC010861DA010805E2010812
:1042000079300208994F0208E5A102087D4A0308A7
:10421000E59B0308ED9E030875C3030899C60308D0
:10422000E1D3030891FB0308BD5904089D6104080C
:10423000ED64040891C10408E5D704085178050825
:1042400031B3050849BE050875CF0508B9A40608AD
:1042500045F0060881F2060819F806084D3E0708E1
:10426000895D0708D5620708917107083D8707082F
:104270006D870708A1AE070835CA070849ED07088A
:1042800001EF0708292208089189080835F909086B
:10429000C9010A08ED3B0A080D730A0849BA0A0861
:1042A000D5C00A0811E00A08BD060B08000000008E
:1042B000D0400B1CD1409C46203AD3401843524278
:1042C0006346934018437047D0400B1C1141203A7D
:1042D00003D49C461341184363465242934018430B
:1042E000704700BF9140031C90409C46203A934089
:1042F000194352426346D3401943704781F000414D
:1043000002E000BF83F0004330B54FEA41044FEABA
:10431000430594EA050F08BF90EA020F1FBF54EA55
:10432000000C55EA020C7FEA645C7FEA655C00F0F1
:10433000E2804FEA5454D4EB5555B8BF6D420CDDC2
:104340002C4480EA020281EA030382EA000083EA45
:10435000010180EA020281EA0303362D88BF30BDE5
:1043600011F0004F4FEA01314FF4801C4CEA11313B
:1043700002D0404261EB410113F0004F4FEA03339A
:104380004CEA133302D0524263EB430394EA050F25
:1043900000F0A780A4F10104D5F1200E0DDB02FA94
:1043A0000EFC22FA05F2801841F1000103FA0EF228
:1043B000801843FA05F359410EE0A5F120050EF1EE
:1043C000200E012A03FA0EFC28BF4CF0020C43FA1F
:1043D00005F3C01851EBE37101F0004507D54FF02C
:1043E000000EDCF1000C7EEB00006EEB0101B1F57C
:1043F000801F1BD3B1F5001F0CD349085FEA3000C2
:104400004FEA3C0C04F101044FEA445212F5800FCC
:1044100080F09A80BCF1004F08BF5FEA500C50F169
:10442000000041EB045141EA050130BD5FEA4C0C4C
:10443000404141EB010111F4801FA4F10104E9D1D5
:1044400091F0000F04BF01460020B1FA81F308BFCC
:104450002033A3F10B03B3F120020CDA0C3208DD98
:1044600002F1140CC2F10C0201FA0CF021FA02F173
:104470000CE002F11402D8BFC2F1200C01FA02F1E3
:1044800020FA0CFCDCBF41EA0C019040E41AA2BF08
:1044900001EB0451294330BD6FEA04041F3C1CDAD0
:1044A0000C340EDC04F11404C4F1200220FA04F0F0
:1044B00001FA02F340EA030021FA04F345EA03019A
:1044C00030BDC4F10C04C4F1200220FA02F001FA5C
:1044D00004F340EA0300294630BD21FA04F02946DE
:1044E00030BD94F0000F83F4801306BF81F4801177
:1044F0000134013D4EE77FEA645C18BF7FEA655CEA
:1045000029D094EA050F08BF90EA020F05D054EABB
:10451000000C04BF1946104630BD91EA030F1EBFC0
:104520000021002030BD5FEA545C05D140004941C4
:1045300028BF41F0004130BD14F580043CBF01F5B7
:10454000801130BD01F0004545F0FE4141F470019D
:104550004FF0000030BD7FEA645C1ABF1946104678
:104560007FEA655C1CBF0B46024650EA013406BF79
:1045700052EA033591EA030F41F4002130BD00BF38
:1045800090F0000F04BF0021704730B54FF48064F5
:1045900004F132044FF000054FF0000150E700BF76
:1045A00090F0000F04BF0021704730B54FF48064D5
:1045B00004F1320410F0004548BF40424FF00001C2
:1045C0003EE700BF42004FEAE2014FEA31014FEA05
:1045D00002701FBF12F07F4393F07F4F81F0605154
:1045E000704792F0000F14BF93F07F4F704730B5C3
:1045F0004FF4607401F0004521F0004120E700BF56
:1046000050EA010208BF704730B54FF000050AE0DC
:1046100050EA010208BF704730B511F0004502D5DD
:10462000404261EB41014FF4806404F132045FEADF
:10463000915C3FF4DCAE4FF003025FEADC0C18BF84
:1046400003325FEADC0C18BF033202EBDC02C2F17A
:10465000200300FA03FC20FA02F001FA03FE40EA0C
:104660000E0021FA02F11444C1E600BF70B54FF00C
:10467000FF0C4CF4E06C1CEA11541DBF1CEA1355EE
:1046800094EA0C0F95EA0C0F00F0DEF82C4481EA56
:10469000030621EA4C5123EA4C5350EA013518BF76
:1046A00052EA033541F4801143F4801338D0A0FB63
:1046B00002CE4FF00005E1FB02E506F00042E0FB10
:1046C00003E54FF00006E1FB03569CF0000F18BF16
:1046D0004EF0010EA4F1FF04B6F5007F64F54074BE
:1046E00004D25FEA4E0E6D4146EB060642EAC62151
:1046F00041EA55514FEAC52040EA5E504FEACE2EBE
:10470000B4F1FD0C88BFBCF5E06F1ED8BEF1004FC0
:1047100008BF5FEA500E50F1000041EB045170BD3C
:1047200006F0004646EA010140EA020081EA030180
:10473000B4EB5C04C2BFD4EB0C0541EA045170BD7C
:1047400041F480114FF0000E013C00F3AB8014F1F6
:10475000360FDEBF002001F0004170BDC4F100043F
:10476000203C35DA0C341BDC04F11404C4F12005C0
:1047700000FA05F320FA04F001FA05F240EA02001B
:1047800001F0004221F0004110EBD37021FA04F651
:1047900042EB06015EEA430E08BF20EAD37070BD0B
:1047A000C4F10C04C4F1200500FA04F320FA05F06A
:1047B00001FA04F240EA020001F0004110EBD3706C
:1047C00041F100015EEA430E08BF20EAD37070BDDC
:1047D000C4F1200500FA05F24EEA020E20FA04F3B5
:1047E00001FA05F243EA020321FA04F001F0004164
:1047F00021FA04F220EA020000EBD3705EEA430ED5
:1048000008BF20EAD37070BD94F0000F0FD101F003
:104810000046400041EB010111F4801F08BF013C3C
:10482000F7D041EA060195F0000F18BF704703F07A
:104830000046520043EB030313F4801F08BF013D01
:10484000F7D043EA0603704794EA0C0F0CEA1355BD
:1048500018BF95EA0C0F0CD050EA410618BF52EA77
:104860004306D1D181EA030101F000414FF000007D
:1048700070BD50EA410606BF1046194652EA43068B
:1048800019D094EA0C0F02D150EA013613D195EAFF
:104890000C0F05D152EA03361CBF104619460AD147
:1048A00081EA030101F0004141F0FE4141F4700151
:1048B0004FF0000070BD41F0FE4141F4780170BD41
:1048C00070B54FF0FF0C4CF4E06C1CEA11541DBFA6
:1048D0001CEA135594EA0C0F95EA0C0F00F0A7F8A8
:1048E000A4EB050481EA030E52EA03354FEA0131D5
:1048F00000F088804FEA03334FF0805545EA1313E8
:1049000043EA12634FEA022245EA111545EA1065AF
:104910004FEA00260EF000419D4208BF964244F146
:10492000FD0404F5407402D25B084FEA3202B61A65
:1049300065EB03055B084FEA32024FF480104FF439
:10494000002CB6EB020E75EB030E22BFB61A7546AD
:1049500040EA0C005B084FEA3202B6EB020E75EB40
:10496000030E22BFB61A754640EA5C005B084FEAA8
:104970003202B6EB020E75EB030E22BFB61A754675
:1049800040EA9C005B084FEA3202B6EB020E75EB80
:10499000030E22BFB61A754640EADC0055EA060E41
:1049A00018D04FEA051545EA16754FEA06164FEA84
:1049B000C30343EA52734FEAC2025FEA1C1CC0D130
:1049C00011F4801F0BD141EA00014FF000004FF0BD
:1049D000004CB6E711F4801F04BF01430020B4F17E
:1049E000FD0C88BFBCF5E06F3FF6AFAEB5EB030C36
:1049F00004BFB6EB020C5FEA500C50F1000041EB33
:104A0000045170BD0EF0004E4EEA113114EB5C04FF
:104A1000C2BFD4EB0C0541EA045170BD41F48011D2
:104A20004FF0000E013C90E645EA060E8DE60CEADA
:104A3000135594EA0C0F08BF95EA0C0F3FF43BAFF7
:104A400094EA0C0F0AD150EA01347FF434AF95EAAE
:104A50000C0F7FF425AF104619462CE795EA0C0F92
:104A600006D152EA03353FF4FDAE1046194622E75F
:104A700050EA410618BF52EA43067FF4C5AE50EA39
:104A800041047FF40DAF52EA43057FF4EBAE12E729
:104A90004FF0FF3C06E000BF4FF0010C02E000BF0A
:104AA0004FF0010C4DF804CD4FEA410C7FEA6C5CED
:104AB0004FEA430C18BF7FEA6C5C1BD001B050EA90
:104AC000410C0CBF52EA430C91EA030F02BF90EA7B
:104AD000020F0020704710F1000F91EA030F58BF3A
:104AE000994208BF90422CBFD8176FEAE37040F09C
:104AF000010070474FEA410C7FEA6C5C02D150EA3A
:104B0000013C07D14FEA430C7FEA6C5CD6D152EAF4
:104B1000033CD3D05DF8040B704700BF84461046B9
:104B200062468C461946634600E000BF01B5FFF7B8
:104B3000B7FF002848BF10F1000F01BD4DF808ED88
:104B4000FFF7F4FF0CBF012000205DF808FB00BF59
:104B50004DF808EDFFF7EAFF34BF012000205DF8B3
:104B600008FB00BF4DF808EDFFF7E0FF94BF012000
:104B700000205DF808FB00BF4DF808EDFFF7CEFF01
:104B800094BF012000205DF808FB00BF4DF808ED40
:104B9000FFF7C4FF34BF012000205DF808FB00BF11
:104BA0004FEA410C7FEA6C5C02D150EA013C0AD129
:104BB0004FEA430C7FEA6C5C02D152EA033C02D11B
:104BC0004FF0000070474FF0010070474FEA41027C
:104BD00012F5001215D211D56FF47873B3EB62524F
:104BE00012D94FEAC12343F0004343EA505311F076
:104BF000004F23FA02F018BF404270474FF0000008
:104C0000704750EA013005D111F0004008BF6FF045
:104C1000004070474FF00000704700BF4A0011D2BB
:104C200012F5001211D20DD56FF47873B3EB625206
:104C30000ED44FEAC12343F0004343EA505323FA12
:104C400002F070474FF00000704750EA013002D187
:104C50004FF0FF3070474FF0000070474FEA4102BD
:104C6000B2F1E04324BFB3F5001CDCF1FE5C0DD9CA
:104C700001F0004C4FEAC0024CEA5070B2F1004F14
:104C800040EB830008BF20F00100704711F0804F17
:104C900021D113F13872BCBF01F00040704741F4DC
:104CA00080114FEA5252C2F11802C2F1200C10FAE0
:104CB0000CF320FA02F018BF40F001004FEAC123C4
:104CC0004FEAD32303FA0CFC40EA0C0023FA02F368
:104CD0004FEA4303CCE77FEA625307D150EA01333E
:104CE0001EBF4FF0FE4040F44000704701F000400E
:104CF00040F0FE4040F40000704700BF80F00040EC
:104D000002E000BF81F0004142001FBF5FEA4103A3
:104D100092EA030F7FEA226C7FEA236C6AD04FEAA3
:104D20001262D2EB1363C1BFD218414048404140E8
:104D3000B8BF5B42192B88BF704710F0004F40F49A
:104D4000000020F07F4018BF404211F0004F41F4B6
:104D5000000121F07F4118BF494292EA030F3FD082
:104D6000A2F1010241FA03FC10EB0C00C3F1200395
:104D700001FA03F100F0004302D5494260EB400024
:104D8000B0F5000F13D3B0F1807F06D340084FEA8F
:104D9000310102F10102FE2A51D2B1F1004F40EB84
:104DA000C25008BF20F0010040EA030070474900EC
:104DB00040EB000010F4000FA2F10102EDD1B0FAB7
:104DC00080FCACF1080CB2EB0C0200FA0CF0AABFAC
:104DD00000EBC25052421843BCBFD040184370474A
:104DE00092F0000F81F4000106BF80F40000013250
:104DF000013BB5E74FEA41037FEA226C18BF7FEA27
:104E0000236C21D092EA030F04D092F0000F08BF68
:104E10000846704790EA010F1CBF0020704712F04F
:104E20007F4F04D1400028BF40F00040704712F18E
:104E300000723CBF00F50000704700F0004343F0F3
:104E4000FE4040F4000070477FEA226216BF084629
:104E50007FEA23630146420206BF5FEA412390EAEC
:104E6000010F40F4800070474FF0000304E000BFE2
:104E700010F0004348BF40425FEA000C08BF704793
:104E800043F0964301464FF000001CE050EA010257
:104E900008BF70474FF000030AE000BF50EA01026C
:104EA00008BF704711F0004302D5404261EB410159
:104EB0005FEA010C02BF84460146002043F0B6437E
:104EC00008BFA3F18053A3F50003BCFA8CF2083AA3
:104ED000A3EBC25310DB01FA02FC634400FA02FCAC
:104EE000C2F12002BCF1004F20FA02F243EB0200B3
:104EF00008BF20F00100704702F1200201FA02FC15
:104F0000C2F1200250EA4C0021FA02F243EB020007
:104F100008BF20EADC7070477BB972B90029BEBFB8
:104F200000204FF0004106E008BF00281CBF6FF0D2
:104F300000414FF0FF3000F00FBAADF1080C6DE901
:104F400004CE002909DB002B1ADB00F097F8DDF80E
:104F500004E0DDE9022304B07047404261EB410107
:104F6000002B1BDB00F08AF8DDF804E0DDE902230A
:104F700004B0404261EB4101524263EB430370478E
:104F8000524263EB430300F079F8DDF804E0DDE919
:104F9000022304B0404261EB41017047524263EB8F
:104FA000430300F06BF8DDF804E0DDE9022304B010
:104FB000524263EB4303704753B94AB9002908BF13
:104FC00000281CBF4FF0FF314FF0FF3000F0C4B994
:104FD000ADF1080C6DE904CE00F050F8DDF804E006
:104FE000DDE9022304B07047430803F05533C01ACB
:104FF000830803F0333300F03330184400EB101013
:1050000000F00F3000EB002000EB0040000E704776
:1050100080EA104080EA102080EA101046F69613CD
:1050200000F00F0043FA00F000F00100704700BFED
:10503000D0B5FFF7C7FA00220E4B06460F46FFF722
:1050400015FBFFF7EBFD0446FFF79AFA00220A4B27
:10505000FFF70CFB02460B4630463946FFF752F984
:10506000FFF7DCFD2346002242EA00021046194603
:10507000D0BD00BF0000F03D0000F0412DE9F04739
:105080008C460D460446089E002B51D18A42174695
:105090006DD9B2FA82FEBEF1000F0BD0CEF1200C1A
:1050A00001FA0EF520FA0CFC02FA0EF74CEA050C98
:1050B00000FA0EF44FEA174A250CBCFBFAF81FFA67
:1050C00087F90AFB18CC45EA0C4508FB09F3AB420B
:1050D0000AD9ED1908F1FF3280F02381AB4240F28A
:1050E0002081A8F102083D44ED1AA4B2B5FBFAF004
:1050F0000AFB105544EA054400FB09F9A14509D90A
:10510000E41900F1FF3380F00A81A14540F20781E4
:1051100002383C44A4EB090440EA08400021002E78
:1051200061D024FA0EF4002334607360BDE8F08788
:105130008B4207D9002E54D0002186E82100084672
:10514000BDE8F087B3FA83F1002940F08E80AB42CE
:1051500002D3824200F2FA80841A65EB0305012033
:10516000AC46002E3FD086E81010BDE8F08712B99B
:105170000127B7FBF2F7B7FA87FEBEF1000F34D173
:10518000EB1B3A0C1FFA87FC0121B3FBF2F8250C4C
:1051900002FB183345EA03450CFB08F3AB4207D981
:1051A000ED1908F1FF3002D2AB4200F2D180804607
:1051B000ED1AA3B2B5FBF2F002FB105543EA054429
:1051C0000CFB00FCA44507D9E41900F1FF3302D21F
:1051D000A44500F2B8801846A4EB0C0440EA08404D
:1051E0009DE731463046BDE8F087CEF1200405FA50
:1051F0000EF307FA0EF720FA04F83A0C25FA04F435
:1052000048EA0308B4FBF2F14FEA184502FB1144E7
:105210001FFA87FC45EA044501FB0CF3AB4200FA98
:105220000EF409D9ED1901F1FF3080F08A80AB420C
:1052300040F2878002393D44EB1A1FFA88F5B3FB30
:10524000F2F002FB103345EA034500FB0CF3AB42DE
:1052500007D9ED1900F1FF386FD2AB426DD9023892
:105260003D44EB1A40EA01418FE7C1F1200722FAE1
:1052700007F88B4005FA01F448EA030320FA07FE19
:105280004FEA134CFD404EEA040EB5FBFCF94FEA21
:105290001E440CFB19551FFA83F844EA054509FB27
:1052A00008F4AC4202FA01F200FA01FA08D9ED184A
:1052B00009F1FF3043D2AC4241D9A9F102091D44A2
:1052C0002D1B1FFA8EFEB5FBFCF00CFB10554EEAB1
:1052D000054400FB08F8A04507D9E41800F1FF35A4
:1052E00029D2A04527D902381C4440EA0940A4EB42
:1052F0000804A0FB02894C45C6464D4615D312D082
:1053000056B1BAEB0E0364EB050404FA07F7CB4081
:105310001F43CC40376074600021BDE8F087184619
:10532000F8E69046E0E6C245EAD2B8EB020E69EB39
:1053300003050138E4E72846D7E7404691E7814670
:10534000BEE7014678E702383C4445E7084608E7EF
:10535000A8F102083D442BE7704700BF02E000F0CF
:1053600000F8FEE772B6394880F30888384880F3C1
:10537000098838484EF60851CEF20001086040F224
:105380000000CCF200004EF63471CEF2000108604D
:10539000BFF34F8FBFF36F8F40F20000C0F2F000F9
:1053A0004EF68851CEF200010860BFF34F8FBFF375
:1053B0006F8F4FF00000E1EE100A4EF63C71CEF216
:1053C00000010860062080F31488BFF36F8FBBF0E4
:1053D00041FDBAF0DFFE4FF055301F491B4A9142A4
:1053E0003CBF41F8040BFAE71C49194A91423CBF03
:1053F00041F8040BFAE71A491A4A1B4B9A423EBF7E
:1054000051F8040B42F8040BF8E700201749184A3A
:1054100091423CBF41F8040BFAE7BBF01FFDBAF024
:1054200015FF144C144DAC4203DA54F8041B8847A2
:10543000F9E702F091F8114C114DAC4203DA54F83F
:10544000041B8847F9E7BBF007BD000000060020F9
:10545000002200200040000800000020000600207C
:10546000E8F40E080022002000260020002600207C
:1054700010310120E0410008AC420008AC420008B5
:10548000AC4200082DE9F04F2DED108AC1F80CD088
:10549000C3689D46BDEC108ABDE8F08F002383F3FE
:1054A00011882846A0470020BAF0A6FCBAF08CFA72
:1054B00000DFFEE710F8012B11F8013B012A28BF9D
:1054C0009A42F7D0D01A7047034613F8012B002AEE
:1054D000FBD1181A01387047074A13780133DBB241
:1054E0001D2B98BF137003684FF0000188BF117027
:1054F0009B6888BF0121184700220020F0B583680F
:10550000012B91B005460E4676D0990674D4012041
:1055100011B0F0BD92ED017AD3ED0A7AB4EEE77ADC
:10552000F1EE10FA00F3A08041F60E33E35E002B9B
:1055300006DC5B4B32462021284663F009FF4EE033
:1055400041F62C43E25C0D2A9DBF4FF42153D3401A
:10555000DB430123DA0700F18D80524BEAE7524822
:105560000DF022FB012829D142F65863E0585DF086
:10557000DFFA012804D002280FD0F8B94B4BD9E745
:1055800042F27853E35CDB0705D51921484837F030
:10559000CFF9002878D1474BCCE742F6C473E356E5
:1055A0000BB9454BC6E703AA0DF10A01434839F090
:1055B000FDF9BDF80A300BB1414BBBE742F6546030
:1055C00003AF32233A463F4920585BF07FF940B998
:1055D00000973D4B32462021284663F0B9FE00205B
:1055E00096E742F6506032233A46384920585AF03E
:1055F0001FF800288CD1EBE7354C41F61233E35607
:105600007BB142F2D44241F61433A258E35EB2F9C0
:105610000A1003F10A02914228DD40F28D329342D2
:1056200024DD2C4B93F90030022B05D12A4B324656
:105630002021284663F08CFE41F6D22341F65832F1
:10564000E35AA3F57A739BB2934211D842F65063A2
:10565000224AE35892ED007AD3ED097AB4EEE77A64
:10566000F1EE10FA7FF756AF1D4B63E71D4B61E774
:105670001D4B5FE742F6A403E0585FF071FD002880
:105680007FF46DAF194B55E741F6E823192108481F
:10569000E75E37F05DF9874290DD154B4AE700BFC2
:1056A000AC8B0C08C78C0C08AC640020D78B0C08A2
:1056B000E0370020E78C0C08238C0C08CC55002028
:1056C000478C0C08708C0C08748C0C08868C0C08A9
:1056D0000826002008410020848B0C084C41002043
:1056E000AD8C0C088A8C0C089D8C0C08C18B0C08A6
:1056F000FA8B0C082DE9F743DFF8CC8042F6A405BD
:10570000064658F8053093F86A400F4634B92A4ADD
:1057100063F096FF204603B0BDE8F083202163F0DC
:1057200005FE0028F6D018F08FF918F08DF990F8E2
:105730002030032BEED158F805005FF065FCB0F582
:105740007A7F06D01D4A3946304663F079FF00243F
:10575000E0E758F805005FF065FCB0F5FA6F01D09E
:10576000174AF0E7002054F015FE814658F805006E
:1057700003681B6A98470022B9F8E4E11146134612
:105780004FF0010C102A0ED00CFA02F5284202F15B
:105790000102F7D01EEA050FF4D10133DBB2002974
:1057A000F0D1D1B2EEE7002BB4D00091054A3946D2
:1057B000304663F045FFCAE7EC8A0C080A8B0C08F8
:1057C0002D8B0C08508B0C080826002013B583681D
:1057D000012B0A4604D05B0602D4012002B010BDA2
:1057E0000B4B41F6123159560029F6D042F2D44102
:1057F0005C5841F61431595EB4F906309942ECDD3B
:10580000044B00934021044B63F0A2FD0020E5E728
:1058100008260020E08D0C0857D40D082DE9F04330
:1058200099B00F46064614F0C9FB05463222002106
:105830000BA8BFF061FC2B6832229B6A0BA928469B
:105840009847044648B90BAB334A3946304663F0B3
:10585000F7FE204619B0BDE8F08343F6EC03DFF80D
:10586000CC8058F8030003689B68984781462B4812
:1058700052F0D2F9B9F1000F0AD0404610F0E8F921
:1058800078B9274A3946304663F0DAFE0024E0E76B
:1058900010F0060FDDD0404610F0DAF908B9214AC1
:1058A000F0E703A9284614F0A5FA28B19DF80D30B9
:1058B0005B0601D51C4AE5E70023089309930A9388
:1058C0002B6807AA0DF120090192CDF80090D3F8BA
:1058D000E88005AA06AB04A92846C047DFF858802F
:1058E000D8ED007AF5EEC07AF1EE10FA09DD4846FF
:1058F0002DF01EF8D8ED007AB4EEE70AF1EE10FABA
:1059000008DA05F59E71094804F0EAFD0028A0D0E8
:10591000074AB7E7074AB5E7648D0C08BC54002076
:105920006D8D0C08848D0C08AA8D0C0808260020AB
:10593000B88D0C08CA8D0C083841002008B5064AFD
:1059400042F69D03D35C9B0704D5044A63F078FEBE
:10595000002008BD012008BD082600200C8D0C0881
:1059600070B543F6EC030B4C0546E0580368DB6862
:105970000E46984710B10124204670BD204610F015
:1059800079F904460028F6D1034A3146284663F0E7
:1059900057FEF1E708260020288A0C0870B5054656
:1059A0000E46FFF73BFF064B0446D87131462846AA
:1059B000FFF7D6FF002814BF2046002070BD00BFAF
:1059C0008D6900202DE9F04142F6A4022B4FBA5810
:1059D00092F8684005460E46002C45D147F0F4FA8F
:1059E000202147F075F930B147F0EEFA1F2147F05A
:1059F0006FF900283BD142F67A03FB5C03F01403F5
:105A0000142B04D11E4A3146284663F019FEAB68B8
:105A100033B92B68314628461B6BBDE8F041184767
:105A20003146284664F014FB314604462846FFF709
:105A300065FD314604402846FFF75CFEE4B20440B1
:105A400031462846FFF7C2FE314604402846FFF79C
:105A500075FF314604402846FFF782FF3146044077
:105A6000284664F017FC04402046BDE8F081054A52
:105A70003146284663F0E4FDF6E700BF0826002023
:105A80001C8D0C08348D0C0810B5FFF79BFF0549E1
:105A900042F678028C5C60F304148C54024A9071D4
:105AA00010BD00BF082600208D69002007B50448FE
:105AB0005EF0C6FC00F0010003B05DF804FB00BF1F
:105AC00038540020F7B505460E4663F0ADFC044699
:105AD00020B1AB68012B04D09A0702D4204603B052
:105AE000F0BD14485EF0ACFCC0F3072010F00107D5
:105AF000F4D18307F2D50F485EF04CFC42F6FC531C
:105B00000D4AD35807EE903AF8EEE77A30EE670A7E
:105B1000DFED0A7AB0EEC00AB4EEE70AF1EE10FA51
:105B2000DCDD074B32460221284663F011FC3C467F
:105B3000D4E700BF38540020082600200000C842E7
:105B4000708B0C082DE9F041074690B0884663F051
:105B500005FEBB68012B054605D05B0703D428462C
:105B600010B0BDE8F08103AC322200212046BFF026
:105B7000C3FA1BF013FE322221461BF089FC0646B5
:105B80000028ECD10094044B42460421384663F0CF
:105B9000DFFB3546E3E700BF57D40D08F8B50446F0
:105BA0000F4663F07BFFA368012B054603D0DB069D
:105BB00001D42846F8BD2046FFF778FF06460028A6
:105BC000F7D1044B3A461021204663F0C1FB35461D
:105BD000EFE700BFD88A0C0838B504460D4663F0DD
:105BE000D9FCC8B1A368012B08D01B0606D438BD68
:105BF00029462046BDE8384063F0B6BF42F6F95367
:105C0000064AD35C002BF3D02046054B2A46802160
:105C100063F09EFB002038BD38BD00BF0826002081
:105C2000508D0C08F0B542F2CC43124C85B0E358CD
:105C3000009342F2D0436A46E358019342F2D443C0
:105C40000646E358029342F2D8430F46E3580393C3
:105C500064F09AFA39460546304663F0A1FB42F6F5
:105C600078022840A35C60F3C303C3F3C000A354CD
:105C700005B0F0BD082600202DE9F8430646884609
:105C8000FFF7CCFD1D4F044610B90024FC7113E052
:105C90001B4D43F6EC03E85803689B689847814620
:105CA000184851F0B9FF2B46B9F1000F07D110F099
:105CB000060F04D10123FB712046BDE8F883B268CA
:105CC000012A01D01207F5D593F89824842101FB0D
:105CD000023241F60231B2F826235B5E9A4206DDBB
:105CE000094B42460821304663F032FBCDE741467E
:105CF000304663F0B3FB0028DCD1C6E78D69002095
:105D000008260020BC540020C88A0C0870B588B052
:105D100005460E4663F0B4FC044620B1AB68012B87
:105D200004D09B0602D4204608B070BD42F66473CE
:105D3000184AD35C002BF6D007AA06A916484DF0E6
:105D40009BFE0028EFD0DDED077A9FED147AF4EE8C
:105D5000C77AF1EE10FAE6D80CA3D3E9002317EEC8
:105D6000900ACDE90423FEF72DFCDDED067A0C4BFD
:105D7000FDEEE77ACDE90201CDED007A3246202131
:105D8000284663F0E5FA0024CDE700BF000000409C
:105D90003333E33F08260020004200209A99193F40
:105DA000F88D0C082DE9F3478946054614F006F9ED
:105DB0000368D3F8C83007469847044640B96E4A8E
:105DC0000121284663F03CFC204602B0BDE8F08784
:105DD0003B6838465B6B9847044670B91BF0DEFCA5
:105DE000214606461BF012F87C23C0B203FB00607C
:105DF00090F889400CB9614AE2E7DFF8A88108F51C
:105E0000225309F1FF3493F800A043F6EC036142FA
:105E100058F80300036861411B69984746460446E9
:105E200008B9574ACCE701212846FFF763FC04462E
:105E30000028C9D042F67A0318F8033003F014039F
:105E4000142B05D14F4A0121284663F0F9FB5EE08F
:105E500047F0BAF81F2146F03BFF4B4BB8B918701A
:105E6000AB68002BB0D0012B2FD0DA062DD4AB6855
:105E7000012B4ED05B064CD4444B1B68D86C036896
:105E8000DB6998470128014618D1414ADCE71B78B5
:105E9000002BE5D03F4AD6E743F6EC03F058036801
:105EA000DB68984710B9BAF10B0FE5D142F2D44341
:105EB000F358B3F90830002B51DCDDE7494628469A
:105EC00002B0BDE8F04763F03DBFD7ED557A97EDDE
:105ED000540A20EE270ABCF0B9FBDFED2F7A41F619
:105EE000D22320EE270AF35EDFED2C7A20EE270A7C
:105EF00007EE903AF8EEE77AB4EEE70AF1EE10FA20
:105F0000B5DD274B01221021284663F021FA002439
:105F10005AE741F61233F3564BB142F2D44341F6FD
:105F20001432F358B25EB3F906309A4220DCB9F16C
:105F3000010F03D10AF0EF03042B9DD042F2D443AA
:105F40001848F358B3F9083000EE103AB8EEC00A1A
:105F500000F0B6FAB5EEC00AF1EE10FA9CDD124B75
:105F60000093124B01224021284663F0F1F9CEE75D
:105F70000D4B00930E4BF5E73C8A0C084D8A0C083C
:105F8000618A0C081C8D0C08E07200205866002005
:105F9000A78A0C08728A0C08E02E65420000C842ED
:105FA0008A8A0C08082600209E8A0C08928A0C080F
:105FB000B58A0C082DE9F041514C2378A046002BFE
:105FC00040F09B804F4D42F6A4060127AE59277042
:105FD00096F868601EB123703046BDE8F08164F029
:105FE000EBF9064630B9484A2070137843F00103B4
:105FF0001370F1E73CF03EF939463BF059FB284677
:1060000006F058F8414B1F710C27013F04D032F0C5
:1060100089F932F025F9F8E73A4800F0E3FE13F089
:10602000CDFF42F6CC038269EA5090F84C31DA0792
:10603000044651D40368D3F8E03098473CF01AF98D
:106040003C213CF075F8324B00221A6000212D48AB
:1060500000F062FF2B480FF0FBFD01462D4862F077
:1060600045FE94F8803043F0040384F880302A4BD6
:106070002A4C1B680121D86C26F058F821480EF0F4
:10608000B5FC42F6A4030121E8585FF063FF3CF041
:10609000F1F842F681032178EA5C3BF097FCA4F525
:1060A000225005F0F9FF002737F048FE37F060FA7C
:1060B00088F8007069F01CFA42F66463E85014F83E
:1060C000062C42F0200204F8062C14F8052C67F385
:1060D000410204F8052C7FE79B07B7D439460948ED
:1060E00004F0A6FA0E485EF055F9DFED0E7A084B83
:1060F00020EE270A83ED000AA8E700266CE700BF20
:106100000026002008260020A86900208D690020B4
:10611000944E0020EC49002058660020884E002054
:10612000385400200AD7233C2DE9F04342F6A4035B
:106130003B4DEB5893F8683085B0002B6DD05AB1C9
:10614000012909D142F67803EB56002B04DB002726
:10615000384605B0BDE8F08364F08CF907460028A6
:10616000F5D013F02BFF06461BF018FB3368814671
:10617000D3F8A43030469847D8B199F95C30022B57
:1061800017D100244FF0000801AA21463046CDF86F
:106190000480CDF80880CDF80C8013F053FE20B1B8
:1061A00001AA214648461AF083FF0134E4B2032CC9
:1061B000EAD143F6EC021B4BA858984229D109F0CA
:1061C00051FB0121164806F04DF90121144806F053
:1061D0008FF842F6A4030021E8585FF0BBFE124896
:1061E0002EF0EAF93CF046F800213BF061FA96F80F
:1061F00080306FF3820386F880300C4B1B680021DF
:10620000D86C25F093FF0A4B9A786FF345129A7079
:106210009EE7184609F032FBD3E7012798E700BF55
:10622000082600200C620020B05F00205866002085
:10623000804E0020014851F071BD00BFBC540020C9
:1062400010B542F67802835CC3F340148C420AD046
:1062500061F34513835431B13CF00CF80F21BDE8D4
:1062600010403BF065BF10BD38B542F6B40304469C
:10627000C3588B420D4613D0012912D0022917D0E2
:1062800059B93BF0F7FF1B213BF052FF0D4A04F5D3
:10629000195006213C303EF0ADFA42F6B403E55009
:1062A00038BD3BF0E7FF1A213BF042FF064AEEE71C
:1062B000012100F031FE3BF0DDFF1D213BF038FFF6
:1062C000024AE4E76C8E0C08818E0C087C8E0C0868
:1062D00042F69D0238B5835C0C4603F00101A142F1
:1062E00008D064F300038354DB0704D405F0C0FB3B
:1062F000024B9C7238BD05F0F7FCF9E78D69002070
:1063000042F69D03C25C61F34102C254014B197312
:10631000704700BF8D69002010B5044646F054FE5A
:10632000202146F0D5FC04F52153003093F83A20A3
:1063300018BF012060F3820283F83A2010BD0000EC
:1063400038B542F69D032DED028BC35CDA07044697
:1063500008EE101A3BD442F67903C35C5B0736D5CE
:1063600000F5E155B7EE001ADFED1A0A95ED010AC6
:1063700029F004FDDFED187A85ED010AF0EEC06A20
:10638000F4EEE76AF1EE10FAB0EE407AF8EEC87A71
:1063900004F5DA5406D594ED000A20EE270ABDEC88
:1063A000028B38BD9FED0D6AC7EE866AF7EE007A64
:1063B00077EEC07A27EEA60A66EEA67A67EEA66AA0
:1063C000D4ED007AA7EE260A20EE060AE5E79FED57
:1063D000010AE4E7000000000000003400A08C4542
:1063E00008B542F6A403C05803681B689847F6EE48
:1063F000007A20EE270ADFED057AB4EE670AF1EEA7
:1064000010FA48BFB0EE670A08BD00BF00000000E8
:1064100038B52DED028B42F65063B7EE001AC35823
:10642000DFED0F0A93ED2B0A054629F0A7FC42F693
:106430005463B0EE408AEC5842F6A4032834E8587E
:1064400003681B68984738EE400ABDEC028BDFED0D
:10645000057A204620EE270ABDE8384056F00ABDEE
:106460000000000000007A4400F5B65300F5B65075
:10647000D3ED045AD2ED007AD0ED076A91ED006AAF
:1064800026EEE77A67EEA57AA6EE257AE6EE267A7C
:1064900081ED007AC2ED007A7047000042F2944329
:1064A000C35E3BB941F60E33C05E0028B8BF404220
:1064B00080B2704783EAE370A0EBE370F8E7000076
:1064C00070B52DED068B42F69D030446C15C11F0BC
:1064D0000105B0EE408A04D09FED2A0ABDEC068B80
:1064E00070BD42F67903C35C5B07F5D541F61636FD
:1064F0000EF0AAFBA35F9FED249ADFED220A01EEC6
:10650000103A07EE900AF8EEC19AB0EE480AB0EEE3
:10651000491AF8EEE78A29F031FC38EEE9AA4FF47F
:10652000C8722946A05FB0EE408A29F01FFCB4EE85
:10653000C8AAF1EE10FAA0530DDD2046FFF7AEFF1A
:1065400007EE900A38EE4A8AB8EEE70A20EE088A8B
:1065500088EE0A0AC2E738EEA91AB4EEC81AF1EEBC
:1065600010FAB9D541F60E3338EE418AE35E00EEFB
:10657000103AB8EEC00A39EE411A20EE088A88EEC9
:10658000010AABE70000000000007A4438B52DEDA9
:10659000028B42F6A4050446435993F8683023B1B0
:1065A00042F67803C356002B02DABDEC028B38BDED
:1065B00043F6EC03C0580368DB6898470028F4D121
:1065C00004F522531B780B2BEFD042F654639FED5A
:1065D0002B7AE358D3ED587AF0EEE77AF4EEC77AE7
:1065E000F1EE10FAE1D5605938303DF053FCB7EECA
:1065F000001ADFED230A90ED000A29F0BFFBB5EE8B
:10660000C00AF1EE10FAD0DD04F5385030305DF0FC
:10661000C5FEDFED1C7AB0EEC00AB4EEE70AF1EE7B
:1066200010FAC2D541F28853E35808EE103A42F608
:106630005063B8EEC88AE05803681B6E984738EE7E
:10664000400ABDEEC00A10EE103A002BB8BF5B4204
:10665000B3F5FA7FA9DA41F28C5340F2E632E358FF
:1066600003F2F3139342A0D8BDEC028B60599FED67
:10667000060ABDE838405EF0B3BD00BF000000343C
:1066800000000000000070420AD7233C0020704741
:1066900000207047002070470020704770470000BE
:1066A00000F5225000787047034808602B211170D4
:1066B00008221A60704700BFD48E0C0810B543F64C
:1066C000EC030C46C05803681B6C984707EE900A11
:1066D0009FED047AF8EE677A012067EE877AC4EDC1
:1066E000007A10BD0AD7233C10B543F6EC030C46E4
:1066F000C0580368DB6B984707EE900A9FED047A59
:10670000F8EEE77A012067EE877AC4ED007A10BDD3
:106710000AD7233C10B543F6EC030C46C058036877
:106720005B6C9847DFED037A20EE270A012084EDA9
:10673000000A10BD0AD7233C03685B6D18470000B0
:1067400056F05CBD47F07CBC0FF0D2BC4AF09CBE5A
:106750000EF05CBB0EF0EEBA37F006BA26F016BDAE
:106760003BF0D8B816F09AB945F096BB44F0BEBAE3
:106770000DF0D0BE0EF0AEBC05F0DCBF05F054BC91
:1067800004F036BF04F050BE31F06ABD0EF054B8CC
:10679000403051F0F1B9000014F0D0BA47F000BF1A
:1067A0000DF0A2B8FFF7F2BE0EF000B84CF0DCBF5F
:1067B0000EF056BB03F0EEB80DF07CBF0DF0F2BE4C
:1067C00046F088BB33F014BB1EF042BB05F014BB8F
:1067D00008F0A4BD08F0D8BE08F070BE70B51B4B21
:1067E000036042F27C631A4AC25042F62803044610
:1067F000C05808B117F014FD164B236004F5A650DD
:10680000043056F081FD04F5A450083047F002FA38
:10681000114BC4F8183A04F6BC5604F56165AE4253
:1068200004D01C3D28463DF00FF9F8E70B4BE36719
:1068300094F8603143B9D4F85C512DB1284625F065
:10684000D3FC284617F0F0FC204670BD7C920C0863
:106850008C8D0D0830730D0834430D0858020D0857
:1068600010B52DED028B43F6EC030446C0580368C7
:10687000DB69B0EE408A984720B90024BDEC028B5A
:10688000204610BD9FED080A04F5755028EE000A59
:10689000143009F015FF04460028EED0012103480A
:1068A000FFF7CEFCEAE700BF0000C8420826002040
:1068B00037B543F6EC030446C0580368DB690D4660
:1068C000984760B1DFED070A002304F57550009387
:1068D000B0EE600A1A46294614300AF08FFD03B064
:1068E00030BD00BF0000000070B52DED068B43F6F3
:1068F000EC030546C058036884B0DB69F0EE409AAB
:10690000B0EE60AAF0EE41AAF0EE618A0E46B0EE5B
:10691000429A98470446F8B19FED128A4FF07E5391
:1069200000936AEE080A002329EE880A68462AEED8
:10693000881A0393029301932AF0C6FE9FED0A0A78
:1069400005F57550002369EE080A324628EE800AE4
:10695000694614300AF060F8204604B0BDEC068B9E
:1069600070BD00BF35FA8E3C0000C84270B543F6DA
:10697000EC030646C058036886B0DB690C469847AE
:10698000054610B39FED126AD4ED006A94ED017ACA
:10699000D4ED027ADFED0F0A012366EE866A27EE58
:1069A000067A67EEC67A019306F5755000230093C8
:1069B000B0EE600A1A4603A91430CDED036A8DEDDE
:1069C000047ACDED057A0AF077FD284606B070BD51
:1069D0000000C84200000000394B37B5044640F8BB
:1069E000043B47F0D9FB04F120004FF05DFB04F1BC
:1069F0000805344B34491D60284635F023F904F16D
:106A0000580016F017FE314B0193009402AB13E9C6
:106A1000060004F5E07036F0C3FE04F51B701CF0B0
:106A200029FD04F5AA6013F0E7FD04F284601AF072
:106A3000D1F804F6182026F0E9F904F5885018304A
:106A400047F002FA04F58E50183035F06BFE04F56D
:106A5000A450083047F0C6F804F5A650043056F0AC
:106A60003FFC04F5A650183037F078FA04F5A8502A
:106A70000C3047F0D7FC41F214530025E218E554DE
:106A800004F5A950124B04301A6031F0E1FA04F514
:106A9000AB502946183012F0F7F80E4D04F5D650D9
:106AA000083056F059FA2B6813B10B4868F0FEFC19
:106AB00020460A4935F0C6F820462C6003B030BDA8
:106AC00030730D085068002040FE0C08396700083C
:106AD0004C7500206C6A0020908E0C08C0720D0866
:106AE00010B50EF03DF846F06FFA0368BDE81040AF
:106AF0005B681847FFF7F4BF10B5044605F012FCB9
:106B000020460EF0BFFC204603F060FB2046BDE8A7
:106B1000104003F0C3BC0000FFF7EEBF70B500F5F6
:106B2000235510350446284614F02EFE1AF036FE82
:106B300090F9593063B342F6A40304F28466E05836
:106B400038303DF0A7F9B7EE001ADFED120A90EDEC
:106B5000000A29F013F994F9F836012B284608BFEA
:106B600086ED210A002114F04BFCDFED0B7A04F6D0
:106B7000C81494ED007A20EE270ADFED087AA7EE1C
:106B8000270A304684ED000ABDE870401AF02ABB9F
:106B900070BD00BF00000000CDCCCC3D6666663FF6
:106BA000FFF7BCBF10B5012104460EF0C7FC60B171
:106BB00043F6EC03054AD05803681B6A984720B98E
:106BC0002046BDE8104002F00FB810BD0826002096
:106BD000FFF7E8BF38B5022104460EF0AFFC68B1FC
:106BE000012120460EF0AAFC40B943F6EC03414ACD
:106BF000D05803681B6A9847002866D002212046B7
:106C00000EF09CFC002864D1012120460EF096FC79
:106C100000285ED14FF4003120460EF08FFC10B1F9
:106C2000204602F057F8402120460EF087FC60B164
:106C300004F513551C35284639F06AFA41F28843A9
:106C4000E35613B1284639F079FB4FF480612046B2
:106C50000EF074FC20B104F513501C3039F0E8FA42
:106C6000202120460EF06AFC50B143F6EC03E058B8
:106C700003689B68984780BB20460AF055FD60BBBF
:106C8000802120460EF05AFC68BB4FF4802120463C
:106C90000EF054FC38BB4FF4002120460EF04EFCA1
:106CA00008BB102120460EF049FC10B342F6506399
:106CB000E05857F021F904F5DF5104F5135018316D
:106CC0001C30BDE838403AF085B8204601F08CFF12
:106CD00094E7204601F0ECFF9CE742F65463E0584D
:106CE00059F048FBCCE704F513501C3039F070FC28
:106CF000D7E738BD08260020FFF76CBF10B501218B
:106D000004460EF01BFC10B1204601F0D1FF80219B
:106D100020460EF013FC20B104F513501C3039F05E
:106D200037FC2046BDE8104002F000B9FFF7E6BF8F
:106D300010B5044605F030F9204604F08BFF2046DC
:106D400005F020FA2046BDE810400FF0F3B900002E
:106D5000FFF7EEBF38B54FF6FF7104460EF0EEFBBD
:106D600030B142F678030721E258204602F016F8C7
:106D700004F5175042F6A4051030FEF7ADFB635939
:106D800093F86830DBB904F5AB50183011F0EEFA27
:106D90002046FFF7C1FA605941F62A320368A25C27
:106DA0001B6941F62C41615C984742F2D44360591B
:106DB000E358B3F90E20B3F90A105EF0E5F946F096
:106DC000FBFA20460FF0A8F942F67803034AE35C89
:106DD000DB43C3F3C013537138BD00BF8D6900207E
:106DE000FFF7B8BFF8B500F5B653103300F52256DB
:106DF0001B68B36300F5B6531C3341F290571B6810
:106E0000F3630446C05900F58C40503028F066FF0B
:106E100004F5235335461860B26B5A6004F52353CA
:106E2000EA6B9A604FF6FF7120460EF087FB30B197
:106E3000E25920460921BDE8F84001F085BFF8BDC0
:106E400010B542F6B403C258002A52D042F6790374
:106E5000C35CDB074DD500F52153012A93F83910A7
:106E60006FF3000183F8391042F2CC43C358B3F9F1
:106E7000083006EE103AB8EEC66A3BD100F5225350
:106E800093ED0E7A42F2D043C358B3F9083007EEBF
:106E9000903A00F52253F8EEE77AD3ED0F5A65EEFB
:106EA000E76A67EE277A00F5B652E6EE257A42F2F7
:106EB000CC43E6EE076AC45892ED077A92ED046A75
:106EC00027EE877AA6EE867ABDEEC77A17EE103ADD
:106ED000238192ED047A67EE877A92ED077AE6EEE7
:106EE000C77A42F2D043C058FDEEE77A17EE903AE7
:106EF000038110BD00F5235393ED017A42F2D04394
:106F0000C358B3F9083007EE903A00F52353F8EE72
:106F1000E77AD3ED025AC2E710B504462DED028B95
:106F200079B120460DF06CFC04F5235240F2E631B5
:106F300013681B1A03F2F3138B420DD8BDEC028BBE
:106F400010BD42F6B403C358022BF7D10DF03AFC42
:106F5000B0F57A7FE5D2F1E7106000F58C40503053
:106F6000642390FBF3F308EE103ADFED0B7AB8EEF2
:106F7000C88A28EE278AB0EE480ABBF00DFA04F55D
:106F8000235383ED010AB0EE480ABBF0E7FA04F59B
:106F9000235484ED020AD1E735FA8E3C00F5AB505C
:106FA0000121183012F0F0BD10B5044600F618208B
:106FB00026F0E0FA42F65063E0580368DB6A98472F
:106FC00020460DF031FA2046FFF7E8FF204605F095
:106FD0004BF9204604F0CAFA204605F067FC20462B
:106FE00003F048FB204605F05FFB4FF6FF7120469B
:106FF0000EF0A4FA10B1204601F02EFF2046BDE8A5
:10700000104038F0E3BB000010B504460DF022FE3E
:10701000102120460EF092FA38B1204602F04EF8C8
:107020002046BDE8104038F03BBD10BDFFF7ECBF77
:10703000F8B50446274605F0BBFB234B47F83C3B1D
:10704000224BA365224B2366224BA3666465E4654D
:10705000646604F1740016F02DFE04F18C00002526
:1070600016F028FE4FF6FF7604F1A40016F022FE7B
:10707000A4F8B450A4F8B660A4F8B86004F1BC0059
:1070800016F018FE144BC4F80851384613491F6017
:1070900034F0D8FD94F83D30A4F86C6003F0F403AC
:1070A00065F3041384F83D300123A4F8846084F868
:1070B0003C5084F8BA5084F81051C4F8345184F824
:1070C00038312046F8BD00BF14E50C08D167000830
:1070D000D5670008D967000854690020A84F0D083B
:1070E00010B5044616F0E6FD04F1100016F0E2FDBE
:1070F00004F1200016F0DEFD04F1300016F0DAFD98
:10710000204610BD2DE9F0472DED028B044684B0DA
:10711000FFF762FC8C4B236004F5DA50183002F064
:1071200095F804F5D95104F5135004311C303AF0A8
:107130000FFA42F2705204F5D8531833A35042F2BA
:107140007453062204F51650E25404303CF054FE09
:1071500004F5165024303CF04FFE42F2D05742F274
:10716000B853E6190125E550304662F0ADF8774B8B
:10717000E351301D33F04EFF10B942F2D453E554C1
:1071800004F51850303032F0DDFD42F27C63704A75
:10719000E250E61804F51B5706F11405343728466B
:1071A000143541F063FBAF42F9D142F6280506F5EC
:1071B000CA7067F0CBFF631905229A800022DA803B
:1071C0001A8140F2131017F023F8605104F5215092
:1071D0001C3067F0BBFF5F4B1A6802B91E6042F2B9
:1071E0007C635D4AE25004F5225300261E7042F68D
:1071F000810304F52250E654033061F007F8B7EE3E
:10720000008A04F5225383ED0E8A04F5235383ED9F
:10721000018A524B0393524B0093029404AB04F542
:10722000235013E90C004FF40071103014F04AF8A9
:10723000B0EE480A04F538503CF0A2FE04F5385789
:1072400004F53850B0EE480A203714303CF0DCFD2D
:10725000384616F02FFD42F630634249E150E218FD
:1072600004F5385300255D639D63DD6304F53953F0
:107270001D605D609D6004F5AB531833D36142F629
:107280006963E65404F5395606F1480016F012FD1C
:107290004FF40043F36637672C363349304634F0F9
:1072A000D1FC324B04F53A5034301E6050F082FC71
:1072B00004F53D5042F67076103050F0D7FEA0191C
:1072C00035F092F82A4BA35104F53E50043004F5F2
:1072D000A8530C33036104F53E57264B264918602A
:1072E000243734F0AFFCFF233B743B762349384608
:1072F00034F0A8FC224B1E6816B1224868F0D6F87C
:1073000004F5665104F53F50283104301F6037F012
:10731000A9F804F560503C3059F022FE1A4B1B4A84
:107320001A6004F563511831334618279EB230466F
:1073300078430133105C0028F8D1154B1E80154BA3
:107340001E685EB31448D9E77C920C082C8E0C089A
:107350008C8D0D08A87200202C950C08CD670008B4
:1073600030920C0894C30D08E4FF0C085868002004
:10737000688E0C0854750020B8970D0818AE0D08DB
:10738000E075002038920C08286A0020FCCA0C081E
:10739000246A0020E869002059920C08196043F61D
:1073A000307843F6EC0304EB080A43F6F00744F8A0
:1073B00003A0E01905F0FCF9574BE35143F63017F1
:1073C000E01905F0F5F9554BE35104F5655043F626
:1073D000C8272C30FFF72CFEE01963F06FF9504BF3
:1073E000E35143F60447E01905F0E2F94D4BE35150
:1073F00004F57157384605F0DBF943F684494A4BEA
:107400003B6004EB0907384605F0D2F9474B44F8D6
:10741000093087F83C6087F83D6043F6C447E019BF
:1074200005F0C6F9424BE35104F57457384605F0B0
:10743000BFF943F654593F4B3B60FD633D647D64A7
:1074400004EB0907384605F0B3F93B4B44F8093023
:1074500087F83C6043F69457E01905F0A9F9374BDB
:10746000E35143F6D057E01905F0A2F9344BE3514C
:1074700043F61067E01905F09BF9324BE35104F530
:107480007A5343F6A4679D60DD60E519DFF8C49088
:10749000284605F08DF944F80790012785F83C70DF
:1074A00085F83D6005F14000FFF71AFE504605F0F3
:1074B0007FF9254B44F8083043F66C7804EB080557
:1074C000284605F075F9214B44F8083043F6BC789E
:1074D00085F83C6085F83D6004EB0805284605F01A
:1074E00067F944F8089005F1400085F83C7085F88C
:1074F0003D60FFF7F5FD164B44F8083042F6A00258
:1075000085F88970A35C204643F00303A35404B0BC
:10751000BDEC028BBDE8F08750E30C08C0E30C081B
:10752000E0E50C0884E50C0818E60C0884E60C0875
:10753000F0E60C0854E70C08B8E70C081CE80C0847
:1075400088E80C08F4E80C0810EB0C0850EC0C0868
:10755000A0EA0C0838EA0C0838B5054B1C6823680B
:107560000A461D68034B01462046A847002038BD47
:10757000586600200826002010B568F03DF9064C3A
:10758000064B18602046FFF7BDFD2046044A05491A
:10759000BDE81040BAF0DCBD082600205866002087
:1075A000A47D0020DD67000801207047FA207047A5
:1075B00041F6D623014AD05C704700BF0826002060
:1075C00042F6B403024AD058431E5842584170470D
:1075D0000826002042F6B403024AD058831E5842BF
:1075E000584170470826002001480DF0C9BF00BF70
:1075F00008260020F8B5836843F4E0538360C3682D
:1076000043F4E053C360036943F4E0530361044669
:1076100032F066FC064620B190F90530002B40F0B0
:107620009F805B4D43F63C03EB563BB1A36843F0B0
:107630008003A360E36843F08003E36042F67903CC
:10764000EB5C5F0707D5A36843F48033A360E3686E
:1076500043F48033E3604F484CF082FA18B1A368DA
:1076600043F08063A3604C4B1F682FB1192138464B
:1076700035F05EF900287CD1A36843F4C043A360D1
:10768000464B1A78162A10D801239340444A1A40D0
:10769000002A5DD1434A134207D0E268236942F4CD
:1076A000C042E26043F4C04323613A484CF060FAC0
:1076B00018B1E36843F08063E36042F67903EB5C62
:1076C000580708D542F69D03EB5CD9075EBF2369D6
:1076D00043F48033236146B1336833B13379DA0739
:1076E00042BF236943F04003236143F63C03EB565A
:1076F00023B143F6C803EB5C002B3FD125484CF087
:1077000041FA18B9236943F08063236143F63803D3
:10771000EB5C013B012B0BD8A36843F48003A3600F
:10772000E36843F48003E360236943F48003236147
:1077300042F27853EB5CDB0729D5E36843F48073AE
:10774000E36027B31921384635F014F9D8B9F8BDEC
:10775000E36843F40053E360236943F40053A3E771
:10776000A36843F04003A360E36843F04003E36091
:1077700057E7A36843F48073A3607DE7236943F070
:1077800080032361BAE7236943F480732361F8BD62
:107790000826002000420020346A0020884E002085
:1077A00004A05000F8022F0070B54FF400700D4691
:1077B000164616F033FD32460446294643F080FC57
:1077C000014B2360204670BD30970C0808B590F837
:1077D0007830994208DD38F05DFA16224FF48021A6
:1077E00038F00EFA002008BD00EB8100C06F08BD24
:1077F00008B590F87830994208DD38F04BFA0F223E
:107800004FF4802138F0FCF9002008BD00EB810026
:10781000C06F08BD002070470020704703207047EC
:107820000E4B1B78172B16D801229A400C4B134095
:10783000002B0CBF1023182342F6A40209498A58D2
:1078400043F0400022B192F868200AB143F0C00032
:1078500040F0010070471023EEE700BF884E002083
:10786000F800AB00082600207047000041F6D8233E
:10787000014AD05C704700BF0826002041F61C4337
:10788000024AD056003018BF012070470826002059
:1078900041F6DA23014AD056704700BF082600207F
:1078A0007047000007B542F6A4030D4AD058A0B1B6
:1078B00038303CF0EFFAB7EE001A90ED000ADFED39
:1078C000090A28F05BFADFED087A20EE270AFDEEC0
:1078D000C07ACDED017ABDF9040003B05DF804FB78
:1078E00008260020000000000000C8422DE9F04FEB
:1078F000334FDFF8D4808BB00546002407F5995943
:1079000014F80860B7F9003006F1FF3A43FA0AF3B9
:10791000D90734D5287C3DF0D9FE8346287C3EF03B
:10792000C3FD193083453CD2287C3DF08BF90BB068
:10793000BDE8F08F234B186803689B68984700F1F7
:107940006803E3B1D3F800A0D3F804C0D9681A697A
:10795000D3F818E05B690893622301931923069119
:107960000792287C009303AAC221CDF80CA0CDF881
:1079700010C0CDF814E08DF824603DF0E5FE013430
:10798000042CBDD1D3E70F4B18680368DB68D5E73B
:107990000C4B186803681B69D0E7D9F800309033A6
:1079A000CFE7BAF1030FEAD801A353F82AF000BFDA
:1079B0003579000887790008917900089B790008DB
:1079C0003C41002058540020FC970C08014807F067
:1079D0001FB900BF745F002043F0A6B810B504467D
:1079E00040F042F905480DF0CBFD054A034606215B
:1079F0002046BDE8104040F06BB800BF08260020CC
:107A00001C960C0838B504460D4667F071FD42F629
:107A10009003044AD05029462046BDE838403FF044
:107A200043BA00BF0826002010B442F2C842044CFA
:107A3000A35C0133A3545DF8044B3FF0BBB900BF16
:107A40000826002010B508460C4616F0ABFB28B1FE
:107A50002146034802F0E2FA002010BD042010BDC8
:107A60005C660020014802F0E3BD00BF082600204C
:107A7000014802F061BD00BF082600203EF03CBF77
:107A80003EF038BF38B5084A42F6C473D3563BB906
:107A900040F6CD143FF044F900252043294338BD7A
:107AA00040F6CD34F6E700BF0826002010B50446A6
:107AB00016F0BAFB204610BD38B50D4C42F67803DF
:107AC000E356002B0FDB43F6EC05605903681B6B94
:107AD000984750B960590368DB6A9847002814BF7B
:107AE0000320022038BD012038BD042038BD00BF6E
:107AF0000826002038B5F7EE000A91ED050A044685
:107B00000D4628F039F828B121460548BDE838402F
:107B100002F0C2BD29462046BDE8384041F0FEBE15
:107B2000082600201FB5002301930293039310F051
:107B300017FF036801A95B6F984728B101A82AF0D5
:107B4000F7FE05B05DF804FB1DF020FA90F82C322A
:107B5000842202FB030090ED2B0AF2E708B5806A4D
:107B600003681B6A9847B0F5005F28BF4FF40050C8
:107B700080B208BD0B7ADB0706D541F2B862034834
:107B8000CB6882581344CB60704700BF08260020A2
:107B9000044B187828B942F67A03034AD05CC0F344
:107BA0008010704754680020082600200B4B42F6D6
:107BB0009D029A5CD10706D442F6F951595C11B97D
:107BC00012F01E0F01D00520704742F678029B5636
:107BD000002BB4BF03200420704700BF08260020FC
:107BE00008B5084A41F62833D356032B03D0BDE825
:107BF00008403FF085BF044A02213FF069FF04209E
:107C000008BD00BF0826002028960C08094B03F584
:107C1000E1521268920701D43EF060BE42F624623F
:107C2000DFED057A9B5800EE103AB8EEC00A20EE60
:107C3000270A7047082600200AD7233C10B594B0C5
:107C4000044603A816F036F843F6EC03194AD05858
:107C5000036803A99B6B984750B3247C67F048FCEA
:107C6000059B0893069BDDED047A099300230B9393
:107C70000C930D930E930F931093119312934FF651
:107C8000F873F8EEE77A9FED0C7AADF84C300023EC
:107C90008DF84E30962367EE877A01933323079051
:107CA000009307AA57212046CDED0A7A3DF04CFDFE
:107CB00014B010BD082600200AD7233C70B52DED66
:107CC000088B4C4C43F6EC0506466059036896B0A9
:107CD000DB699847002848D043F690539FED468AC9
:107CE000E35C012B45D142F658639FED440AE0580E
:107CF00048302AF0D7FEB0EE48AAF0EE409AB0EE37
:107D0000609AF0EE418AF0EE48AAB0EE48BA40F62A
:107D1000F874357C67F0ECFB01238DF856308C232A
:107D2000019333230990F1EE688AB1EE4AAA0093D9
:107D300009AA55212846CDED0A9A8DED0B9ACDED75
:107D40000C8A8DED0DBACDED0EAA8DED0FAA8DED3D
:107D5000108A8DED118A8DED128A8DED138A8DEDCD
:107D6000148AADF854403DF0EFFC16B0BDEC088B22
:107D700070BD022B17D163599FED200A5B6918680B
:107D800000F5AC702AF08EFEF0EE488AB0EE40BAF4
:107D9000F0EE60AAB0EE41AAB0EE489AF0EE489A32
:107DA00040F6C774B5E742F658639FED140AE058F1
:107DB00048302AF077FE63598DED030A5B69CDEDFB
:107DC000040A18688DED051AF0EE409A00F5AC70C3
:107DD0009FED0A0AB0EE609AF0EE418A2AF062FE48
:107DE0004FF47C64B0EE40BAF0EE60AAB0EE41AA67
:107DF0008FE700BF08260020000000000AD7233CC0
:107E00002DE9F04142F679033E4D2DED068BEB5CFA
:107E100099068EB006466FD542F650639FED3A0A3A
:107E2000E8589FED3A8A3C302AF03CFE43F6EC03DA
:107E30008DED061AEC58CDED050A21EE081A2368DF
:107E40008DED040AFDEEC17ADB6BCDED037A2046A1
:107E500020EE889A60EE089A96F81080BDF90C70B2
:107E6000984707EE900AF8EEE77A236867EE887A7B
:107E70001B6CFDEEE77A2046CDED037ABDF90C6070
:107E8000984707EE900AF8EE678ADFED217A68EEF0
:107E9000888A42F65463F4EEE78AF1EE10FAE85865
:107EA00058BFF0EE678A57F001FF2368B0EE40AA92
:107EB0005B6C204698476AEE087A0023CDED097A7C
:107EC000FCEEE87A0A9317EE903AADF83430B72317
:107ED00020EE080A01931A23009307AA3E21404688
:107EE000CDED079A8DED089A8DED0B0AADF8307047
:107EF000ADF832603DF028FC0EB0BDEC068BBDE85D
:107F0000F08100BF082600209F0CB3450AD7233C10
:107F100000FF7F4701480DF027BB00BF0826002067
:107F2000014B1878704700BF884E002042F6790355
:107F3000024AD05CC0F34010704700BF0826002002
:107F400070B543F6EC033C4D2DED028B0646E85828
:107F500091ED018A036888B0DB690C46984740BB05
:107F6000BDEEC88A18EE103ADB0722D4022008B012
:107F7000BDEC028B70BD43F6EC03E8580368DB6987
:107F80009847044698B9022204212B4804F064FF64
:107F900000284FD0DFED290A00942346B0EE600A96
:107FA000224604A9264809F029FA002842D00020D8
:107FB000DDE76169206928F0D7F80028D6D004A849
:107FC00015F078FED4ED067A9FED1E7A23690693AC
:107FD000F0EEE77AF4EEC77A63690793F1EE10FAF0
:107FE000C4DC03AA94F82010304642F01BFF00289E
:107FF000BCD09FED157AD4ED067A039A67EE877AA6
:1080000004A8FDEEE77A17EE901A15F059FE0F4915
:1080100004A816F0D3F803460028A7D1DFED070A1D
:1080200000900246B0EE600A04A9054809F0E6F99E
:108030000028A0D104209AE70826002000000000B4
:108040005C630020001CA2470000C84228540020A6
:108050008B8B202B05D0C02B01D1FFF771BF42F0D5
:108060007FBF03207047000010B52DED028B8CB050
:108070000023039304930593044610F071FC0368F6
:1080800003A95B6F984758B310F06AFC0368DB6E76
:108090009847F0EE607A8DED060ACDED070AF1EE15
:1080A000400AB1EE670A8DED081A247CBAF086FB0F
:1080B00006A8B0EE408A2AF03BFC089BDFED0A7A66
:1080C0000B93012368EE277A01930C23009309AAEE
:1080D000A8212046CDED097A8DED0A0A3DF034FB4A
:1080E0000CB0BDEC028B10BDE02E6542262938B5E0
:1080F000044612D008D819290DD0232925D02046AE
:10810000BDE8384042F022B8372904D0F7D3A1F1B6
:108110003903012BF3D8012038BD90F8FD3173B934
:10812000FFF71CFD0546207C3EF0BEF9123085426B
:10813000217C06D208463CF085FD002038BD002594
:10814000F1E70C4836F014FDE5E790F8FD3153B93E
:10815000FFF704FD0546207C3EF0A6F90C30854271
:1081600003D2207CE7E70025F5E72046FFF77CFFF8
:10817000D1E700BFCC550020F0B52DED028B8B8BE5
:10818000BD2B87B00D4676D033D8152B00F08380F9
:108190000BD8112B79D0142B7AD0294607B0BDEC1F
:1081A000028BBDE8F04043F0CDBC732B76D0B22BF0
:1081B00000F09980162BF0D1D1ED027A9FEDC87AAC
:1081C00091ED060AC74AF0EEE77AF4EEC77A43F675
:1081D000EC03DFEDC57AD058F1EE10FA4CBF012167
:1081E000002120EE270A0DF073FD002879D0002031
:1081F000F5E040F6D812934200F0F5801BD8D12B61
:1082000000F0CC80B3F5967F00F09A80D02BC4D1DB
:10821000D1ED007AFCEEE77ACDED037ABDF80C10D3
:10822000012900F0B480C0F0A880022959D1AD48DE
:1082300002F0C0FEDBE74AF21242934200F0E38014
:108240004AF21342934200F00F814AF211429342E4
:10825000A3D1A44842F69D03C35CDB07C7D4022226
:10826000052104F0F9FD0028C1D102229D481146E4
:1082700004F0F2FDBBE79D482CF0D0FB88B302224E
:108280000321984804F0E8FDAFE702220521F8E752
:1082900002220621F5E702220921F2E7D1ED007A58
:1082A000F5EEC07AF1EE10FA1BDB9FED917AF4EE59
:1082B000C77AF1EE10FA14D891ED030ADFED887A4F
:1082C000B0EEC07AB4EEE77AF1EE10FAB0EE678A5B
:1082D00000F11E81F7EE000A27F04EFC002840F066
:1082E000178104207BE0D1ED017AF5EEC07AF1EE42
:1082F00010FAF6DD91ED007ADFED7E6A9FED7A0AE5
:10830000784BB4EEE67AF1EE10FA07DD42F65862E9
:1083100027EE800A98585AF08FFC68E7DFED766AFE
:1083200042F65862B4EEE67AF1EE10FA27EE800AD1
:10833000985802DD5AF072FC59E75AF065FC56E78E
:10834000684C42F6A403E35893F86830002BC8D079
:1083500002220321204604F07FFD0028C1D0012124
:108360002046FDF76DFF43F6A813E35C012B3FF4B5
:108370003EAF5E482CF03EFB39E700215F4846F0F7
:108380003FFB39F077FF312139F0D2FE2FE75B4810
:1083900046F036FB39F06EFF3221F5E7D1ED017A78
:1083A000FCEEE77ACDED037AD1ED007AFCEEE77AC8
:1083B000CDED047AD1ED047A9DF81020FCEEE77A39
:1083C000CDED057A9DF814300093D1ED030A91EDBF
:1083D000020A9DF80C30014642480BF085FF07B0B9
:1083E000BDEC028BF0BDD1ED017A4548FCEEE77A99
:1083F000CDED037A9DF80C30012B0CBF002101213B
:1084000051F066FBF3E6374F42F69D03F85C10F03F
:1084100001047FF4ECAE42F6A403FB5893F86860C5
:108420002EB9012211463748FDF7C4FDDFE642F6BA
:1084300078030222FB56002B13DA0521384604F09C
:108440000BFD00283FF4D3AE95ED000ADFED267A50
:1084500043F6EC03012120EE270AF8580DF038FC12
:10846000C5E60921384603E71E4B42F69D02985C9B
:1084700010F001047FF4BBAE42F6A4029A5892F8C1
:108480006820002A3FF4B3AE42F678029B56002BD8
:1084900005DA012208211B48FDF746FEA7E6D1EDCB
:1084A000007A9FED0F7AF0EEE77AF4EEC77AF1EEFC
:1084B00010FA06D4144B1B7803F0EF03042B3FF49F
:1084C00096AE02221121074804F0C6FC00283FF4B2
:1084D000CCAE40F6C4110D4807F07CFA87E600BF29
:1084E00000000034082600200000C842B05F0020D1
:1084F0000000B4439A9939403333F33F8C55002040
:10850000AC550020D84B0020884E00204862002047
:10851000D5ED037AD5ED010A95ED000A0948F4EE90
:10852000C87AD5ED027AFDEEE77AF1EE10FACDEDDC
:10853000037AACBF012200229DF90C1001F00EFD60
:1085400055E600BF5C66002008B591ED007AF6EEB6
:10855000007AB4EEE77AF1EE10FA06DD0122052189
:108560000348FDF7E1FD002008BD042008BD00BF61
:10857000D84B00202DE9F0432DED028B8A7A4B7AFF
:1085800043EA0223CA7A43EA0243872B9FB0054697
:108590000C4600F2CA80862B80F0E682522B00F057
:1085A00052810AD8002B00F0E380452B00F0ED80CB
:1085B0002146284643F050F9D5E0562B00F0E981DA
:1085C0006D2B00F0BC80542BF2D1CD78352D28BF17
:1085D0003525352200210EA8BCF08EFD2A4604F177
:1085E0000C010EA8BCF062FD43F6EC03C84AD0585B
:1085F0000368DB699847002800F0B5809DF86C504F
:10860000012D03D0EB1F022B00F2AD80BDF86840B6
:1086100014F4E07F00F0A780002314F0070706930E
:10862000079308931E4626D19FEDBA6A9DED107AF6
:10863000DDED117ADDED0F6A27EE067A67EEC67A78
:1086400066EE866AA5F10803012BCDED066A8DED75
:10865000077ACDED087A04D807AA06A9AC48FDF739
:1086600003FFEB1F022B06D8AB485BF08FFE0146E1
:1086700006A82AF0EDF90A960B960C9614F0380627
:108680001CD19FEDA46A9DED137ADDED147ADDED2A
:10869000126A27EE067A67EEC67A66EE866AA5F15A
:1086A0000803012BCDED0A6A8DED0B7ACDED0C7A26
:1086B00004D80BAA0AA99648FDF7D6FE14F48062E6
:1086C00040F04581DFED957A9DED180A20EE270AEE
:1086D000DFED907A083D012D20EE270A8CBF0025A2
:1086E000012514F4006305BFDFED8C7ADDED190A76
:1086F000DFED8E0A60EEA70A04BFDFED867A60EE3A
:10870000A70A002F40F02781002E40F03581B3FAF0
:1087100083F35B090093B2FA82F301955B090AAA1D
:1087200006A97F4808F008FF1DE0F32B00F0228225
:108730000FD8952B00F01482A62B7FF439AF0821B7
:1087400073480CF0FBFE2146024628463FF00CFB26
:1087500009E0F62B07D0FFF42BAFA3F51C53113B18
:10876000022B3FF625AF1FB0BDEC028BBDE8F083B6
:10877000674CCA7941F6D823E35E9A42F3D166F09A
:10878000B7FE42F69003E050EDE7614ECA7941F63C
:10879000D823F35E9A42E6D1CA780B2A4FF000073D
:1087A00028BF0B220C310EA80F970E97CDF83F7003
:1087B000BCF07CFC41F6D6239DF84220F35E9A4241
:1087C000D1D1BDF93C80B845CDDB66F091FE0446C1
:1087D0008DE8900042F2CC41BDF93A209FED510A5C
:1087E00071584FF47A73284642F0D2FB012342F2CB
:1087F000D04101930094BDF938209FED4A0A715889
:108800004FF47A73284642F0C3FB8DE8900042F2A1
:10881000D4419FED450A71583B464246284642F0F6
:10882000B7FB8DE8900042F2D8414FF47A73BDF95E
:108830003E209FED3C0A7158284642F0A9FB42F6C3
:108840009003F4508FE7CD78272D28BF27252722C6
:1088500000210EA8BCF050FC2A4604F10C010EA821
:10886000BCF024FC2A4D43F6EC03E8580368DB69AE
:10887000984700283FF477AF9DF85E4014F0C00F92
:108880007FF471AF05F5E153B7EE001A1B6803F0F2
:108890000403002B14BF0126002619D0FFEE000AA6
:1088A0009DED160A27F06AFA0F9B0A93109B0B9313
:1088B000119B0C9384F00402129B0D93DDED150ABD
:1088C00017483346C2F380020AA908F0A5F84AE720
:1088D000DFED160A9DED160A27F050FAF6EE000AB3
:1088E000B0EE408A27F048F970BBF6EE007AB4EE9D
:1088F000E78AF1EE10FA42F6586319DD78EE677AEE
:10890000EB5877EEA77A93ED080A27EE800ACBE7BB
:10891000082600200000C84238540020E02E65429E
:108920005C6300200000FA4400007A44000000006C
:10893000EB5877EEC87A93ED090A77EEA77AB0EE96
:10894000C00A20EE670AAFE71FED080AACE7002572
:108950001FED0A0AC5E6002E7FF405AF0121B3FA28
:1089600083F3019100955B09B2FA82F252090AA9D8
:10897000964808F0A1FDF6E6B3FA83F3B2FA82F264
:108980008DE8A0005B09520906A9904808F0AAFCEE
:10899000E9E6CE78352E28BF3526352200210EA8EF
:1089A000BCF0AAFB324604F10C010EA8BCF07EFB21
:1089B00043F6EC03864AD0580368DB6998470028E1
:1089C0003FF4D1AEBDF8684014F4E07F3FF4CBAE85
:1089D00006AE04F00707304615F06CF94FBBDDF822
:1089E0003C80DDF840904046494627F0BDFB00281A
:1089F0003FF4B9AE03AA9DF86C10284642F012FA73
:108A000000283FF4B0AE9FED737ADDED117A039B41
:108A1000009367EE877A0AADFDEEE77A4A4617EED5
:108A2000903A4146284615F065F995E80F0086E82A
:108A30000F0014F480695BD19FED670A9DED188AE1
:108A40009DF86C5028EE008A9FED620A083D012DCA
:108A500028EE008A8CBF0025012514F4006805BFAC
:108A6000DFED5D0ADDED198ADFED5C8A68EEA08A34
:108A700008BFDFED580A04F0380408BF68EEA08A8A
:108A8000002F39D1002C5BD1304615F043F9032873
:108A90003FF469AE002303A9304603930493059382
:108AA00015F036FA00283FF45EAE9FED4A6ADDED20
:108AB000126A9DED137ADDED147A0195B8FA88F308
:108AC0005B0966EE866A27EE067A67EEC67A009341
:108AD000B9FA89F3CDED0A6A8DED0B7ACDED0C7AFA
:108AE000F0EE680AB0EE480A5B090AAA03A918E684
:108AF00000259FED3A8AB0E7002C7FF434AE9FED5D
:108B0000356ADDED126A9DED137ADDED147A00957C
:108B1000012366EE866A27EE067A67EEC67A01932F
:108B2000B8FA88F3CDED0A6A8DED0B7ACDED0C7AAB
:108B3000F0EE680A5B09B0EE480AB9FA89F215E767
:108B4000B8FA88F3B9FA89F20095F0EE680A5B0981
:108B5000B0EE480A520931461C4808F04FFC02E6C4
:108B60001F4858F035FBFEE50A46017C1D4836F0EB
:108B700033F9F8E5CD783D2D28BF3D253D22002174
:108B80000EA8BCF0B9FA04F10C012A460EA8BCF0FC
:108B90008DFA0E9C44B90F9B33B9109B23B9012168
:108BA0000B4801F045FDDEE50AA815F083F80F9BA0
:108BB0000D930A22109B064893FBF2F30AA90122A7
:108BC0000C940B9301F0B8FCCDE500BF5C63002072
:108BD000082600200000C842E02E65420000000088
:108BE000445E0020CC550020F0B542F650660446A5
:108BF00080599FED2E0A8BB03C3029F053FF0AAA12
:108C0000CDED080A8DED091A8DED070A12E907006E
:108C100001AD85E8070004AB9DED030A83E807007A
:108C200027F032F804F5AB50294618308DED030AD1
:108C300042F654670FF066F942F6A40142F2CC50B6
:108C400061582058E359A2590FF056FA4FF4805159
:108C500020460CF073FC30B3A05903689B6898471A
:108C600004F513551C3500F16802A321284638F09D
:108C700075F8A0590368DB689847A42100F16802E1
:108C8000284638F06BF8A05903681B699847A5215E
:108C900000F16802284638F061F8E259A6219032C6
:108CA000284638F05BF80BB0F0BD00BF9F0CB34511
:108CB00010B5044604F5AB5411F080F9183411F0E6
:108CC00079F920460FF08CF82046BDE810400FF0EF
:108CD000B1B9000070B51B2588B004462A460021B2
:108CE00001A8BCF009FAA3238DF8043095238DF870
:108CF000053006238DF8063066F002FC42F6A40625
:108D0000CDF80700A059CDF80B10D0F8D830CDF829
:108D10000F30CC303BF0BEF80368CDF8133004F5CB
:108D20002D53383304F513501B68CDF81730A35971
:108D30002A46D3F8DC30CDF81B3001A91C3038F0BE
:108D4000D1FC08B070BD00007FB50E464FF6FF7134
:108D5000044615460CF0F2FBE8B1102200216846EB
:108D6000BCF0CAF9A3238DF8003095238DF80130AB
:108D700003238DF8023066F0C3FBCDF8030004F541
:108D80001350CDF80710102269461C308DF80B6087
:108D9000039538F0F9FC04B070BD00007FB50E46B5
:108DA0004FF6FF71044615460CF0C8FBE8B11022DF
:108DB00000216846BCF0A0F9A3238DF8003095236C
:108DC0008DF8013004238DF8023066F099FBCDF860
:108DD000030004F51350CDF80710102269461C302B
:108DE0008DF80B60039538F0CFFC04B070BD000027
:108DF00070B52DED048B182486B0224605460E462C
:108E000068460021B0EE409AF0EE608AB0EE418AEA
:108E1000BCF072F9A3238DF8003095238DF8013052
:108E200007238DF8023066F06BFBCDF8030005F5E3
:108E30001350CDF80710224669461C308DF80B60A0
:108E40008DED039ACDED048A8DED058A38F04AFC4C
:108E500006B0BDEC048B70BD2DE9F04142F6A003D5
:108E600090F87925C15C242303FB0202044692F8A2
:108E7000A13501F0010123B192F8A2350BB192F8AE
:108E8000A335994210D042F6A005625D63F300025B
:108E9000625539F0EFF9635D13F0010F0CBF042246
:108EA0000022122139F064F942F6A00504F2846828
:108EB0004FF000014046665D17F0A8FF7C27C0B266
:108EC00007FB0040C6F3400690F80D37B34218D0B8
:108ED0004FF00001404617F099FFC0B207FB004079
:108EE000635D90F80D2762F34103635539F0C2F9D1
:108EF000635D13F0020F0CBF04220022032139F03E
:108F000037F942F6A00294F89814A35CC3F38100E9
:108F1000884209D061F38303A35439F0ABF94321AC
:108F2000BDE8F04139F004B9BDE8F08130B543F651
:108F30003C03C518C35695B00446002B5CD00023F3
:108F40006946284604930593069300930193029380
:108F5000039358F011F902A9284658F023F904A9FF
:108F6000284658F0F9F83222002107A8BCF0C4F8CE
:108F7000A3238DF81C3095238DF81D3009238DF81F
:108F80001E3066F0BDFA43F6C803CDF81F00E35C5F
:108F9000CDF8231028468DF8273058F09DF8009B17
:108FA000CDF82930019BCDF82D30029BCDF8313022
:108FB000039BCDF83530049BCDF83930059BCDF8B7
:108FC0003D30069BCDF8413043F668038DF828000C
:108FD000E358CDF8453043F6940304F51350E358B5
:108FE000CDF8493043F63F033222E35C8DF84D3033
:108FF00007A91C3038F076FB15B030BD2DE9F041E3
:1090000024268AB0154607463246884601A8002124
:109010001C46BCF071F8A3238DF8043095238DF81D
:1090200005300A238DF8063066F06AFA2B6804933F
:109030006B680593AB6806932368CDF80700079328
:1090400007F513506368CDF80B1008933246A368F8
:109050008DF80F8001A91C30099338F043FB0AB04A
:10906000BDE8F08138B5044600F513550CF088FAD8
:109070001C3502460B49284638F086FC04F522537D
:1090800042F681021978A25C284638F09FFC04F56C
:10909000AB5018300FF00AFB04F51B70BDE83840E8
:1090A0001BF036B91C960C0800F5135095220249A6
:1090B0001C3038F0F1BE00BF44980C08F0B52DED1F
:1090C000028B93B012A90446002300F53F5041F8EB
:1090D000403D0122043035F02FFB08B94C4B029380
:1090E00043F6EC03DFED4B8AE0580368DB689847F2
:1090F000002840F0898042F65463E358D3ED527A59
:1091000087EEA88AD3ED5B7AFDEEE77ACDED017AA2
:10911000BDF9046004F51657383703A938460CF03A
:1091200003F818B939F0A6F8394B03933722002118
:1091300004A8BBF0E1FFA3238DF8103095238DF830
:10914000113066F0DDF942F6A40542F65063CDF821
:109150001300E3586059D3F8AC20D3F8B030CDF801
:1091600017103830CDF81B20CDF81F303AF092FEA2
:10917000B7EE001ADFED280A90ED000A26F0FEFD9A
:1091800010EE103A6059CDF8233003681B689847F9
:1091900010EE103A04F53855CDF82730303518EE7A
:1091A000103A2846CDF82B305BF0F4F880EE280A10
:1091B000384610EE103ACDF82F3042F6FC53E35803
:1091C000CDF83330039BCDF837300BF0BFFF10EEF6
:1091D000103A2846CDF83B30029BCDF83F30ADF831
:1091E00043605BF0DBF8FDEEC07A04F5135017EE38
:1091F000903A372204A91C30ADF8453038F072FAA5
:1092000013B0BDEC028BF0BD00269FED038A81E711
:109210002292CA7F0000C84200000000B0F900306E
:109220009FED097A01805B1A07EE903AF8EEE77A33
:10923000F0EEE77AF4EEC77AF1EE10FA4CBF0121B6
:10924000002131F0E5BD00BF00000034F8B5214B2E
:1092500043600446083053F045FF0023E36623676C
:1092600063671D4AC4F894301C4BC4F88C20C4F8C2
:1092700098304FF080421A4BC4F89C30C4F89020CC
:1092800004F1A0004AF062FA04F1D80043F062FD54
:10929000144F154BC4F8D83004F1F40600257019AA
:1092A00043F0A6F877512835B5F5207FF7D104F5BE
:1092B0005D7044F0A5F9002104F68C005FF024FBFA
:1092C0000A4BC4F844392046094932F0BBFC204619
:1092D000F8BD00BF203700200000C8410AD7233C5A
:1092E0000000E040C4DD0C08DCDD0C08D06000208C
:1092F00008C80C08F0B52DED028B604C60499FED5D
:10930000618AADF5437D0746902232A8BBF0CEFEC0
:109310000FCC16AD0FC50FCC0FC594E80F0004F5A8
:10932000987685E80F0004F110014FF490727AA846
:10933000BBF0BCFE0FCE06AD0FC596E80F0004F5DE
:10934000A87485E80F000FCC22AD0FC50FCC0FC558
:109350000FCC0FC594E80F0085E80F0041F62A33C3
:10936000DFED497AFB5C013B022B88BFB0EE678AD8
:10937000002432AB18190021B0EE480A103432F044
:109380008DF8902CF5D100219FED400A16A832F0FF
:1093900085F800219FED3D0A1AA832F07FF80021E0
:1093A0009FED3A0A1EA832F079F800247AAB18191A
:1093B0000021B7EE000A103432F070F8B4F5907F57
:1093C000F4D100219FED320A06A832F067F800219F
:1093D0000AA89FED2F0A32F061F82E4B0FCB02AC9A
:1093E00084E80F0001A9204632F028F890B19DF9D9
:1093F00004309FED297AE06807EE903AF8EEE77ABC
:10940000B0EE000AA7EE870AF7EE007A87EE800A30
:1094100032F0D4FE002422AB181900211034B7EE2C
:10942000000A32F03BF8402CF5D190221B4956A897
:10943000BBF03CFE002456AB181900220121103469
:1094400032F0BEF8902CF6D1154D0FCD0EAC0FC4F6
:1094500095E80F0084E80F000EA80022012132F0E9
:10946000AFF80022012112A832F0AAF843F00EFF53
:109470000DF5437DBDEC028BF0BD00BF78850C0877
:10948000E8840C086666663F5C8FA23F5304693926
:109490006F12833A28870C08CDCCCC3D38870C0856
:1094A000C8870C082DE9F04391B00DF106011D208D
:1094B00043F0FAFF002800F099809DF806305C4ADE
:1094C0000133DBB211210BA88DF8063065F0EAFEFE
:1094D00000220DF107010BA831F086FB9DF8063044
:1094E000544A112106460BA865F0DCFE00220DF15E
:1094F00007010BA831F078FB9DF806304E4A112188
:1095000007460BA865F0CEFE00220DF107010BA85F
:1095100031F06AFB9DF80630484A03F03F03112101
:1095200080460BA865F0BEFE00220DF107010BA8D6
:1095300031F05AFB0546002E58D0002F56D0B8F116
:10954000000F53D0002851D0304631F0F7FC0028EE
:109550004CD1384631F0F2FC002847D1404631F07A
:10956000EDFC002842D1284631F0E8FC00283DD12E
:10957000334C94E80F000DF10C0E10348EE80F0000
:1095800094E80F000DF11C0989E80F0002A970464C
:1095900031F054FF08B9002401E0BDF9084002A9E8
:1095A0004846A4B231F04AFF00283BD0BDF808106D
:1095B000FCB9D9B140F2E2448C420FFA81F924B2ED
:1095C0001DDC49463846FFF729FE21463046FFF7A5
:1095D00025FE21464046FFF721FEB5F900302BB1AC
:1095E00000232B800121284631F012FC11B0BDE888
:1095F000F08340F2D663002908BF1946DCE7214614
:109600003846FFF70BFE49463046FFF707FE49464E
:109610004046FFF703FEB5F90030012BE6D00121EB
:109620002980E0E7002CE1D040F2D661C4E700BF1A
:10963000A8CA0C08B4CA0C08C0CA0C08CDCA0C08C9
:10964000E8870C0873B5002205460DF107011E4896
:1096500031F0CAFA0646A8B331F070FC90BB9DF811
:109660000730032B2ED141F61233EB56022B01D0DB
:10967000102405E0B7EE000A144832F007FE11246A
:1096800005F5D85595F90030022B06D1B7EE000A42
:109690000F4844F0020432F0F9FD33689FED0D7A73
:1096A00034601B1B07EE903AF8EEE77A3046F0EE96
:1096B000E77AF4EEC77AF1EE10FA4CBF01210021EF
:1096C00031F0A6FB02B070BDA18B0C08E0CA0C08FB
:1096D000EECA0C0800000034F8B5044631F088F8F2
:1096E0002A4A40B913682A49986B03681B6898474F
:1096F000284865F0DBFE04F5AB53156893F8981025
:109700006FF3820183F8981041F6D427E86C0021AA
:10971000E61922F00BFD304632F00AFA18B3E35F87
:10972000782B20D165F0E2FE064632F087F9002260
:109730001021194831F044FF2046FFF7B3FE2046C0
:10974000FFF780FFAC6B23681D6865F0CFFE1349FF
:10975000821B2046A84732F081FB114A138843F050
:1097600001031380F8BDA86B0E4903681B68984776
:1097700044F0F6F830F0A8FC30467821FFF74EFDB3
:10978000A86B094903681B689847CBE75866002017
:109790004CCA0C085BCA0C0808C70C0869CA0C083C
:1097A000186A00207DCA0C08A1CA0C080F29DDBF69
:1097B000282303FB01001C300020704741F61F33B3
:1097C000014AD056704700BF0826002042F2D84315
:1097D000014AD058704700BF08260020074B42F6C8
:1097E0009D029A5CD2075FBF42F69C029856B0FA7F
:1097F00080F0400948BF0020704700BF08260020C5
:1098000070B50D1E41DB214C42F274532646E35CD9
:109810009D423ADC42F270530122E3582046595DE2
:1098200003F01AFB42F6790340B9E35C99062CD5A4
:10983000174A137843F00403137070BDE35C9A0673
:1098400041BF134A137843F00203137043F0BCFB8B
:10985000032143F03DFAC0B943F0B6FB0D2143F0BC
:1098600037FA90B941F60433E356EB40DB0705D5F0
:1098700002210648BDE87040FCF7F6BC41F61E33F5
:10988000F156E94001F00101F3E770BD0826002020
:10989000A8690020022A10B513D10F4C01222046DE
:1098A00003F0DAFA42F67903E35C9B0613D50B4B1F
:1098B0001A7818B142F002021A7010BD42F0040288
:1098C000FAE7074A12788A4205D143F07DFBBDE8EA
:1098D000104043F03FBB10BD08260020A8690020BF
:1098E000884E002031B1022903D142F67C03024A9E
:1098F000D15070470121F8E70826002010B542F248
:10990000D043DFED186AC3589FED177AB3F90830DA
:1099100007EE903A42F2CC43F8EEE77AC358B3F937
:109920000830C7EEA60A044600F5AB5001211830F6
:1099300007EE903AF8EEE77A60EE870A87EEA60A1D
:1099400020EE070A0EF0D2FC38F094FC262138F005
:10995000EFFB04F51950054A06213C30BDE81040E4
:109960003AF048BF0000C84235FA8E3CB0DD0C0822
:1099700042F6686200238354044A00F519501372BA
:109980000621034A3C303AF035BF00BF8D69002004
:1099900084DD0C0870B542F668630446C15C00299A
:1099A0005AD043F6EC022D4B98582D4A904205D1DF
:1099B00042F6A4029B5893F8683023B92046BDE8CC
:1099C0007040FFF7D5BF42F66962264DA65C0123C1
:1099D0002B722EB942F67800205600283CDBA354A7
:1099E00042F67803E356002BE8DB42F6686601395D
:1099F000C9B2A15542F2D043DFED1B6AE3589FED97
:109A00001B7AB3F9083007EE903A42F2CC43F8EEF5
:109A1000E77AE358B3F90830C7EEA60AB1FA81F144
:109A200004F5AB504909183007EE903AF8EEE77AA2
:109A300060EE870A87EEA60A20EE070A0EF056FCB3
:109A4000A35D4BB904F519502B72094A06213C302D
:109A5000BDE870403AF0CEBE70BD00BF08260020C1
:109A6000386500208D69002000007A4535FA8E3C6B
:109A700098DD0C088B1E00B5522B35D8DFE803F0BB
:109A8000382A3838343834342A34382A2A343838A2
:109A90003834342A382A342A2A34343434342A38AC
:109AA00034343438342A3434382A2A38343838387C
:109AB000343438343438383834343838343434344E
:109AC0003434383838383838342A2A343434343452
:109AD00034382F0003685DF804EB1B681847114603
